{
  "address": "0x6925affDa98274FE0376250187CCC4aC62866dCd",
  "abi": [
    {
      "inputs": [
        {
          "internalType": "contract ENS",
          "name": "_ens",
          "type": "address"
        },
        {
          "internalType": "contract INameWrapper",
          "name": "wrapperAddress",
          "type": "address"
        },
        {
          "internalType": "address",
          "name": "_trustedETHController",
          "type": "address"
        },
        {
          "internalType": "address",
          "name": "_trustedReverseRegistrar",
          "type": "address"
        }
      ],
      "stateMutability": "nonpayable",
      "type": "constructor"
    },
    {
      "inputs": [
        {
          "internalType": "bytes",
          "name": "addressBytes",
          "type": "bytes"
        }
      ],
      "name": "InvalidEVMAddress",
      "type": "error"
    },
    {
      "anonymous": false,
      "inputs": [
        {
          "indexed": true,
          "internalType": "bytes32",
          "name": "node",
          "type": "bytes32"
        },
        {
          "indexed": true,
          "internalType": "uint256",
          "name": "contentType",
          "type": "uint256"
        }
      ],
      "name": "ABIChanged",
      "type": "event"
    },
    {
      "anonymous": false,
      "inputs": [
        {
          "indexed": true,
          "internalType": "bytes32",
          "name": "node",
          "type": "bytes32"
        },
        {
          "indexed": false,
          "internalType": "address",
          "name": "a",
          "type": "address"
        }
      ],
      "name": "AddrChanged",
      "type": "event"
    },
    {
      "anonymous": false,
      "inputs": [
        {
          "indexed": true,
          "internalType": "bytes32",
          "name": "node",
          "type": "bytes32"
        },
        {
          "indexed": false,
          "internalType": "uint256",
          "name": "coinType",
          "type": "uint256"
        },
        {
          "indexed": false,
          "internalType": "bytes",
          "name": "newAddress",
          "type": "bytes"
        }
      ],
      "name": "AddressChanged",
      "type": "event"
    },
    {
      "anonymous": false,
      "inputs": [
        {
          "indexed": true,
          "internalType": "address",
          "name": "owner",
          "type": "address"
        },
        {
          "indexed": true,
          "internalType": "address",
          "name": "operator",
          "type": "address"
        },
        {
          "indexed": false,
          "internalType": "bool",
          "name": "approved",
          "type": "bool"
        }
      ],
      "name": "ApprovalForAll",
      "type": "event"
    },
    {
      "anonymous": false,
      "inputs": [
        {
          "indexed": false,
          "internalType": "address",
          "name": "owner",
          "type": "address"
        },
        {
          "indexed": true,
          "internalType": "bytes32",
          "name": "node",
          "type": "bytes32"
        },
        {
          "indexed": true,
          "internalType": "address",
          "name": "delegate",
          "type": "address"
        },
        {
          "indexed": true,
          "internalType": "bool",
          "name": "approved",
          "type": "bool"
        }
      ],
      "name": "Approved",
      "type": "event"
    },
    {
      "anonymous": false,
      "inputs": [
        {
          "indexed": true,
          "internalType": "bytes32",
          "name": "node",
          "type": "bytes32"
        },
        {
          "indexed": false,
          "internalType": "bytes",
          "name": "hash",
          "type": "bytes"
        }
      ],
      "name": "ContenthashChanged",
      "type": "event"
    },
    {
      "anonymous": false,
      "inputs": [
        {
          "indexed": true,
          "internalType": "bytes32",
          "name": "node",
          "type": "bytes32"
        },
        {
          "indexed": false,
          "internalType": "bytes",
          "name": "name",
          "type": "bytes"
        },
        {
          "indexed": false,
          "internalType": "uint16",
          "name": "resource",
          "type": "uint16"
        },
        {
          "indexed": false,
          "internalType": "bytes",
          "name": "record",
          "type": "bytes"
        }
      ],
      "name": "DNSRecordChanged",
      "type": "event"
    },
    {
      "anonymous": false,
      "inputs": [
        {
          "indexed": true,
          "internalType": "bytes32",
          "name": "node",
          "type": "bytes32"
        },
        {
          "indexed": false,
          "internalType": "bytes",
          "name": "name",
          "type": "bytes"
        },
        {
          "indexed": false,
          "internalType": "uint16",
          "name": "resource",
          "type": "uint16"
        }
      ],
      "name": "DNSRecordDeleted",
      "type": "event"
    },
    {
      "anonymous": false,
      "inputs": [
        {
          "indexed": true,
          "internalType": "bytes32",
          "name": "node",
          "type": "bytes32"
        },
        {
          "indexed": false,
          "internalType": "bytes",
          "name": "lastzonehash",
          "type": "bytes"
        },
        {
          "indexed": false,
          "internalType": "bytes",
          "name": "zonehash",
          "type": "bytes"
        }
      ],
      "name": "DNSZonehashChanged",
      "type": "event"
    },
    {
      "anonymous": false,
      "inputs": [
        {
          "indexed": true,
          "internalType": "bytes32",
          "name": "node",
          "type": "bytes32"
        },
        {
          "indexed": true,
          "internalType": "bytes4",
          "name": "interfaceID",
          "type": "bytes4"
        },
        {
          "indexed": false,
          "internalType": "address",
          "name": "implementer",
          "type": "address"
        }
      ],
      "name": "InterfaceChanged",
      "type": "event"
    },
    {
      "anonymous": false,
      "inputs": [
        {
          "indexed": true,
          "internalType": "bytes32",
          "name": "node",
          "type": "bytes32"
        },
        {
          "indexed": false,
          "internalType": "string",
          "name": "name",
          "type": "string"
        }
      ],
      "name": "NameChanged",
      "type": "event"
    },
    {
      "anonymous": false,
      "inputs": [
        {
          "indexed": true,
          "internalType": "bytes32",
          "name": "node",
          "type": "bytes32"
        },
        {
          "indexed": false,
          "internalType": "bytes32",
          "name": "x",
          "type": "bytes32"
        },
        {
          "indexed": false,
          "internalType": "bytes32",
          "name": "y",
          "type": "bytes32"
        }
      ],
      "name": "PubkeyChanged",
      "type": "event"
    },
    {
      "anonymous": false,
      "inputs": [
        {
          "indexed": true,
          "internalType": "bytes32",
          "name": "node",
          "type": "bytes32"
        },
        {
          "indexed": true,
          "internalType": "string",
          "name": "indexedKey",
          "type": "string"
        },
        {
          "indexed": false,
          "internalType": "string",
          "name": "key",
          "type": "string"
        },
        {
          "indexed": false,
          "internalType": "string",
          "name": "value",
          "type": "string"
        }
      ],
      "name": "TextChanged",
      "type": "event"
    },
    {
      "anonymous": false,
      "inputs": [
        {
          "indexed": true,
          "internalType": "bytes32",
          "name": "node",
          "type": "bytes32"
        },
        {
          "indexed": false,
          "internalType": "uint64",
          "name": "newVersion",
          "type": "uint64"
        }
      ],
      "name": "VersionChanged",
      "type": "event"
    },
    {
      "inputs": [
        {
          "internalType": "bytes32",
          "name": "node",
          "type": "bytes32"
        },
        {
          "internalType": "uint256",
          "name": "contentTypes",
          "type": "uint256"
        }
      ],
      "name": "ABI",
      "outputs": [
        {
          "internalType": "uint256",
          "name": "",
          "type": "uint256"
        },
        {
          "internalType": "bytes",
          "name": "",
          "type": "bytes"
        }
      ],
      "stateMutability": "view",
      "type": "function"
    },
    {
      "inputs": [
        {
          "internalType": "bytes32",
          "name": "node",
          "type": "bytes32"
        }
      ],
      "name": "addr",
      "outputs": [
        {
          "internalType": "address payable",
          "name": "",
          "type": "address"
        }
      ],
      "stateMutability": "view",
      "type": "function"
    },
    {
      "inputs": [
        {
          "internalType": "bytes32",
          "name": "node",
          "type": "bytes32"
        },
        {
          "internalType": "uint256",
          "name": "coinType",
          "type": "uint256"
        }
      ],
      "name": "addr",
      "outputs": [
        {
          "internalType": "bytes",
          "name": "addressBytes",
          "type": "bytes"
        }
      ],
      "stateMutability": "view",
      "type": "function"
    },
    {
      "inputs": [
        {
          "internalType": "bytes32",
          "name": "node",
          "type": "bytes32"
        },
        {
          "internalType": "address",
          "name": "delegate",
          "type": "address"
        },
        {
          "internalType": "bool",
          "name": "approved",
          "type": "bool"
        }
      ],
      "name": "approve",
      "outputs": [],
      "stateMutability": "nonpayable",
      "type": "function"
    },
    {
      "inputs": [
        {
          "internalType": "bytes32",
          "name": "node",
          "type": "bytes32"
        }
      ],
      "name": "clearRecords",
      "outputs": [],
      "stateMutability": "nonpayable",
      "type": "function"
    },
    {
      "inputs": [
        {
          "internalType": "bytes32",
          "name": "node",
          "type": "bytes32"
        }
      ],
      "name": "contenthash",
      "outputs": [
        {
          "internalType": "bytes",
          "name": "",
          "type": "bytes"
        }
      ],
      "stateMutability": "view",
      "type": "function"
    },
    {
      "inputs": [
        {
          "internalType": "bytes32",
          "name": "node",
          "type": "bytes32"
        },
        {
          "internalType": "bytes32",
          "name": "name",
          "type": "bytes32"
        },
        {
          "internalType": "uint16",
          "name": "resource",
          "type": "uint16"
        }
      ],
      "name": "dnsRecord",
      "outputs": [
        {
          "internalType": "bytes",
          "name": "",
          "type": "bytes"
        }
      ],
      "stateMutability": "view",
      "type": "function"
    },
    {
      "inputs": [
        {
          "internalType": "bytes32",
          "name": "node",
          "type": "bytes32"
        },
        {
          "internalType": "uint256",
          "name": "coinType",
          "type": "uint256"
        }
      ],
      "name": "hasAddr",
      "outputs": [
        {
          "internalType": "bool",
          "name": "",
          "type": "bool"
        }
      ],
      "stateMutability": "view",
      "type": "function"
    },
    {
      "inputs": [
        {
          "internalType": "bytes32",
          "name": "node",
          "type": "bytes32"
        },
        {
          "internalType": "bytes32",
          "name": "name",
          "type": "bytes32"
        }
      ],
      "name": "hasDNSRecords",
      "outputs": [
        {
          "internalType": "bool",
          "name": "",
          "type": "bool"
        }
      ],
      "stateMutability": "view",
      "type": "function"
    },
    {
      "inputs": [
        {
          "internalType": "bytes32",
          "name": "node",
          "type": "bytes32"
        },
        {
          "internalType": "bytes4",
          "name": "interfaceID",
          "type": "bytes4"
        }
      ],
      "name": "interfaceImplementer",
      "outputs": [
        {
          "internalType": "address",
          "name": "",
          "type": "address"
        }
      ],
      "stateMutability": "view",
      "type": "function"
    },
    {
      "inputs": [
        {
          "internalType": "address",
          "name": "owner",
          "type": "address"
        },
        {
          "internalType": "bytes32",
          "name": "node",
          "type": "bytes32"
        },
        {
          "internalType": "address",
          "name": "delegate",
          "type": "address"
        }
      ],
      "name": "isApprovedFor",
      "outputs": [
        {
          "internalType": "bool",
          "name": "",
          "type": "bool"
        }
      ],
      "stateMutability": "view",
      "type": "function"
    },
    {
      "inputs": [
        {
          "internalType": "address",
          "name": "account",
          "type": "address"
        },
        {
          "internalType": "address",
          "name": "operator",
          "type": "address"
        }
      ],
      "name": "isApprovedForAll",
      "outputs": [
        {
          "internalType": "bool",
          "name": "",
          "type": "bool"
        }
      ],
      "stateMutability": "view",
      "type": "function"
    },
    {
      "inputs": [
        {
          "internalType": "bytes[]",
          "name": "data",
          "type": "bytes[]"
        }
      ],
      "name": "multicall",
      "outputs": [
        {
          "internalType": "bytes[]",
          "name": "results",
          "type": "bytes[]"
        }
      ],
      "stateMutability": "nonpayable",
      "type": "function"
    },
    {
      "inputs": [
        {
          "internalType": "bytes32",
          "name": "nodehash",
          "type": "bytes32"
        },
        {
          "internalType": "bytes[]",
          "name": "data",
          "type": "bytes[]"
        }
      ],
      "name": "multicallWithNodeCheck",
      "outputs": [
        {
          "internalType": "bytes[]",
          "name": "results",
          "type": "bytes[]"
        }
      ],
      "stateMutability": "nonpayable",
      "type": "function"
    },
    {
      "inputs": [
        {
          "internalType": "bytes32",
          "name": "node",
          "type": "bytes32"
        }
      ],
      "name": "name",
      "outputs": [
        {
          "internalType": "string",
          "name": "",
          "type": "string"
        }
      ],
      "stateMutability": "view",
      "type": "function"
    },
    {
      "inputs": [
        {
          "internalType": "bytes32",
          "name": "node",
          "type": "bytes32"
        }
      ],
      "name": "pubkey",
      "outputs": [
        {
          "internalType": "bytes32",
          "name": "x",
          "type": "bytes32"
        },
        {
          "internalType": "bytes32",
          "name": "y",
          "type": "bytes32"
        }
      ],
      "stateMutability": "view",
      "type": "function"
    },
    {
      "inputs": [
        {
          "internalType": "bytes32",
          "name": "",
          "type": "bytes32"
        }
      ],
      "name": "recordVersions",
      "outputs": [
        {
          "internalType": "uint64",
          "name": "",
          "type": "uint64"
        }
      ],
      "stateMutability": "view",
      "type": "function"
    },
    {
      "inputs": [
        {
          "internalType": "bytes32",
          "name": "node",
          "type": "bytes32"
        },
        {
          "internalType": "uint256",
          "name": "contentType",
          "type": "uint256"
        },
        {
          "internalType": "bytes",
          "name": "data",
          "type": "bytes"
        }
      ],
      "name": "setABI",
      "outputs": [],
      "stateMutability": "nonpayable",
      "type": "function"
    },
    {
      "inputs": [
        {
          "internalType": "bytes32",
          "name": "node",
          "type": "bytes32"
        },
        {
          "internalType": "uint256",
          "name": "coinType",
          "type": "uint256"
        },
        {
          "internalType": "bytes",
          "name": "addressBytes",
          "type": "bytes"
        }
      ],
      "name": "setAddr",
      "outputs": [],
      "stateMutability": "nonpayable",
      "type": "function"
    },
    {
      "inputs": [
        {
          "internalType": "bytes32",
          "name": "node",
          "type": "bytes32"
        },
        {
          "internalType": "address",
          "name": "_addr",
          "type": "address"
        }
      ],
      "name": "setAddr",
      "outputs": [],
      "stateMutability": "nonpayable",
      "type": "function"
    },
    {
      "inputs": [
        {
          "internalType": "address",
          "name": "operator",
          "type": "address"
        },
        {
          "internalType": "bool",
          "name": "approved",
          "type": "bool"
        }
      ],
      "name": "setApprovalForAll",
      "outputs": [],
      "stateMutability": "nonpayable",
      "type": "function"
    },
    {
      "inputs": [
        {
          "internalType": "bytes32",
          "name": "node",
          "type": "bytes32"
        },
        {
          "internalType": "bytes",
          "name": "hash",
          "type": "bytes"
        }
      ],
      "name": "setContenthash",
      "outputs": [],
      "stateMutability": "nonpayable",
      "type": "function"
    },
    {
      "inputs": [
        {
          "internalType": "bytes32",
          "name": "node",
          "type": "bytes32"
        },
        {
          "internalType": "bytes",
          "name": "data",
          "type": "bytes"
        }
      ],
      "name": "setDNSRecords",
      "outputs": [],
      "stateMutability": "nonpayable",
      "type": "function"
    },
    {
      "inputs": [
        {
          "internalType": "bytes32",
          "name": "node",
          "type": "bytes32"
        },
        {
          "internalType": "bytes4",
          "name": "interfaceID",
          "type": "bytes4"
        },
        {
          "internalType": "address",
          "name": "implementer",
          "type": "address"
        }
      ],
      "name": "setInterface",
      "outputs": [],
      "stateMutability": "nonpayable",
      "type": "function"
    },
    {
      "inputs": [
        {
          "internalType": "bytes32",
          "name": "node",
          "type": "bytes32"
        },
        {
          "internalType": "string",
          "name": "newName",
          "type": "string"
        }
      ],
      "name": "setName",
      "outputs": [],
      "stateMutability": "nonpayable",
      "type": "function"
    },
    {
      "inputs": [
        {
          "internalType": "bytes32",
          "name": "node",
          "type": "bytes32"
        },
        {
          "internalType": "bytes32",
          "name": "x",
          "type": "bytes32"
        },
        {
          "internalType": "bytes32",
          "name": "y",
          "type": "bytes32"
        }
      ],
      "name": "setPubkey",
      "outputs": [],
      "stateMutability": "nonpayable",
      "type": "function"
    },
    {
      "inputs": [
        {
          "internalType": "bytes32",
          "name": "node",
          "type": "bytes32"
        },
        {
          "internalType": "string",
          "name": "key",
          "type": "string"
        },
        {
          "internalType": "string",
          "name": "value",
          "type": "string"
        }
      ],
      "name": "setText",
      "outputs": [],
      "stateMutability": "nonpayable",
      "type": "function"
    },
    {
      "inputs": [
        {
          "internalType": "bytes32",
          "name": "node",
          "type": "bytes32"
        },
        {
          "internalType": "bytes",
          "name": "hash",
          "type": "bytes"
        }
      ],
      "name": "setZonehash",
      "outputs": [],
      "stateMutability": "nonpayable",
      "type": "function"
    },
    {
      "inputs": [
        {
          "internalType": "bytes4",
          "name": "interfaceID",
          "type": "bytes4"
        }
      ],
      "name": "supportsInterface",
      "outputs": [
        {
          "internalType": "bool",
          "name": "",
          "type": "bool"
        }
      ],
      "stateMutability": "view",
      "type": "function"
    },
    {
      "inputs": [
        {
          "internalType": "bytes32",
          "name": "node",
          "type": "bytes32"
        },
        {
          "internalType": "string",
          "name": "key",
          "type": "string"
        }
      ],
      "name": "text",
      "outputs": [
        {
          "internalType": "string",
          "name": "",
          "type": "string"
        }
      ],
      "stateMutability": "view",
      "type": "function"
    },
    {
      "inputs": [
        {
          "internalType": "bytes32",
          "name": "node",
          "type": "bytes32"
        }
      ],
      "name": "zonehash",
      "outputs": [
        {
          "internalType": "bytes",
          "name": "",
          "type": "bytes"
        }
      ],
      "stateMutability": "view",
      "type": "function"
    }
  ],
  "transactionHash": "0x220f7b2cd9a9a3b443c103d3891c697c90ef5499adb287888715f077d2f9513b",
  "args": [
    "0x00000000000C2E074eC69A0dFb2997BA6C7d2e1e",
    "0xab50971078225D365994dc1Edcb9b7FD72Bb4862",
    "0xFce6ce4373CB6E7e470EAa55329638acD9Dbd202",
    "0x132AC0B116a73add4225029D1951A9A707Ef673f"
  ],
  "numDeployments": 3,
  "solcInputHash": "53607203823ca934dc777094bb2d514e",
  "bytecode": "0x61010060405234801561001157600080fd5b50604051613af9380380613af98339810160408190526100309161016d565b6040516302571be360e01b81527f91d1777781884d03a6757a803996e38de2a42967fb37eeaca72729271025a9e26004820152849033906000906001600160a01b038416906302571be390602401602060405180830381865afa15801561009b573d6000803e3d6000fd5b505050506040513d601f19601f820116820180604052508101906100bf91906101cc565b604051630f41a04d60e11b81526001600160a01b03848116600483015291925090821690631e83409a906024016020604051808303816000875af115801561010b573d6000803e3d6000fd5b505050506040513d601f19601f8201168201806040525081019061012f91906101f0565b5050506001600160a01b039485166080525091831660a052821660c0521660e052610209565b6001600160a01b038116811461016a57600080fd5b50565b6000806000806080858703121561018357600080fd5b845161018e81610155565b602086015190945061019f81610155565b60408601519093506101b081610155565b60608601519092506101c181610155565b939692955090935050565b6000602082840312156101de57600080fd5b81516101e981610155565b9392505050565b60006020828403121561020257600080fd5b5051919050565b60805160a05160c05160e0516138b06102496000396000611bb101526000611b72015260008181611c960152611d1601526000611c1201526138b06000f3fe608060405234801561001057600080fd5b50600436106101e55760003560e01c8063773722131161010f578063c8690233116100a2578063e32954eb11610071578063e32954eb1461053c578063e59d895d1461054f578063e985e9c514610562578063f1cb7e06146105ab57600080fd5b8063c86902331461047a578063ce3decdc146104d3578063d5fa2b00146104e6578063d700ff33146104f957600080fd5b8063a8fa5682116100de578063a8fa5682146103e3578063a9784b3e146103f6578063ac9650d814610447578063bc1c58d11461046757600080fd5b806377372213146103975780638b95dd71146103aa578063a22cb465146103bd578063a4b91a01146103d057600080fd5b806332f111d71161018757806359d1d43c1161015657806359d1d43c1461033e5780635c98042b1461035e578063623195b014610371578063691f34311461038457600080fd5b806332f111d7146102b95780633603d758146102cc5780633b3b57de146102df5780634cbf6ba4146102f257600080fd5b8063124a319c116101c3578063124a319c1461023a5780632203ab561461027257806329cd62ea14610293578063304e6ade146102a657600080fd5b806301ffc9a7146101ea5780630af179d71461021257806310f13a8c14610227575b600080fd5b6101fd6101f8366004612b16565b6105be565b60405190151581526020015b60405180910390f35b610225610220366004612b73565b6105cf565b005b610225610235366004612bbf565b6107d9565b61024d610248366004612c3e565b6108a6565b60405173ffffffffffffffffffffffffffffffffffffffff9091168152602001610209565b610285610280366004612c6a565b610c3d565b604051610209929190612cfa565b6102256102a1366004612d13565b610d82565b6102256102b4366004612b73565b610e1d565b6101fd6102c7366004612c6a565b610e99565b6102256102da366004612d3f565b610ee5565b61024d6102ed366004612d3f565b610f88565b6101fd610300366004612c6a565b6000828152602081815260408083205467ffffffffffffffff1683526006825280832094835293815283822092825291909152205461ffff16151590565b61035161034c366004612b73565b610fa7565b6040516102099190612d58565b61035161036c366004612d3f565b611087565b61022561037f366004612d6b565b611146565b610351610392366004612d3f565b6111e3565b6102256103a5366004612b73565b61121d565b6102256103b8366004612ded565b611299565b6102256103cb366004612f28565b6113d8565b6102256103de366004612f54565b611514565b6103516103f1366004612f92565b611633565b6101fd610404366004612fd2565b73ffffffffffffffffffffffffffffffffffffffff9283166000908152600c60209081526040808320948352938152838220929094168152925290205460ff1690565b61045a61045536600461304e565b611681565b6040516102099190613090565b610351610475366004612d3f565b611696565b6104be610488366004612d3f565b6000818152602081815260408083205467ffffffffffffffff168352600982528083209383529290522080546001909101549091565b60408051928352602083019190915201610209565b6102256104e1366004612b73565b6116d0565b6102256104f4366004613113565b611813565b610523610507366004612d3f565b60006020819052908152604090205467ffffffffffffffff1681565b60405167ffffffffffffffff9091168152602001610209565b61045a61054a366004613143565b61187a565b61022561055d366004613182565b61188f565b6101fd6105703660046131b7565b73ffffffffffffffffffffffffffffffffffffffff9182166000908152600b6020908152604080832093909416825291909152205460ff1690565b6103516105b9366004612c6a565b611973565b60006105c982611b02565b92915050565b826105d981611b58565b6105e257600080fd5b600084815260208181526040808320548151601f870184900484028101840190925285825283926060928392859267ffffffffffffffff9091169183916106489183918d908d90819084018382808284376000920191909152509293925050611e349050565b90505b80515160208201511015610772578661ffff166000036106b0578060400151965061067581611e95565b94508460405160200161068891906131e5565b6040516020818303038152906040528051906020012092506106a981611eb6565b9350610764565b60006106bb82611e95565b9050816040015161ffff168861ffff161415806106df57506106dd8682611ed2565b155b156107625761073b8c878a8e8e8080601f016020809104026020016040519081016040528093929190818152602001838380828437600092019190915250505060208801518d9150610732908290613230565b8b51158a611ef0565b81604001519750816020015196508095508580519060200120935061075f82611eb6565b94505b505b61076d8161215d565b61064b565b508351156107cd576107cd8a85888c8c8080601f0160208091040260200160405190810160405280939291908181526020018383808284376000920191909152508c92506107c491508290508f613230565b89511588611ef0565b50505050505050505050565b846107e381611b58565b6107ec57600080fd5b6000868152602081815260408083205467ffffffffffffffff168352600a82528083208984529091529081902090518491849161082c9089908990613243565b908152602001604051809103902091826108479291906132ed565b508484604051610858929190613243565b6040518091039020867f448bc014f1536726cf8d54ff3d6481ed3cbc683c2591ca204274009afa09b1a1878787876040516108969493929190613450565b60405180910390a3505050505050565b6000828152602081815260408083205467ffffffffffffffff1683526007825280832085845282528083207fffffffff000000000000000000000000000000000000000000000000000000008516845290915281205473ffffffffffffffffffffffffffffffffffffffff16801561091f5790506105c9565b600061092a85610f88565b905073ffffffffffffffffffffffffffffffffffffffff8116610952576000925050506105c9565b6040517f01ffc9a7000000000000000000000000000000000000000000000000000000006024820152600090819073ffffffffffffffffffffffffffffffffffffffff841690604401604080517fffffffffffffffffffffffffffffffffffffffffffffffffffffffffffffffe08184030181529181526020820180517bffffffffffffffffffffffffffffffffffffffffffffffffffffffff167f01ffc9a70000000000000000000000000000000000000000000000000000000017905251610a1c91906131e5565b600060405180830381855afa9150503d8060008114610a57576040519150601f19603f3d011682016040523d82523d6000602084013e610a5c565b606091505b5091509150811580610a6f575060208151105b80610ab1575080601f81518110610a8857610a88613482565b01602001517fff0000000000000000000000000000000000000000000000000000000000000016155b15610ac35760009450505050506105c9565b6040517fffffffff000000000000000000000000000000000000000000000000000000008716602482015273ffffffffffffffffffffffffffffffffffffffff841690604401604080517fffffffffffffffffffffffffffffffffffffffffffffffffffffffffffffffe08184030181529181526020820180517bffffffffffffffffffffffffffffffffffffffffffffffffffffffff167f01ffc9a70000000000000000000000000000000000000000000000000000000017905251610b8a91906131e5565b600060405180830381855afa9150503d8060008114610bc5576040519150601f19603f3d011682016040523d82523d6000602084013e610bca565b606091505b509092509050811580610bde575060208151105b80610c20575080601f81518110610bf757610bf7613482565b01602001517fff0000000000000000000000000000000000000000000000000000000000000016155b15610c325760009450505050506105c9565b509095945050505050565b6000828152602081815260408083205467ffffffffffffffff168352600180835281842086855290925282206060915b600081118015610c7d5750848111155b15610d625780851615801590610cab575060008181526020839052604081208054610ca790613253565b9050115b15610d5a5780826000838152602001908152602001600020808054610ccf90613253565b80601f0160208091040260200160405190810160405280929190818152602001828054610cfb90613253565b8015610d485780601f10610d1d57610100808354040283529160200191610d48565b820191906000526020600020905b815481529060010190602001808311610d2b57829003601f168201915b50505050509050935093505050610d7b565b60011b610c6d565b5060006040518060200160405280600081525092509250505b9250929050565b82610d8c81611b58565b610d9557600080fd5b604080518082018252848152602080820185815260008881528083528481205467ffffffffffffffff1681526009835284812089825283528490209251835551600190920191909155815185815290810184905285917f1d6f5e03d3f63eb58751986629a5439baee5079ff04f345becb66e23eb154e4691015b60405180910390a250505050565b82610e2781611b58565b610e3057600080fd5b6000848152602081815260408083205467ffffffffffffffff168352600382528083208784529091529020610e668385836132ed565b50837fe379c1624ed7e714cc0937528a32359d69d5281337765313dba4e081b72d75788484604051610e0f9291906134b1565b6000828152602081815260408083205467ffffffffffffffff16835260028252808320858452825280832084845290915281208054829190610eda90613253565b905011905092915050565b80610eef81611b58565b610ef857600080fd5b6000828152602081905260408120805467ffffffffffffffff1691610f1c836134c5565b82546101009290920a67ffffffffffffffff818102199093169183160217909155600084815260208181526040918290205491519190921681528492507fc6621ccb8f3f5a04bb6502154b2caf6adf5983fe76dfef1cfc9c42e3579db444910160405180910390a25050565b6000610f9582603c611973565b610f9e906134f2565b60601c92915050565b6000838152602081815260408083205467ffffffffffffffff168352600a825280832086845290915290819020905160609190610fe79085908590613243565b9081526020016040518091039020805461100090613253565b80601f016020809104026020016040519081016040528092919081815260200182805461102c90613253565b80156110795780601f1061104e57610100808354040283529160200191611079565b820191906000526020600020905b81548152906001019060200180831161105c57829003601f168201915b505050505090509392505050565b6000818152602081815260408083205467ffffffffffffffff1683526004825280832084845290915290208054606091906110c190613253565b80601f01602080910402602001604051908101604052809291908181526020018280546110ed90613253565b801561113a5780601f1061110f5761010080835404028352916020019161113a565b820191906000526020600020905b81548152906001019060200180831161111d57829003601f168201915b50505050509050919050565b8361115081611b58565b61115957600080fd5b83611165600182613230565b161561117057600080fd5b6000858152602081815260408083205467ffffffffffffffff16835260018252808320888452825280832087845290915290206111ae8385836132ed565b50604051849086907faa121bbeef5f32f5961a2a28966e769023910fc9479059ee3495d4c1a696efe390600090a35050505050565b6000818152602081815260408083205467ffffffffffffffff1683526008825280832084845290915290208054606091906110c190613253565b8261122781611b58565b61123057600080fd5b6000848152602081815260408083205467ffffffffffffffff1683526008825280832087845290915290206112668385836132ed565b50837fb7d29e911041e8d9b843369e890bcb72c9388692ba48b65ac54e7214c4c348f78484604051610e0f9291906134b1565b826112a381611b58565b6112ac57600080fd5b8151158015906112be57508151601414155b80156112ce57506112ce83612245565b1561131057816040517f8d666f600000000000000000000000000000000000000000000000000000000081526004016113079190612d58565b60405180910390fd5b837f65412581168e88a1e60c6459d7f44ae83ad0832e670826c05a4e2476b57af7528484604051611342929190612cfa565b60405180910390a2603c830361139457837f52d7d861f09ab3d26239d492e8968629f95e9e318cf0b73bfddc441522a15fd261137d846134f2565b60405160609190911c815260200160405180910390a25b6000848152602081815260408083205467ffffffffffffffff16835260028252808320878452825280832086845290915290206113d1838261355e565b5050505050565b73ffffffffffffffffffffffffffffffffffffffff8216330361147d576040517f08c379a000000000000000000000000000000000000000000000000000000000815260206004820152602960248201527f455243313135353a2073657474696e6720617070726f76616c2073746174757360448201527f20666f722073656c6600000000000000000000000000000000000000000000006064820152608401611307565b336000818152600b6020908152604080832073ffffffffffffffffffffffffffffffffffffffff87168085529083529281902080547fffffffffffffffffffffffffffffffffffffffffffffffffffffffffffffff001686151590811790915590519081529192917f17307eab39ab6107e8899845ad3d59bd9653f200f220920489ca2b5937696c31910160405180910390a35050565b73ffffffffffffffffffffffffffffffffffffffff82163303611593576040517f08c379a000000000000000000000000000000000000000000000000000000000815260206004820181905260248201527f53657474696e672064656c65676174652073746174757320666f722073656c666044820152606401611307565b336000818152600c60209081526040808320878452825280832073ffffffffffffffffffffffffffffffffffffffff87168085529083529281902080547fffffffffffffffffffffffffffffffffffffffffffffffffffffffffffffff001686151590811790915590519384529286917ff0ddb3b04746704017f9aa8bd728fcc2c1d11675041205350018915f5e4750a0910160405180910390a4505050565b6000838152602081815260408083205467ffffffffffffffff168352600582528083208684528252808320858452825280832061ffff85168452909152902080546060919061100090613253565b606061168f6000848461226c565b9392505050565b6000818152602081815260408083205467ffffffffffffffff1683526003825280832084845290915290208054606091906110c190613253565b826116da81611b58565b6116e357600080fd5b6000848152602081815260408083205467ffffffffffffffff16808452600483528184208885529092528220805491929161171d90613253565b80601f016020809104026020016040519081016040528092919081815260200182805461174990613253565b80156117965780601f1061176b57610100808354040283529160200191611796565b820191906000526020600020905b81548152906001019060200180831161177957829003601f168201915b5050505067ffffffffffffffff841660009081526004602090815260408083208b845290915290209192506117ce90508587836132ed565b50857f8f15ed4b723ef428f250961da8315675b507046737e19319fc1a4d81bfe87f8582878760405161180393929190613677565b60405180910390a2505050505050565b8161181d81611b58565b61182657600080fd5b6040517fffffffffffffffffffffffffffffffffffffffff000000000000000000000000606084901b166020820152611875908490603c90603401604051602081830303815290604052611299565b505050565b606061188784848461226c565b949350505050565b8261189981611b58565b6118a257600080fd5b6000848152602081815260408083205467ffffffffffffffff1683526007825280832087845282528083207fffffffff0000000000000000000000000000000000000000000000000000000087168085529083529281902080547fffffffffffffffffffffffff00000000000000000000000000000000000000001673ffffffffffffffffffffffffffffffffffffffff8716908117909155905190815286917f7c69f06bea0bdef565b709e93a147836b0063ba2dd89f02d0b7e8d931e6a6daa910160405180910390a350505050565b6000828152602081815260408083205467ffffffffffffffff16835260028252808320858452825280832084845291829052909120805460609291906119b890613253565b80601f01602080910402602001604051908101604052809291908181526020018280546119e490613253565b8015611a315780601f10611a0657610100808354040283529160200191611a31565b820191906000526020600020905b815481529060010190602001808311611a1457829003601f168201915b5050505050915081516000148015611a5757506000611a4f84612454565b63ffffffff16115b15611afb57638000000060009081526020829052604090208054611a7a90613253565b80601f0160208091040260200160405190810160405280929190818152602001828054611aa690613253565b8015611af35780601f10611ac857610100808354040283529160200191611af3565b820191906000526020600020905b815481529060010190602001808311611ad657829003601f168201915b505050505091505b5092915050565b60007fffffffff0000000000000000000000000000000000000000000000000000000082167f59d1d43c0000000000000000000000000000000000000000000000000000000014806105c957506105c982612480565b60003373ffffffffffffffffffffffffffffffffffffffff7f0000000000000000000000000000000000000000000000000000000000000000161480611bd357503373ffffffffffffffffffffffffffffffffffffffff7f000000000000000000000000000000000000000000000000000000000000000016145b15611be057506001919050565b6040517f02571be3000000000000000000000000000000000000000000000000000000008152600481018390526000907f000000000000000000000000000000000000000000000000000000000000000073ffffffffffffffffffffffffffffffffffffffff16906302571be390602401602060405180830381865afa158015611c6e573d6000803e3d6000fd5b505050506040513d601f19601f82011682018060405250810190611c9291906136a7565b90507f000000000000000000000000000000000000000000000000000000000000000073ffffffffffffffffffffffffffffffffffffffff168173ffffffffffffffffffffffffffffffffffffffff1603611d99576040517f6352211e000000000000000000000000000000000000000000000000000000008152600481018490527f000000000000000000000000000000000000000000000000000000000000000073ffffffffffffffffffffffffffffffffffffffff1690636352211e90602401602060405180830381865afa158015611d72573d6000803e3d6000fd5b505050506040513d601f19601f82011682018060405250810190611d9691906136a7565b90505b73ffffffffffffffffffffffffffffffffffffffff8116331480611ded575073ffffffffffffffffffffffffffffffffffffffff81166000908152600b6020908152604080832033845290915290205460ff165b8061168f575073ffffffffffffffffffffffffffffffffffffffff81166000908152600c60209081526040808320868452825280832033845290915290205460ff1661168f565b611e826040518060e001604052806060815260200160008152602001600061ffff168152602001600061ffff168152602001600063ffffffff16815260200160008152602001600081525090565b82815260c081018290526105c98161215d565b602081015181516060916105c991611ead90826124d6565b84519190612530565b60a081015160c08201516060916105c991611ead908290613230565b60008151835114801561168f575061168f83600084600087516125a7565b865160208801206000611f04878787612530565b9050831561202e5767ffffffffffffffff831660009081526005602090815260408083208d84528252808320858452825280832061ffff8c16845290915290208054611f4f90613253565b159050611fae5767ffffffffffffffff831660009081526006602090815260408083208d845282528083208584529091528120805461ffff1691611f92836136c4565b91906101000a81548161ffff021916908361ffff160217905550505b67ffffffffffffffff831660009081526005602090815260408083208d84528252808320858452825280832061ffff8c1684529091528120611fef91612a8f565b897f03528ed0c2a3ebc993b12ce3c16bb382f9c7d88ef7d8a1bf290eaf35955a12078a8a604051612021929190613700565b60405180910390a26107cd565b67ffffffffffffffff831660009081526005602090815260408083208d84528252808320858452825280832061ffff8c1684529091529020805461207190613253565b90506000036120d25767ffffffffffffffff831660009081526006602090815260408083208d845282528083208584529091528120805461ffff16916120b683613726565b91906101000a81548161ffff021916908361ffff160217905550505b67ffffffffffffffff831660009081526005602090815260408083208d84528252808320858452825280832061ffff8c1684529091529020612114828261355e565b50897f52a608b3303a48862d07a73d82fa221318c0027fbbcfb1b2329bface3f19ff2b8a8a846040516121499392919061373e565b60405180910390a250505050505050505050565b60c081015160208201819052815151116121745750565b6000612188826000015183602001516124d6565b8260200151612197919061376d565b82519091506121a690826125ca565b61ffff1660408301526121ba60028261376d565b82519091506121c990826125ca565b61ffff1660608301526121dd60028261376d565b82519091506121ec90826125f2565b63ffffffff16608083015261220260048261376d565b825190915060009061221490836125ca565b61ffff16905061222560028361376d565b60a084018190529150612238818361376d565b60c0909301929092525050565b600063800000008214806105c95750600061225f83612454565b63ffffffff161192915050565b60608167ffffffffffffffff81111561228757612287612dbe565b6040519080825280602002602001820160405280156122ba57816020015b60608152602001906001900390816122a55790505b50905060005b8281101561244c57841561239f5760008484838181106122e2576122e2613482565b90506020028101906122f49190613780565b612303916024916004916137e5565b61230c9161380f565b905085811461239d576040517f08c379a000000000000000000000000000000000000000000000000000000000815260206004820152603460248201527f6d756c746963616c6c3a20416c6c207265636f726473206d757374206861766560448201527f2061206d61746368696e67206e616d65686173680000000000000000000000006064820152608401611307565b505b600080308686858181106123b5576123b5613482565b90506020028101906123c79190613780565b6040516123d5929190613243565b600060405180830381855af49150503d8060008114612410576040519150601f19603f3d011682016040523d82523d6000602084013e612415565b606091505b50915091508161242457600080fd5b8084848151811061243757612437613482565b602090810291909101015250506001016122c0565b509392505050565b6000603c820361246657506001919050565b638000000091821891821061247c5760006105c9565b5090565b60007fffffffff0000000000000000000000000000000000000000000000000000000082167fc86902330000000000000000000000000000000000000000000000000000000014806105c957506105c98261261c565b6000815b835181106124ea576124ea61384b565b60006124f68583612672565b60ff16905061250681600161376d565b612510908361376d565b9150806000036125205750612526565b506124da565b6118878382613230565b825160609061253f838561376d565b111561254a57600080fd5b60008267ffffffffffffffff81111561256557612565612dbe565b6040519080825280601f01601f19166020018201604052801561258f576020820181803683370190505b50905060208082019086860101610c32828287612696565b60006125b484848461270a565b6125bf87878561270a565b149695505050505050565b81516000906125da83600261376d565b11156125e557600080fd5b50016002015161ffff1690565b815160009061260283600461376d565b111561260d57600080fd5b50016004015163ffffffff1690565b60007fffffffff0000000000000000000000000000000000000000000000000000000082167f691f34310000000000000000000000000000000000000000000000000000000014806105c957506105c98261272e565b600082828151811061268657612686613482565b016020015160f81c905092915050565b602081106126ce57815183526126ad60208461376d565b92506126ba60208361376d565b91506126c7602082613230565b9050612696565b905182516020929092036101000a7fffffffffffffffffffffffffffffffffffffffffffffffffffffffffffffffff0180199091169116179052565b8251600090612719838561376d565b111561272457600080fd5b5091016020012090565b60007fffffffff0000000000000000000000000000000000000000000000000000000082167f124a319c0000000000000000000000000000000000000000000000000000000014806105c957506105c98260007fffffffff0000000000000000000000000000000000000000000000000000000082167fa8fa568200000000000000000000000000000000000000000000000000000000148061281257507fffffffff0000000000000000000000000000000000000000000000000000000082167f5c98042b00000000000000000000000000000000000000000000000000000000145b806105c957506105c98260007fffffffff0000000000000000000000000000000000000000000000000000000082167fbc1c58d10000000000000000000000000000000000000000000000000000000014806105c957506105c98260007f3b3b57de000000000000000000000000000000000000000000000000000000007fffffffff000000000000000000000000000000000000000000000000000000008316148061290057507ff1cb7e06000000000000000000000000000000000000000000000000000000007fffffffff000000000000000000000000000000000000000000000000000000008316145b8061294c57507f32f111d7000000000000000000000000000000000000000000000000000000007fffffffff000000000000000000000000000000000000000000000000000000008316145b806105c957506105c98260007fffffffff0000000000000000000000000000000000000000000000000000000082167f2203ab560000000000000000000000000000000000000000000000000000000014806105c957506105c98260007fffffffff0000000000000000000000000000000000000000000000000000000082167fd700ff330000000000000000000000000000000000000000000000000000000014806105c957506105c98260007fffffffff0000000000000000000000000000000000000000000000000000000082167f4fbf04330000000000000000000000000000000000000000000000000000000014806105c957507f01ffc9a7000000000000000000000000000000000000000000000000000000007fffffffff000000000000000000000000000000000000000000000000000000008316146105c9565b508054612a9b90613253565b6000825580601f10612aab575050565b601f016020900490600052602060002090810190612ac99190612acc565b50565b5b8082111561247c5760008155600101612acd565b80357fffffffff0000000000000000000000000000000000000000000000000000000081168114612b1157600080fd5b919050565b600060208284031215612b2857600080fd5b61168f82612ae1565b60008083601f840112612b4357600080fd5b50813567ffffffffffffffff811115612b5b57600080fd5b602083019150836020828501011115610d7b57600080fd5b600080600060408486031215612b8857600080fd5b83359250602084013567ffffffffffffffff811115612ba657600080fd5b612bb286828701612b31565b9497909650939450505050565b600080600080600060608688031215612bd757600080fd5b85359450602086013567ffffffffffffffff811115612bf557600080fd5b612c0188828901612b31565b909550935050604086013567ffffffffffffffff811115612c2157600080fd5b612c2d88828901612b31565b969995985093965092949392505050565b60008060408385031215612c5157600080fd5b82359150612c6160208401612ae1565b90509250929050565b60008060408385031215612c7d57600080fd5b50508035926020909101359150565b60005b83811015612ca7578181015183820152602001612c8f565b50506000910152565b60008151808452612cc8816020860160208601612c8c565b601f017fffffffffffffffffffffffffffffffffffffffffffffffffffffffffffffffe0169290920160200192915050565b8281526040602082015260006118876040830184612cb0565b600080600060608486031215612d2857600080fd5b505081359360208301359350604090920135919050565b600060208284031215612d5157600080fd5b5035919050565b60208152600061168f6020830184612cb0565b60008060008060608587031215612d8157600080fd5b8435935060208501359250604085013567ffffffffffffffff811115612da657600080fd5b612db287828801612b31565b95989497509550505050565b7f4e487b7100000000000000000000000000000000000000000000000000000000600052604160045260246000fd5b600080600060608486031215612e0257600080fd5b8335925060208401359150604084013567ffffffffffffffff811115612e2757600080fd5b8401601f81018613612e3857600080fd5b803567ffffffffffffffff811115612e5257612e52612dbe565b6040517fffffffffffffffffffffffffffffffffffffffffffffffffffffffffffffffe0603f7fffffffffffffffffffffffffffffffffffffffffffffffffffffffffffffffe0601f8501160116810181811067ffffffffffffffff82111715612ebe57612ebe612dbe565b604052818152828201602001881015612ed657600080fd5b816020840160208301376000602083830101528093505050509250925092565b73ffffffffffffffffffffffffffffffffffffffff81168114612ac957600080fd5b80358015158114612b1157600080fd5b60008060408385031215612f3b57600080fd5b8235612f4681612ef6565b9150612c6160208401612f18565b600080600060608486031215612f6957600080fd5b833592506020840135612f7b81612ef6565b9150612f8960408501612f18565b90509250925092565b600080600060608486031215612fa757600080fd5b8335925060208401359150604084013561ffff81168114612fc757600080fd5b809150509250925092565b600080600060608486031215612fe757600080fd5b8335612ff281612ef6565b9250602084013591506040840135612fc781612ef6565b60008083601f84011261301b57600080fd5b50813567ffffffffffffffff81111561303357600080fd5b6020830191508360208260051b8501011115610d7b57600080fd5b6000806020838503121561306157600080fd5b823567ffffffffffffffff81111561307857600080fd5b61308485828601613009565b90969095509350505050565b6000602082016020835280845180835260408501915060408160051b86010192506020860160005b82811015613107577fffffffffffffffffffffffffffffffffffffffffffffffffffffffffffffffc08786030184526130f2858351612cb0565b945060209384019391909101906001016130b8565b50929695505050505050565b6000806040838503121561312657600080fd5b82359150602083013561313881612ef6565b809150509250929050565b60008060006040848603121561315857600080fd5b83359250602084013567ffffffffffffffff81111561317657600080fd5b612bb286828701613009565b60008060006060848603121561319757600080fd5b833592506131a760208501612ae1565b91506040840135612fc781612ef6565b600080604083850312156131ca57600080fd5b82356131d581612ef6565b9150602083013561313881612ef6565b600082516131f7818460208701612c8c565b9190910192915050565b7f4e487b7100000000000000000000000000000000000000000000000000000000600052601160045260246000fd5b818103818111156105c9576105c9613201565b8183823760009101908152919050565b600181811c9082168061326757607f821691505b6020821081036132a0577f4e487b7100000000000000000000000000000000000000000000000000000000600052602260045260246000fd5b50919050565b601f82111561187557806000526020600020601f840160051c810160208510156132cd5750805b601f840160051c820191505b818110156113d157600081556001016132d9565b67ffffffffffffffff83111561330557613305612dbe565b613319836133138354613253565b836132a6565b6000601f84116001811461336b57600085156133355750838201355b7fffffffffffffffffffffffffffffffffffffffffffffffffffffffffffffffff600387901b1c1916600186901b1783556113d1565b6000838152602090207fffffffffffffffffffffffffffffffffffffffffffffffffffffffffffffffe0861690835b828110156133ba578685013582556020948501946001909201910161339a565b50868210156133f5577fffffffffffffffffffffffffffffffffffffffffffffffffffffffffffffffff60f88860031b161c19848701351681555b505060018560011b0183555050505050565b8183528181602085013750600060208284010152600060207fffffffffffffffffffffffffffffffffffffffffffffffffffffffffffffffe0601f840116840101905092915050565b604081526000613464604083018688613407565b8281036020840152613477818587613407565b979650505050505050565b7f4e487b7100000000000000000000000000000000000000000000000000000000600052603260045260246000fd5b602081526000611887602083018486613407565b600067ffffffffffffffff821667ffffffffffffffff81036134e9576134e9613201565b60010192915050565b805160208201517fffffffffffffffffffffffffffffffffffffffff000000000000000000000000811691906014821015613557577fffffffffffffffffffffffffffffffffffffffff000000000000000000000000808360140360031b1b82161692505b5050919050565b815167ffffffffffffffff81111561357857613578612dbe565b61358c816135868454613253565b846132a6565b6020601f8211600181146135de57600083156135a85750848201515b7fffffffffffffffffffffffffffffffffffffffffffffffffffffffffffffffff600385901b1c1916600184901b1784556113d1565b6000848152602081207fffffffffffffffffffffffffffffffffffffffffffffffffffffffffffffffe08516915b8281101561362c578785015182556020948501946001909201910161360c565b508482101561366857868401517fffffffffffffffffffffffffffffffffffffffffffffffffffffffffffffffff600387901b60f8161c191681555b50505050600190811b01905550565b60408152600061368a6040830186612cb0565b828103602084015261369d818587613407565b9695505050505050565b6000602082840312156136b957600080fd5b815161168f81612ef6565b600061ffff8216806136d8576136d8613201565b7fffffffffffffffffffffffffffffffffffffffffffffffffffffffffffffffff0192915050565b6040815260006137136040830185612cb0565b905061ffff831660208301529392505050565b600061ffff821661ffff81036134e9576134e9613201565b6060815260006137516060830186612cb0565b61ffff85166020840152828103604084015261369d8185612cb0565b808201808211156105c9576105c9613201565b60008083357fffffffffffffffffffffffffffffffffffffffffffffffffffffffffffffffe18436030181126137b557600080fd5b83018035915067ffffffffffffffff8211156137d057600080fd5b602001915036819003821315610d7b57600080fd5b600080858511156137f557600080fd5b8386111561380257600080fd5b5050820193919092039150565b803560208310156105c9577fffffffffffffffffffffffffffffffffffffffffffffffffffffffffffffffff602084900360031b1b1692915050565b7f4e487b7100000000000000000000000000000000000000000000000000000000600052600160045260246000fdfea264697066735822122075a7658084d4def9f6cce391e839ba4adcd596c5ae93e2d00f29a82163695c2f64736f6c634300081a0033",
  "devdoc": {
    "errors": {
      "InvalidEVMAddress(bytes)": [
        {
          "details": "Error selector: `0x8d666f60`"
        }
      ]
    },
    "kind": "dev",
    "methods": {
      "ABI(bytes32,uint256)": {
        "params": {
          "contentTypes": "A bitwise OR of the ABI formats accepted by the caller.",
          "node": "The ENS node to query"
        },
        "returns": {
          "_0": "contentType The content type of the return value",
          "_1": "data The ABI data"
        }
      },
      "addr(bytes32)": {
        "params": {
          "node": "The node to query."
        },
        "returns": {
          "_0": "The associated address."
        }
      },
      "addr(bytes32,uint256)": {
        "params": {
          "coinType": "The coin type.",
          "node": "The node to query."
        },
        "returns": {
          "addressBytes": "The assocated address."
        }
      },
      "approve(bytes32,address,bool)": {
        "details": "Approve a delegate to be able to updated records on a node."
      },
      "clearRecords(bytes32)": {
        "params": {
          "node": "The node to update."
        }
      },
      "contenthash(bytes32)": {
        "params": {
          "node": "The ENS node to query."
        },
        "returns": {
          "_0": "The associated contenthash."
        }
      },
      "dnsRecord(bytes32,bytes32,uint16)": {
        "params": {
          "name": "the keccak-256 hash of the fully-qualified name for which to fetch the record",
          "node": "the namehash of the node for which to fetch the record",
          "resource": "the ID of the resource as per https://en.wikipedia.org/wiki/List_of_DNS_record_types"
        },
        "returns": {
          "_0": "the DNS record in wire format if present, otherwise empty"
        }
      },
      "hasAddr(bytes32,uint256)": {
        "params": {
          "coinType": "The coin type.",
          "node": "The node to query."
        },
        "returns": {
          "_0": "True if the associated address is not empty."
        }
      },
      "hasDNSRecords(bytes32,bytes32)": {
        "params": {
          "name": "the namehash of the node for which to check the records",
          "node": "the namehash of the node for which to check the records"
        }
      },
      "interfaceImplementer(bytes32,bytes4)": {
        "params": {
          "interfaceID": "The EIP 165 interface ID to check for.",
          "node": "The ENS node to query."
        },
        "returns": {
          "_0": "The address that implements this interface, or 0 if the interface is unsupported."
        }
      },
      "isApprovedFor(address,bytes32,address)": {
        "details": "Check to see if the delegate has been approved by the owner for the node."
      },
      "isApprovedForAll(address,address)": {
        "details": "See {IERC1155-isApprovedForAll}."
      },
      "name(bytes32)": {
        "params": {
          "node": "The ENS node to query."
        },
        "returns": {
          "_0": "The associated name."
        }
      },
      "pubkey(bytes32)": {
        "params": {
          "node": "The ENS node to query"
        },
        "returns": {
          "x": "The X coordinate of the curve point for the public key.",
          "y": "The Y coordinate of the curve point for the public key."
        }
      },
      "setABI(bytes32,uint256,bytes)": {
        "params": {
          "contentType": "The content type of the ABI",
          "data": "The ABI data.",
          "node": "The node to update."
        }
      },
      "setAddr(bytes32,address)": {
        "params": {
          "_addr": "The address to set.",
          "node": "The node to update."
        }
      },
      "setAddr(bytes32,uint256,bytes)": {
        "params": {
          "addressBytes": "The address to set.",
          "coinType": "The coin type.",
          "node": "The node to update."
        }
      },
      "setApprovalForAll(address,bool)": {
        "details": "See {IERC1155-setApprovalForAll}."
      },
      "setContenthash(bytes32,bytes)": {
        "params": {
          "hash": "The contenthash to set",
          "node": "The node to update."
        }
      },
      "setDNSRecords(bytes32,bytes)": {
        "params": {
          "data": "the DNS wire format records to set",
          "node": "the namehash of the node for which to set the records"
        }
      },
      "setInterface(bytes32,bytes4,address)": {
        "params": {
          "implementer": "The address of a contract that implements this interface for this node.",
          "interfaceID": "The EIP 165 interface ID.",
          "node": "The node to update."
        }
      },
      "setName(bytes32,string)": {
        "params": {
          "node": "The node to update."
        }
      },
      "setPubkey(bytes32,bytes32,bytes32)": {
        "params": {
          "node": "The ENS node to query",
          "x": "the X coordinate of the curve point for the public key.",
          "y": "the Y coordinate of the curve point for the public key."
        }
      },
      "setText(bytes32,string,string)": {
        "params": {
          "key": "The key to set.",
          "node": "The node to update.",
          "value": "The text data value to set."
        }
      },
      "setZonehash(bytes32,bytes)": {
        "params": {
          "hash": "The zonehash to set",
          "node": "The node to update."
        }
      },
      "text(bytes32,string)": {
        "params": {
          "key": "The text data key to query.",
          "node": "The ENS node to query."
        },
        "returns": {
          "_0": "The associated text data."
        }
      },
      "zonehash(bytes32)": {
        "params": {
          "node": "The ENS node to query."
        },
        "returns": {
          "_0": "The associated contenthash."
        }
      }
    },
    "version": 1
  },
  "userdoc": {
    "errors": {
      "InvalidEVMAddress(bytes)": [
        {
          "notice": "The supplied address could not be converted to `address`."
        }
      ]
    },
    "kind": "user",
    "methods": {
      "ABI(bytes32,uint256)": {
        "notice": "Returns the ABI associated with an ENS node. Defined in EIP205."
      },
      "addr(bytes32)": {
        "notice": "Get `addr(60)` as `address` of the associated ENS node."
      },
      "addr(bytes32,uint256)": {
        "notice": "Get the address for coin type of the associated ENS node.         If coin type is EVM and empty, defaults to `addr(COIN_TYPE_DEFAULT)`."
      },
      "clearRecords(bytes32)": {
        "notice": "Increments the record version associated with an ENS node. May only be called by the owner of that node in the ENS registry."
      },
      "contenthash(bytes32)": {
        "notice": "Returns the contenthash associated with an ENS node."
      },
      "dnsRecord(bytes32,bytes32,uint16)": {
        "notice": "Obtain a DNS record."
      },
      "hasAddr(bytes32,uint256)": {
        "notice": "Determine if an addresss is stored for the coin type of the associated ENS node."
      },
      "hasDNSRecords(bytes32,bytes32)": {
        "notice": "Check if a given node has records."
      },
      "interfaceImplementer(bytes32,bytes4)": {
        "notice": "Returns the address of a contract that implements the specified interface for this name. If an implementer has not been set for this interfaceID and name, the resolver will query the contract at `addr()`. If `addr()` is set, a contract exists at that address, and that contract implements EIP165 and returns `true` for the specified interfaceID, its address will be returned."
      },
      "name(bytes32)": {
        "notice": "Returns the name associated with an ENS node, for reverse records. Defined in EIP181."
      },
      "pubkey(bytes32)": {
        "notice": "Returns the SECP256k1 public key associated with an ENS node. Defined in EIP 619."
      },
      "setABI(bytes32,uint256,bytes)": {
        "notice": "Sets the ABI associated with an ENS node. Nodes may have one ABI of each content type. To remove an ABI, set it to the empty string."
      },
      "setAddr(bytes32,address)": {
        "notice": "Set `addr(60)` of the associated ENS node.         `address(0)` is stored as `new bytes(20)`."
      },
      "setAddr(bytes32,uint256,bytes)": {
        "notice": "Set the address for coin type of the associated ENS node.         Reverts `InvalidEVMAddress` if coin type is EVM and not 0 or 20 bytes."
      },
      "setContenthash(bytes32,bytes)": {
        "notice": "Sets the contenthash associated with an ENS node. May only be called by the owner of that node in the ENS registry."
      },
      "setDNSRecords(bytes32,bytes)": {
        "notice": "Set one or more DNS records.  Records are supplied in wire-format. Records with the same node/name/resource must be supplied one after the other to ensure the data is updated correctly. For example, if the data was supplied:     a.example.com IN A 1.2.3.4     a.example.com IN A 5.6.7.8     www.example.com IN CNAME a.example.com. then this would store the two A records for a.example.com correctly as a single RRSET, however if the data was supplied:     a.example.com IN A 1.2.3.4     www.example.com IN CNAME a.example.com.     a.example.com IN A 5.6.7.8 then this would store the first A record, the CNAME, then the second A record which would overwrite the first."
      },
      "setInterface(bytes32,bytes4,address)": {
        "notice": "Sets an interface associated with a name. Setting the address to 0 restores the default behaviour of querying the contract at `addr()` for interface support."
      },
      "setName(bytes32,string)": {
        "notice": "Sets the name associated with an ENS node, for reverse records. May only be called by the owner of that node in the ENS registry."
      },
      "setPubkey(bytes32,bytes32,bytes32)": {
        "notice": "Sets the SECP256k1 public key associated with an ENS node."
      },
      "setText(bytes32,string,string)": {
        "notice": "Sets the text data associated with an ENS node and key. May only be called by the owner of that node in the ENS registry."
      },
      "setZonehash(bytes32,bytes)": {
        "notice": "setZonehash sets the hash for the zone. May only be called by the owner of that node in the ENS registry."
      },
      "text(bytes32,string)": {
        "notice": "Returns the text data associated with an ENS node and key."
      },
      "zonehash(bytes32)": {
        "notice": "zonehash obtains the hash for the zone."
      }
    },
    "notice": "A simple resolver anyone can use; only allows the owner of a node to set its address.",
    "version": 1
  },
  "storageLayout": {
    "storage": [
      {
        "astId": 23702,
        "contract": "contracts/resolvers/PublicResolver.sol:PublicResolver",
        "label": "recordVersions",
        "offset": 0,
        "slot": "0",
        "type": "t_mapping(t_bytes32,t_uint64)"
      },
      {
        "astId": 23796,
        "contract": "contracts/resolvers/PublicResolver.sol:PublicResolver",
        "label": "versionable_abis",
        "offset": 0,
        "slot": "1",
        "type": "t_mapping(t_uint64,t_mapping(t_bytes32,t_mapping(t_uint256,t_bytes_storage)))"
      },
      {
        "astId": 23963,
        "contract": "contracts/resolvers/PublicResolver.sol:PublicResolver",
        "label": "versionable_addresses",
        "offset": 0,
        "slot": "2",
        "type": "t_mapping(t_uint64,t_mapping(t_bytes32,t_mapping(t_uint256,t_bytes_storage)))"
      },
      {
        "astId": 24205,
        "contract": "contracts/resolvers/PublicResolver.sol:PublicResolver",
        "label": "versionable_hashes",
        "offset": 0,
        "slot": "3",
        "type": "t_mapping(t_uint64,t_mapping(t_bytes32,t_bytes_storage))"
      },
      {
        "astId": 24295,
        "contract": "contracts/resolvers/PublicResolver.sol:PublicResolver",
        "label": "versionable_zonehashes",
        "offset": 0,
        "slot": "4",
        "type": "t_mapping(t_uint64,t_mapping(t_bytes32,t_bytes_storage))"
      },
      {
        "astId": 24305,
        "contract": "contracts/resolvers/PublicResolver.sol:PublicResolver",
        "label": "versionable_records",
        "offset": 0,
        "slot": "5",
        "type": "t_mapping(t_uint64,t_mapping(t_bytes32,t_mapping(t_bytes32,t_mapping(t_uint16,t_bytes_storage))))"
      },
      {
        "astId": 24313,
        "contract": "contracts/resolvers/PublicResolver.sol:PublicResolver",
        "label": "versionable_nameEntriesCount",
        "offset": 0,
        "slot": "6",
        "type": "t_mapping(t_uint64,t_mapping(t_bytes32,t_mapping(t_bytes32,t_uint16)))"
      },
      {
        "astId": 25814,
        "contract": "contracts/resolvers/PublicResolver.sol:PublicResolver",
        "label": "versionable_interfaces",
        "offset": 0,
        "slot": "7",
        "type": "t_mapping(t_uint64,t_mapping(t_bytes32,t_mapping(t_bytes4,t_address)))"
      },
      {
        "astId": 26006,
        "contract": "contracts/resolvers/PublicResolver.sol:PublicResolver",
        "label": "versionable_names",
        "offset": 0,
        "slot": "8",
        "type": "t_mapping(t_uint64,t_mapping(t_bytes32,t_string_storage))"
      },
      {
        "astId": 26093,
        "contract": "contracts/resolvers/PublicResolver.sol:PublicResolver",
        "label": "versionable_pubkeys",
        "offset": 0,
        "slot": "9",
        "type": "t_mapping(t_uint64,t_mapping(t_bytes32,t_struct(PublicKey)26086_storage))"
      },
      {
        "astId": 26196,
        "contract": "contracts/resolvers/PublicResolver.sol:PublicResolver",
        "label": "versionable_texts",
        "offset": 0,
        "slot": "10",
        "type": "t_mapping(t_uint64,t_mapping(t_bytes32,t_mapping(t_string_memory_ptr,t_string_storage)))"
      },
      {
        "astId": 23231,
        "contract": "contracts/resolvers/PublicResolver.sol:PublicResolver",
        "label": "_operatorApprovals",
        "offset": 0,
        "slot": "11",
        "type": "t_mapping(t_address,t_mapping(t_address,t_bool))"
      },
      {
        "astId": 23240,
        "contract": "contracts/resolvers/PublicResolver.sol:PublicResolver",
        "label": "_tokenApprovals",
        "offset": 0,
        "slot": "12",
        "type": "t_mapping(t_address,t_mapping(t_bytes32,t_mapping(t_address,t_bool)))"
      }
    ],
    "types": {
      "t_address": {
        "encoding": "inplace",
        "label": "address",
        "numberOfBytes": "20"
      },
      "t_bool": {
        "encoding": "inplace",
        "label": "bool",
        "numberOfBytes": "1"
      },
      "t_bytes32": {
        "encoding": "inplace",
        "label": "bytes32",
        "numberOfBytes": "32"
      },
      "t_bytes4": {
        "encoding": "inplace",
        "label": "bytes4",
        "numberOfBytes": "4"
      },
      "t_bytes_storage": {
        "encoding": "bytes",
        "label": "bytes",
        "numberOfBytes": "32"
      },
      "t_mapping(t_address,t_bool)": {
        "encoding": "mapping",
        "key": "t_address",
        "label": "mapping(address => bool)",
        "numberOfBytes": "32",
        "value": "t_bool"
      },
      "t_mapping(t_address,t_mapping(t_address,t_bool))": {
        "encoding": "mapping",
        "key": "t_address",
        "label": "mapping(address => mapping(address => bool))",
        "numberOfBytes": "32",
        "value": "t_mapping(t_address,t_bool)"
      },
      "t_mapping(t_address,t_mapping(t_bytes32,t_mapping(t_address,t_bool)))": {
        "encoding": "mapping",
        "key": "t_address",
        "label": "mapping(address => mapping(bytes32 => mapping(address => bool)))",
        "numberOfBytes": "32",
        "value": "t_mapping(t_bytes32,t_mapping(t_address,t_bool))"
      },
      "t_mapping(t_bytes32,t_bytes_storage)": {
        "encoding": "mapping",
        "key": "t_bytes32",
        "label": "mapping(bytes32 => bytes)",
        "numberOfBytes": "32",
        "value": "t_bytes_storage"
      },
      "t_mapping(t_bytes32,t_mapping(t_address,t_bool))": {
        "encoding": "mapping",
        "key": "t_bytes32",
        "label": "mapping(bytes32 => mapping(address => bool))",
        "numberOfBytes": "32",
        "value": "t_mapping(t_address,t_bool)"
      },
      "t_mapping(t_bytes32,t_mapping(t_bytes32,t_mapping(t_uint16,t_bytes_storage)))": {
        "encoding": "mapping",
        "key": "t_bytes32",
        "label": "mapping(bytes32 => mapping(bytes32 => mapping(uint16 => bytes)))",
        "numberOfBytes": "32",
        "value": "t_mapping(t_bytes32,t_mapping(t_uint16,t_bytes_storage))"
      },
      "t_mapping(t_bytes32,t_mapping(t_bytes32,t_uint16))": {
        "encoding": "mapping",
        "key": "t_bytes32",
        "label": "mapping(bytes32 => mapping(bytes32 => uint16))",
        "numberOfBytes": "32",
        "value": "t_mapping(t_bytes32,t_uint16)"
      },
      "t_mapping(t_bytes32,t_mapping(t_bytes4,t_address))": {
        "encoding": "mapping",
        "key": "t_bytes32",
        "label": "mapping(bytes32 => mapping(bytes4 => address))",
        "numberOfBytes": "32",
        "value": "t_mapping(t_bytes4,t_address)"
      },
      "t_mapping(t_bytes32,t_mapping(t_string_memory_ptr,t_string_storage))": {
        "encoding": "mapping",
        "key": "t_bytes32",
        "label": "mapping(bytes32 => mapping(string => string))",
        "numberOfBytes": "32",
        "value": "t_mapping(t_string_memory_ptr,t_string_storage)"
      },
      "t_mapping(t_bytes32,t_mapping(t_uint16,t_bytes_storage))": {
        "encoding": "mapping",
        "key": "t_bytes32",
        "label": "mapping(bytes32 => mapping(uint16 => bytes))",
        "numberOfBytes": "32",
        "value": "t_mapping(t_uint16,t_bytes_storage)"
      },
      "t_mapping(t_bytes32,t_mapping(t_uint256,t_bytes_storage))": {
        "encoding": "mapping",
        "key": "t_bytes32",
        "label": "mapping(bytes32 => mapping(uint256 => bytes))",
        "numberOfBytes": "32",
        "value": "t_mapping(t_uint256,t_bytes_storage)"
      },
      "t_mapping(t_bytes32,t_string_storage)": {
        "encoding": "mapping",
        "key": "t_bytes32",
        "label": "mapping(bytes32 => string)",
        "numberOfBytes": "32",
        "value": "t_string_storage"
      },
      "t_mapping(t_bytes32,t_struct(PublicKey)26086_storage)": {
        "encoding": "mapping",
        "key": "t_bytes32",
        "label": "mapping(bytes32 => struct PubkeyResolver.PublicKey)",
        "numberOfBytes": "32",
        "value": "t_struct(PublicKey)26086_storage"
      },
      "t_mapping(t_bytes32,t_uint16)": {
        "encoding": "mapping",
        "key": "t_bytes32",
        "label": "mapping(bytes32 => uint16)",
        "numberOfBytes": "32",
        "value": "t_uint16"
      },
      "t_mapping(t_bytes32,t_uint64)": {
        "encoding": "mapping",
        "key": "t_bytes32",
        "label": "mapping(bytes32 => uint64)",
        "numberOfBytes": "32",
        "value": "t_uint64"
      },
      "t_mapping(t_bytes4,t_address)": {
        "encoding": "mapping",
        "key": "t_bytes4",
        "label": "mapping(bytes4 => address)",
        "numberOfBytes": "32",
        "value": "t_address"
      },
      "t_mapping(t_string_memory_ptr,t_string_storage)": {
        "encoding": "mapping",
        "key": "t_string_memory_ptr",
        "label": "mapping(string => string)",
        "numberOfBytes": "32",
        "value": "t_string_storage"
      },
      "t_mapping(t_uint16,t_bytes_storage)": {
        "encoding": "mapping",
        "key": "t_uint16",
        "label": "mapping(uint16 => bytes)",
        "numberOfBytes": "32",
        "value": "t_bytes_storage"
      },
      "t_mapping(t_uint256,t_bytes_storage)": {
        "encoding": "mapping",
        "key": "t_uint256",
        "label": "mapping(uint256 => bytes)",
        "numberOfBytes": "32",
        "value": "t_bytes_storage"
      },
      "t_mapping(t_uint64,t_mapping(t_bytes32,t_bytes_storage))": {
        "encoding": "mapping",
        "key": "t_uint64",
        "label": "mapping(uint64 => mapping(bytes32 => bytes))",
        "numberOfBytes": "32",
        "value": "t_mapping(t_bytes32,t_bytes_storage)"
      },
      "t_mapping(t_uint64,t_mapping(t_bytes32,t_mapping(t_bytes32,t_mapping(t_uint16,t_bytes_storage))))": {
        "encoding": "mapping",
        "key": "t_uint64",
        "label": "mapping(uint64 => mapping(bytes32 => mapping(bytes32 => mapping(uint16 => bytes))))",
        "numberOfBytes": "32",
        "value": "t_mapping(t_bytes32,t_mapping(t_bytes32,t_mapping(t_uint16,t_bytes_storage)))"
      },
      "t_mapping(t_uint64,t_mapping(t_bytes32,t_mapping(t_bytes32,t_uint16)))": {
        "encoding": "mapping",
        "key": "t_uint64",
        "label": "mapping(uint64 => mapping(bytes32 => mapping(bytes32 => uint16)))",
        "numberOfBytes": "32",
        "value": "t_mapping(t_bytes32,t_mapping(t_bytes32,t_uint16))"
      },
      "t_mapping(t_uint64,t_mapping(t_bytes32,t_mapping(t_bytes4,t_address)))": {
        "encoding": "mapping",
        "key": "t_uint64",
        "label": "mapping(uint64 => mapping(bytes32 => mapping(bytes4 => address)))",
        "numberOfBytes": "32",
        "value": "t_mapping(t_bytes32,t_mapping(t_bytes4,t_address))"
      },
      "t_mapping(t_uint64,t_mapping(t_bytes32,t_mapping(t_string_memory_ptr,t_string_storage)))": {
        "encoding": "mapping",
        "key": "t_uint64",
        "label": "mapping(uint64 => mapping(bytes32 => mapping(string => string)))",
        "numberOfBytes": "32",
        "value": "t_mapping(t_bytes32,t_mapping(t_string_memory_ptr,t_string_storage))"
      },
      "t_mapping(t_uint64,t_mapping(t_bytes32,t_mapping(t_uint256,t_bytes_storage)))": {
        "encoding": "mapping",
        "key": "t_uint64",
        "label": "mapping(uint64 => mapping(bytes32 => mapping(uint256 => bytes)))",
        "numberOfBytes": "32",
        "value": "t_mapping(t_bytes32,t_mapping(t_uint256,t_bytes_storage))"
      },
      "t_mapping(t_uint64,t_mapping(t_bytes32,t_string_storage))": {
        "encoding": "mapping",
        "key": "t_uint64",
        "label": "mapping(uint64 => mapping(bytes32 => string))",
        "numberOfBytes": "32",
        "value": "t_mapping(t_bytes32,t_string_storage)"
      },
      "t_mapping(t_uint64,t_mapping(t_bytes32,t_struct(PublicKey)26086_storage))": {
        "encoding": "mapping",
        "key": "t_uint64",
        "label": "mapping(uint64 => mapping(bytes32 => struct PubkeyResolver.PublicKey))",
        "numberOfBytes": "32",
        "value": "t_mapping(t_bytes32,t_struct(PublicKey)26086_storage)"
      },
      "t_string_memory_ptr": {
        "encoding": "bytes",
        "label": "string",
        "numberOfBytes": "32"
      },
      "t_string_storage": {
        "encoding": "bytes",
        "label": "string",
        "numberOfBytes": "32"
      },
      "t_struct(PublicKey)26086_storage": {
        "encoding": "inplace",
        "label": "struct PubkeyResolver.PublicKey",
        "members": [
          {
            "astId": 26083,
            "contract": "contracts/resolvers/PublicResolver.sol:PublicResolver",
            "label": "x",
            "offset": 0,
            "slot": "0",
            "type": "t_bytes32"
          },
          {
            "astId": 26085,
            "contract": "contracts/resolvers/PublicResolver.sol:PublicResolver",
            "label": "y",
            "offset": 0,
            "slot": "1",
            "type": "t_bytes32"
          }
        ],
        "numberOfBytes": "64"
      },
      "t_uint16": {
        "encoding": "inplace",
        "label": "uint16",
        "numberOfBytes": "2"
      },
      "t_uint256": {
        "encoding": "inplace",
        "label": "uint256",
        "numberOfBytes": "32"
      },
      "t_uint64": {
        "encoding": "inplace",
        "label": "uint64",
        "numberOfBytes": "8"
      }
    }
  }
}