{
  "address": "0x50696f0504725559Cb9d05BbEeE1b35ef83ce5aF",
  "abi": [
    {
      "inputs": [
        {
          "internalType": "contract ENS",
          "name": "_ens",
          "type": "address"
        },
        {
          "internalType": "contract IBaseRegistrar",
          "name": "_registrar",
          "type": "address"
        }
      ],
      "stateMutability": "nonpayable",
      "type": "constructor"
    },
    {
      "inputs": [
        {
          "internalType": "bytes",
          "name": "dns",
          "type": "bytes"
        }
      ],
      "name": "DNSDecodingFailed",
      "type": "error"
    },
    {
      "anonymous": false,
      "inputs": [
        {
          "indexed": true,
          "internalType": "address",
          "name": "previousOwner",
          "type": "address"
        },
        {
          "indexed": true,
          "internalType": "address",
          "name": "newOwner",
          "type": "address"
        }
      ],
      "name": "OwnershipTransferred",
      "type": "event"
    },
    {
      "inputs": [
        {
          "internalType": "address",
          "name": "",
          "type": "address"
        }
      ],
      "name": "approvedWrapper",
      "outputs": [
        {
          "internalType": "bool",
          "name": "",
          "type": "bool"
        }
      ],
      "stateMutability": "view",
      "type": "function"
    },
    {
      "inputs": [],
      "name": "ens",
      "outputs": [
        {
          "internalType": "contract ENS",
          "name": "",
          "type": "address"
        }
      ],
      "stateMutability": "view",
      "type": "function"
    },
    {
      "inputs": [],
      "name": "owner",
      "outputs": [
        {
          "internalType": "address",
          "name": "",
          "type": "address"
        }
      ],
      "stateMutability": "view",
      "type": "function"
    },
    {
      "inputs": [],
      "name": "registrar",
      "outputs": [
        {
          "internalType": "contract IBaseRegistrar",
          "name": "",
          "type": "address"
        }
      ],
      "stateMutability": "view",
      "type": "function"
    },
    {
      "inputs": [],
      "name": "renounceOwnership",
      "outputs": [],
      "stateMutability": "nonpayable",
      "type": "function"
    },
    {
      "inputs": [
        {
          "internalType": "bytes32",
          "name": "parentNode",
          "type": "bytes32"
        },
        {
          "internalType": "string",
          "name": "label",
          "type": "string"
        },
        {
          "internalType": "address",
          "name": "newOwner",
          "type": "address"
        },
        {
          "internalType": "address",
          "name": "resolver",
          "type": "address"
        },
        {
          "internalType": "uint64",
          "name": "ttl",
          "type": "uint64"
        },
        {
          "internalType": "uint32",
          "name": "fuses",
          "type": "uint32"
        },
        {
          "internalType": "uint64",
          "name": "expiry",
          "type": "uint64"
        }
      ],
      "name": "setSubnodeRecord",
      "outputs": [],
      "stateMutability": "nonpayable",
      "type": "function"
    },
    {
      "inputs": [
        {
          "internalType": "address",
          "name": "wrapper",
          "type": "address"
        },
        {
          "internalType": "bool",
          "name": "approved",
          "type": "bool"
        }
      ],
      "name": "setWrapperApproval",
      "outputs": [],
      "stateMutability": "nonpayable",
      "type": "function"
    },
    {
      "inputs": [
        {
          "internalType": "address",
          "name": "newOwner",
          "type": "address"
        }
      ],
      "name": "transferOwnership",
      "outputs": [],
      "stateMutability": "nonpayable",
      "type": "function"
    },
    {
      "inputs": [
        {
          "internalType": "string",
          "name": "label",
          "type": "string"
        },
        {
          "internalType": "address",
          "name": "wrappedOwner",
          "type": "address"
        },
        {
          "internalType": "uint32",
          "name": "fuses",
          "type": "uint32"
        },
        {
          "internalType": "uint64",
          "name": "expiry",
          "type": "uint64"
        },
        {
          "internalType": "address",
          "name": "resolver",
          "type": "address"
        }
      ],
      "name": "wrapETH2LD",
      "outputs": [],
      "stateMutability": "nonpayable",
      "type": "function"
    },
    {
      "inputs": [
        {
          "internalType": "bytes",
          "name": "name",
          "type": "bytes"
        },
        {
          "internalType": "address",
          "name": "wrappedOwner",
          "type": "address"
        },
        {
          "internalType": "uint32",
          "name": "fuses",
          "type": "uint32"
        },
        {
          "internalType": "uint64",
          "name": "expiry",
          "type": "uint64"
        },
        {
          "internalType": "address",
          "name": "approved",
          "type": "address"
        },
        {
          "internalType": "bytes",
          "name": "extraData",
          "type": "bytes"
        }
      ],
      "name": "wrapFromUpgrade",
      "outputs": [],
      "stateMutability": "nonpayable",
      "type": "function"
    }
  ],
  "transactionHash": "0x9e744b8dbe02caed462995cba6ea0f9a90a6d88c1529534ae50a36e92ab48693",
  "args": [
    "0x00000000000C2E074eC69A0dFb2997BA6C7d2e1e",
    "0x57f1887a8BF19b14fC0dF6Fd9B2acc9Af147eA85"
  ],
  "numDeployments": 2,
  "solcInputHash": "53607203823ca934dc777094bb2d514e",
  "bytecode": "0x60c060405234801561001057600080fd5b506040516116ff3803806116ff83398101604081905261002f916100b7565b6100383361004f565b6001600160a01b039182166080521660a0526100f1565b600080546001600160a01b038381166001600160a01b0319831681178455604051919092169283917f8be0079c531659141344cd1fd0a4f28419497f9722a3daafe3b4186f6b6457e09190a35050565b6001600160a01b03811681146100b457600080fd5b50565b600080604083850312156100ca57600080fd5b82516100d58161009f565b60208401519092506100e68161009f565b809150509250929050565b60805160a0516115b96101466000396000818160f001528181610b2201528181610c5701528181610d740152610e220152600081816101410152818161054201528181610677015261079401526115b96000f3fe608060405234801561001057600080fd5b50600436106100be5760003560e01c80638da5cb5b11610076578063c6d6d7c11161005b578063c6d6d7c11461019c578063f2fde38b146101cf578063f9547a9e146101e257600080fd5b80638da5cb5b1461016b5780639198c2761461018957600080fd5b80632b20e397116100a75780632b20e397146100eb5780633f15457f1461013c578063715018a61461016357600080fd5b80630cc17365146100c357806324c1af44146100d8575b600080fd5b6100d66100d1366004611078565b6101f5565b005b6100d66100e636600461110c565b610253565b6101127f000000000000000000000000000000000000000000000000000000000000000081565b60405173ffffffffffffffffffffffffffffffffffffffff90911681526020015b60405180910390f35b6101127f000000000000000000000000000000000000000000000000000000000000000081565b6100d661027d565b60005473ffffffffffffffffffffffffffffffffffffffff16610112565b6100d66101973660046112a8565b610291565b6101bf6101aa366004611363565b60016020526000908152604090205460ff1681565b6040519015158152602001610133565b6100d66101dd366004611363565b61037a565b6100d66101f0366004611387565b610436565b6101fd610460565b73ffffffffffffffffffffffffffffffffffffffff91909116600090815260016020526040902080547fffffffffffffffffffffffffffffffffffffffffffffffffffffffffffffff0016911515919091179055565b60006102668888805190602001206104e1565b9050610273818733610510565b5050505050505050565b610285610460565b61028f60006107ec565b565b6000806102d38a8a8080601f01602080910402602001604051908101604052809392919081815260200183838082843760009201829052509250610861915050565b91509150600061031a8b8b8080601f016020809104026020016040519081016040528093929190818152602001838380828437600092019190915250869250610a76915050565b9050600061032882856104e1565b90507f6c32148f748aba23997146d7fe89e962e3cc30271290fb96f5f4337756c03b5282016103615761035c848b33610aee565b61036c565b61036c818b33610510565b505050505050505050505050565b610382610460565b73ffffffffffffffffffffffffffffffffffffffff811661042a576040517f08c379a000000000000000000000000000000000000000000000000000000000815260206004820152602660248201527f4f776e61626c653a206e6577206f776e657220697320746865207a65726f206160448201527f646472657373000000000000000000000000000000000000000000000000000060648201526084015b60405180910390fd5b610433816107ec565b50565b6104588686604051610449929190611411565b60405180910390208533610aee565b505050505050565b60005473ffffffffffffffffffffffffffffffffffffffff16331461028f576040517f08c379a000000000000000000000000000000000000000000000000000000000815260206004820181905260248201527f4f776e61626c653a2063616c6c6572206973206e6f7420746865206f776e65726044820152606401610421565b604080516020808201859052818301849052825180830384018152606090920190925280519101205b92915050565b6040517f02571be3000000000000000000000000000000000000000000000000000000008152600481018490526000907f000000000000000000000000000000000000000000000000000000000000000073ffffffffffffffffffffffffffffffffffffffff16906302571be390602401602060405180830381865afa15801561059e573d6000803e3d6000fd5b505050506040513d601f19601f820116820180604052508101906105c29190611421565b73ffffffffffffffffffffffffffffffffffffffff831660009081526001602052604090205490915060ff16801561062557508173ffffffffffffffffffffffffffffffffffffffff168173ffffffffffffffffffffffffffffffffffffffff16145b80156106e257506040517fe985e9c500000000000000000000000000000000000000000000000000000000815273ffffffffffffffffffffffffffffffffffffffff82811660048301523060248301527f0000000000000000000000000000000000000000000000000000000000000000169063e985e9c590604401602060405180830381865afa1580156106be573d6000803e3d6000fd5b505050506040513d601f19601f820116820180604052508101906106e2919061143e565b610748576040517f08c379a000000000000000000000000000000000000000000000000000000000815260206004820152600c60248201527f556e617574686f726973656400000000000000000000000000000000000000006044820152606401610421565b6040517f5b0fc9c30000000000000000000000000000000000000000000000000000000081526004810185905273ffffffffffffffffffffffffffffffffffffffff84811660248301527f00000000000000000000000000000000000000000000000000000000000000001690635b0fc9c390604401600060405180830381600087803b1580156107d857600080fd5b505af1158015610273573d6000803e3d6000fd5b6000805473ffffffffffffffffffffffffffffffffffffffff8381167fffffffffffffffffffffffff0000000000000000000000000000000000000000831681178455604051919092169283917f8be0079c531659141344cd1fd0a4f28419497f9722a3daafe3b4186f6b6457e09190a35050565b600080835183106108a057836040517fba4adc23000000000000000000000000000000000000000000000000000000008152600401610421919061145b565b600084846108ad816114f6565b9550815181106108bf576108bf61152e565b016020015160f81c90506108d3818561155d565b9150845182111561091257846040517fba4adc23000000000000000000000000000000000000000000000000000000008152600401610421919061145b565b80604214801561097a575084848151811061092f5761092f61152e565b6020910101517fff00000000000000000000000000000000000000000000000000000000000000167f5b00000000000000000000000000000000000000000000000000000000000000145b80156109e857508461098d600184611570565b8151811061099d5761099d61152e565b6020910101517fff00000000000000000000000000000000000000000000000000000000000000167f5d00000000000000000000000000000000000000000000000000000000000000145b15610a5d576000610a0e866109fe87600161155d565b610a09600187611570565b610e87565b9094509050801580610a1e575083155b15610a5757856040517fba4adc23000000000000000000000000000000000000000000000000000000008152600401610421919061145b565b50610a6e565b8015610a6e57806020858701012092505b509250929050565b6000610a828383610861565b9250905080610acc5782518214610ac757826040517fba4adc23000000000000000000000000000000000000000000000000000000008152600401610421919061145b565b61050a565b6000610ad88484610a76565b6000908152602092909252506040902092915050565b6040517f6352211e0000000000000000000000000000000000000000000000000000000081526004810184905283906000907f000000000000000000000000000000000000000000000000000000000000000073ffffffffffffffffffffffffffffffffffffffff1690636352211e90602401602060405180830381865afa158015610b7e573d6000803e3d6000fd5b505050506040513d601f19601f82011682018060405250810190610ba29190611421565b73ffffffffffffffffffffffffffffffffffffffff841660009081526001602052604090205490915060ff168015610c0557508073ffffffffffffffffffffffffffffffffffffffff168373ffffffffffffffffffffffffffffffffffffffff16145b8015610cc257506040517fe985e9c500000000000000000000000000000000000000000000000000000000815273ffffffffffffffffffffffffffffffffffffffff82811660048301523060248301527f0000000000000000000000000000000000000000000000000000000000000000169063e985e9c590604401602060405180830381865afa158015610c9e573d6000803e3d6000fd5b505050506040513d601f19601f82011682018060405250810190610cc2919061143e565b610d28576040517f08c379a000000000000000000000000000000000000000000000000000000000815260206004820152600c60248201527f556e617574686f726973656400000000000000000000000000000000000000006044820152606401610421565b6040517f28ed4f6c0000000000000000000000000000000000000000000000000000000081526004810183905273ffffffffffffffffffffffffffffffffffffffff85811660248301527f000000000000000000000000000000000000000000000000000000000000000016906328ed4f6c90604401600060405180830381600087803b158015610db857600080fd5b505af1158015610dcc573d6000803e3d6000fd5b50506040517f23b872dd00000000000000000000000000000000000000000000000000000000815273ffffffffffffffffffffffffffffffffffffffff84811660048301528781166024830152604482018690527f00000000000000000000000000000000000000000000000000000000000000001692506323b872dd9150606401600060405180830381600087803b158015610e6857600080fd5b505af1158015610e7c573d6000803e3d6000fd5b505050505050505050565b60008080610e958585611570565b90506040811180610ea65750855184115b15610eb8575060009150819050610ee4565b858501602001610eca81600084610eec565b92506001820160011c6020036000518160031b1c94505050505b935093915050565b6000610fa6565b811a6000602f8211603a83101615610f2e57507fffffffffffffffffffffffffffffffffffffffffffffffffffffffffffffffd0810161050a565b60478210604083111615610f6557507fffffffffffffffffffffffffffffffffffffffffffffffffffffffffffffffc9810161050a565b60678210606083111615610f9c57507fffffffffffffffffffffffffffffffffffffffffffffffffffffffffffffffa9810161050a565b5061010092915050565b50600183820182821615610fe257610fc060008651610ef3565b80855360018601955060018501945060ff811115610fe057600092508195505b505b80851015611030578451610ff7600182610ef3565b611002600083610ef3565b60041b17905060ff81111561101b576000925050611030565b80855350600285019450600184019350610fe2565b509392505050565b73ffffffffffffffffffffffffffffffffffffffff8116811461043357600080fd5b803561106581611038565b919050565b801515811461043357600080fd5b6000806040838503121561108b57600080fd5b823561109681611038565b915060208301356110a68161106a565b809150509250929050565b7f4e487b7100000000000000000000000000000000000000000000000000000000600052604160045260246000fd5b803567ffffffffffffffff8116811461106557600080fd5b803563ffffffff8116811461106557600080fd5b600080600080600080600060e0888a03121561112757600080fd5b87359650602088013567ffffffffffffffff81111561114557600080fd5b8801601f81018a1361115657600080fd5b803567ffffffffffffffff811115611170576111706110b1565b6040517fffffffffffffffffffffffffffffffffffffffffffffffffffffffffffffffe0603f7fffffffffffffffffffffffffffffffffffffffffffffffffffffffffffffffe0601f8501160116810181811067ffffffffffffffff821117156111dc576111dc6110b1565b6040528181528282016020018c10156111f457600080fd5b816020840160208301376000602083830101528098505050506112196040890161105a565b94506112276060890161105a565b9350611235608089016110e0565b925061124360a089016110f8565b915061125160c089016110e0565b905092959891949750929550565b60008083601f84011261127157600080fd5b50813567ffffffffffffffff81111561128957600080fd5b6020830191508360208285010111156112a157600080fd5b9250929050565b60008060008060008060008060c0898b0312156112c457600080fd5b883567ffffffffffffffff8111156112db57600080fd5b6112e78b828c0161125f565b90995097505060208901356112fb81611038565b955061130960408a016110f8565b945061131760608a016110e0565b9350608089013561132781611038565b925060a089013567ffffffffffffffff81111561134357600080fd5b61134f8b828c0161125f565b999c989b5096995094979396929594505050565b60006020828403121561137557600080fd5b813561138081611038565b9392505050565b60008060008060008060a087890312156113a057600080fd5b863567ffffffffffffffff8111156113b757600080fd5b6113c389828a0161125f565b90975095505060208701356113d781611038565b93506113e5604088016110f8565b92506113f3606088016110e0565b9150608087013561140381611038565b809150509295509295509295565b8183823760009101908152919050565b60006020828403121561143357600080fd5b815161138081611038565b60006020828403121561145057600080fd5b81516113808161106a565b602081526000825180602084015260005b81811015611489576020818601810151604086840101520161146c565b5060006040828501015260407fffffffffffffffffffffffffffffffffffffffffffffffffffffffffffffffe0601f83011684010191505092915050565b7f4e487b7100000000000000000000000000000000000000000000000000000000600052601160045260246000fd5b60007fffffffffffffffffffffffffffffffffffffffffffffffffffffffffffffffff8203611527576115276114c7565b5060010190565b7f4e487b7100000000000000000000000000000000000000000000000000000000600052603260045260246000fd5b8082018082111561050a5761050a6114c7565b8181038181111561050a5761050a6114c756fea26469706673582212204488be039a3ac1c9177617c393cdb64eca0b5c3121bb560eed950c2517b3bbee64736f6c634300081a0033",
  "devdoc": {
    "errors": {
      "DNSDecodingFailed(bytes)": [
        {
          "details": "The DNS-encoded name is malformed."
        }
      ]
    },
    "kind": "dev",
    "methods": {
      "owner()": {
        "details": "Returns the address of the current owner."
      },
      "renounceOwnership()": {
        "details": "Leaves the contract without owner. It will not be possible to call `onlyOwner` functions. Can only be called by the current owner. NOTE: Renouncing ownership will leave the contract without an owner, thereby disabling any functionality that is only available to the owner."
      },
      "transferOwnership(address)": {
        "details": "Transfers ownership of the contract to a new account (`newOwner`). Can only be called by the current owner."
      }
    },
    "version": 1
  },
  "userdoc": {
    "kind": "user",
    "methods": {},
    "version": 1
  },
  "storageLayout": {
    "storage": [
      {
        "astId": 5090,
        "contract": "contracts/wrapper/mocks/TestUnwrap.sol:TestUnwrap",
        "label": "_owner",
        "offset": 0,
        "slot": "0",
        "type": "t_address"
      },
      {
        "astId": 37108,
        "contract": "contracts/wrapper/mocks/TestUnwrap.sol:TestUnwrap",
        "label": "approvedWrapper",
        "offset": 0,
        "slot": "1",
        "type": "t_mapping(t_address,t_bool)"
      }
    ],
    "types": {
      "t_address": {
        "encoding": "inplace",
        "label": "address",
        "numberOfBytes": "20"
      },
      "t_bool": {
        "encoding": "inplace",
        "label": "bool",
        "numberOfBytes": "1"
      },
      "t_mapping(t_address,t_bool)": {
        "encoding": "mapping",
        "key": "t_address",
        "label": "mapping(address => bool)",
        "numberOfBytes": "32",
        "value": "t_bool"
      }
    }
  }
}