{
  "address": "0xc800DBc8ff9796E58EfBa2d7b35028DdD1997E5e",
  "abi": [
    {
      "inputs": [
        {
          "internalType": "address",
          "name": "_owner",
          "type": "address"
        },
        {
          "internalType": "uint256",
          "name": "coinType",
          "type": "uint256"
        },
        {
          "internalType": "contract IStandaloneReverseRegistrar",
          "name": "_defaultRegistrar",
          "type": "address"
        },
        {
          "internalType": "address",
          "name": "_l2Registrar",
          "type": "address"
        },
        {
          "internalType": "contract IGatewayVerifier",
          "name": "verifier",
          "type": "address"
        },
        {
          "internalType": "string[]",
          "name": "gateways",
          "type": "string[]"
        }
      ],
      "stateMutability": "nonpayable",
      "type": "constructor"
    },
    {
      "inputs": [
        {
          "internalType": "bytes",
          "name": "dns",
          "type": "bytes"
        }
      ],
      "name": "DNSDecodingFailed",
      "type": "error"
    },
    {
      "inputs": [
        {
          "internalType": "address",
          "name": "from",
          "type": "address"
        },
        {
          "internalType": "string[]",
          "name": "urls",
          "type": "string[]"
        },
        {
          "internalType": "bytes",
          "name": "request",
          "type": "bytes"
        },
        {
          "internalType": "bytes4",
          "name": "callback",
          "type": "bytes4"
        },
        {
          "internalType": "bytes",
          "name": "carry",
          "type": "bytes"
        }
      ],
      "name": "OffchainLookup",
      "type": "error"
    },
    {
      "inputs": [
        {
          "internalType": "address",
          "name": "owner",
          "type": "address"
        }
      ],
      "name": "OwnableInvalidOwner",
      "type": "error"
    },
    {
      "inputs": [
        {
          "internalType": "address",
          "name": "account",
          "type": "address"
        }
      ],
      "name": "OwnableUnauthorizedAccount",
      "type": "error"
    },
    {
      "inputs": [],
      "name": "RequestOverflow",
      "type": "error"
    },
    {
      "inputs": [
        {
          "internalType": "bytes",
          "name": "name",
          "type": "bytes"
        }
      ],
      "name": "UnreachableName",
      "type": "error"
    },
    {
      "inputs": [
        {
          "internalType": "bytes4",
          "name": "selector",
          "type": "bytes4"
        }
      ],
      "name": "UnsupportedResolverProfile",
      "type": "error"
    },
    {
      "anonymous": false,
      "inputs": [
        {
          "indexed": false,
          "internalType": "string[]",
          "name": "urls",
          "type": "string[]"
        }
      ],
      "name": "GatewayURLsChanged",
      "type": "event"
    },
    {
      "anonymous": false,
      "inputs": [
        {
          "indexed": false,
          "internalType": "address",
          "name": "verifier",
          "type": "address"
        }
      ],
      "name": "GatewayVerifierChanged",
      "type": "event"
    },
    {
      "anonymous": false,
      "inputs": [
        {
          "indexed": true,
          "internalType": "address",
          "name": "previousOwner",
          "type": "address"
        },
        {
          "indexed": true,
          "internalType": "address",
          "name": "newOwner",
          "type": "address"
        }
      ],
      "name": "OwnershipTransferred",
      "type": "event"
    },
    {
      "inputs": [],
      "name": "chainId",
      "outputs": [
        {
          "internalType": "uint32",
          "name": "",
          "type": "uint32"
        }
      ],
      "stateMutability": "view",
      "type": "function"
    },
    {
      "inputs": [],
      "name": "coinType",
      "outputs": [
        {
          "internalType": "uint256",
          "name": "",
          "type": "uint256"
        }
      ],
      "stateMutability": "view",
      "type": "function"
    },
    {
      "inputs": [],
      "name": "defaultRegistrar",
      "outputs": [
        {
          "internalType": "contract IStandaloneReverseRegistrar",
          "name": "",
          "type": "address"
        }
      ],
      "stateMutability": "view",
      "type": "function"
    },
    {
      "inputs": [
        {
          "internalType": "bytes",
          "name": "response",
          "type": "bytes"
        },
        {
          "internalType": "bytes",
          "name": "carry",
          "type": "bytes"
        }
      ],
      "name": "fetchCallback",
      "outputs": [],
      "stateMutability": "view",
      "type": "function"
    },
    {
      "inputs": [
        {
          "internalType": "uint256",
          "name": "",
          "type": "uint256"
        }
      ],
      "name": "gatewayURLs",
      "outputs": [
        {
          "internalType": "string",
          "name": "",
          "type": "string"
        }
      ],
      "stateMutability": "view",
      "type": "function"
    },
    {
      "inputs": [],
      "name": "gatewayVerifier",
      "outputs": [
        {
          "internalType": "contract IGatewayVerifier",
          "name": "",
          "type": "address"
        }
      ],
      "stateMutability": "view",
      "type": "function"
    },
    {
      "inputs": [],
      "name": "l2Registrar",
      "outputs": [
        {
          "internalType": "address",
          "name": "",
          "type": "address"
        }
      ],
      "stateMutability": "view",
      "type": "function"
    },
    {
      "inputs": [],
      "name": "owner",
      "outputs": [
        {
          "internalType": "address",
          "name": "",
          "type": "address"
        }
      ],
      "stateMutability": "view",
      "type": "function"
    },
    {
      "inputs": [],
      "name": "renounceOwnership",
      "outputs": [],
      "stateMutability": "nonpayable",
      "type": "function"
    },
    {
      "inputs": [
        {
          "internalType": "bytes",
          "name": "name",
          "type": "bytes"
        },
        {
          "internalType": "bytes",
          "name": "data",
          "type": "bytes"
        }
      ],
      "name": "resolve",
      "outputs": [
        {
          "internalType": "bytes",
          "name": "result",
          "type": "bytes"
        }
      ],
      "stateMutability": "view",
      "type": "function"
    },
    {
      "inputs": [
        {
          "internalType": "bytes[]",
          "name": "values",
          "type": "bytes[]"
        },
        {
          "internalType": "uint8",
          "name": "",
          "type": "uint8"
        },
        {
          "internalType": "bytes",
          "name": "extraData",
          "type": "bytes"
        }
      ],
      "name": "resolveNameCallback",
      "outputs": [
        {
          "internalType": "bytes",
          "name": "result",
          "type": "bytes"
        }
      ],
      "stateMutability": "view",
      "type": "function"
    },
    {
      "inputs": [
        {
          "internalType": "address[]",
          "name": "addrs",
          "type": "address[]"
        },
        {
          "internalType": "uint8",
          "name": "perPage",
          "type": "uint8"
        }
      ],
      "name": "resolveNames",
      "outputs": [
        {
          "internalType": "string[]",
          "name": "names",
          "type": "string[]"
        }
      ],
      "stateMutability": "view",
      "type": "function"
    },
    {
      "inputs": [
        {
          "internalType": "bytes[]",
          "name": "values",
          "type": "bytes[]"
        },
        {
          "internalType": "uint8",
          "name": "",
          "type": "uint8"
        },
        {
          "internalType": "bytes",
          "name": "extraData",
          "type": "bytes"
        }
      ],
      "name": "resolveNamesCallback",
      "outputs": [
        {
          "internalType": "string[]",
          "name": "names",
          "type": "string[]"
        }
      ],
      "stateMutability": "view",
      "type": "function"
    },
    {
      "inputs": [
        {
          "internalType": "string[]",
          "name": "gateways",
          "type": "string[]"
        }
      ],
      "name": "setGatewayURLs",
      "outputs": [],
      "stateMutability": "nonpayable",
      "type": "function"
    },
    {
      "inputs": [
        {
          "internalType": "address",
          "name": "verifier",
          "type": "address"
        }
      ],
      "name": "setGatewayVerifier",
      "outputs": [],
      "stateMutability": "nonpayable",
      "type": "function"
    },
    {
      "inputs": [
        {
          "internalType": "bytes4",
          "name": "interfaceId",
          "type": "bytes4"
        }
      ],
      "name": "supportsInterface",
      "outputs": [
        {
          "internalType": "bool",
          "name": "",
          "type": "bool"
        }
      ],
      "stateMutability": "view",
      "type": "function"
    },
    {
      "inputs": [
        {
          "internalType": "address",
          "name": "newOwner",
          "type": "address"
        }
      ],
      "name": "transferOwnership",
      "outputs": [],
      "stateMutability": "nonpayable",
      "type": "function"
    }
  ],
  "transactionHash": "0xbff59b105417167146ef7440af98e5c6f98fa3ed2c50c183cc360ed38b5de089",
  "args": [
    "0xFe89cc7aBB2C4183683ab71653C4cdc9B02D44b7",
    "2147492101",
    "0x283F227c4Bd38ecE252C4Ae7ECE650B0e913f1f9",
    "0x0000000000D8e504002cC26E3Ec46D81971C1664",
    "0x074c93cd956b0dd2cac0f9f11dda4d3893a88149",
    [
      "https://lb.drpc.org/gateway/unruggable?network=base",
      "https://base.3668.io"
    ]
  ],
  "numDeployments": 1,
  "solcInputHash": "66ae8ece08cf62450fe50df51b345695",
  "bytecode": "0x61010060405234801561001157600080fd5b50604051613a49380380613a498339810160408190526100309161022f565b60808590526001600160a01b0380841660a0528690811661006b57604051631e4fbdf760e01b81526000600482015260240160405180910390fd5b610074816100bf565b506001600160a01b0384811660c05283811660e052600180546001600160a01b03191691841691909117905580516100b390600290602084019061010f565b50505050505050610518565b600080546001600160a01b038381166001600160a01b0319831681178455604051919092169283917f8be0079c531659141344cd1fd0a4f28419497f9722a3daafe3b4186f6b6457e09190a35050565b828054828255906000526020600020908101928215610155579160200282015b828111156101555782518290610145908261045a565b509160200191906001019061012f565b50610161929150610165565b5090565b808211156101615760006101798282610182565b50600101610165565b50805461018e906103d1565b6000825580601f1061019e575050565b601f0160209004906000526020600020908101906101bc91906101bf565b50565b5b8082111561016157600081556001016101c0565b6001600160a01b03811681146101bc57600080fd5b634e487b7160e01b600052604160045260246000fd5b604051601f8201601f191681016001600160401b0381118282101715610227576102276101e9565b604052919050565b60008060008060008060c0878903121561024857600080fd5b8651610253816101d4565b60208801516040890151919750955061026b816101d4565b606088015190945061027c816101d4565b608088015190935061028d816101d4565b60a08801519092506001600160401b038111156102a957600080fd5b8701601f810189136102ba57600080fd5b80516001600160401b038111156102d3576102d36101e9565b8060051b6102e3602082016101ff565b9182526020818401810192908101908c8411156102ff57600080fd5b6020850192505b838310156103bf5782516001600160401b0381111561032457600080fd5b8501603f81018e1361033557600080fd5b60208101516001600160401b03811115610351576103516101e9565b610364601f8201601f19166020016101ff565b8181528f6020808486010101111561037b57600080fd5b60005b8281101561039e578084016040015160208383018101919091520161037e565b50600060208383010152808552505050602082019150602083019250610306565b80955050505050509295509295509295565b600181811c908216806103e557607f821691505b60208210810361040557634e487b7160e01b600052602260045260246000fd5b50919050565b601f82111561045557806000526020600020601f840160051c810160208510156104325750805b601f840160051c820191505b81811015610452576000815560010161043e565b50505b505050565b81516001600160401b03811115610473576104736101e9565b6104878161048184546103d1565b8461040b565b6020601f8211600181146104bb57600083156104a35750848201515b600019600385901b1c1916600184901b178455610452565b600084815260208120601f198516915b828110156104eb57878501518255602094850194600190920191016104cb565b50848210156105095786840151600019600387901b60f8161c191681555b50505050600190811b01905550565b60805160a05160c05160e0516134b2610597600039600081816102bf015281816110de0152611417015260008181610298015281816105600152610670015260008181610a9e0152610c40015260008181610162015281816108c7015281816108ed01528181610a7101528181610be20152610d0901526134b26000f3fe608060405234801561001057600080fd5b506004361061011b5760003560e01c80638da5cb5b116100b2578063b16eab6511610081578063e31844fe11610066578063e31844fe146102e1578063e9481280146102f4578063f2fde38b1461030757600080fd5b8063b16eab6514610293578063d934ba62146102ba57600080fd5b80638da5cb5b146102325780638e5ea8df146102505780639061b923146102635780639a8a05921461027657600080fd5b806347ab2a21116100ee57806347ab2a21146101b25780635b4f069a146101d25780636407acc714610217578063715018a61461022a57600080fd5b806301ffc9a7146101205780631d7d85b2146101485780631fe93ea81461015d5780632edbbd1614610192575b600080fd5b61013361012e36600461231d565b61031a565b60405190151581526020015b60405180910390f35b61015b61015636600461235a565b6103ff565b005b6101847f000000000000000000000000000000000000000000000000000000000000000081565b60405190815260200161013f565b6101a56101a03660046124d2565b610481565b60405161013f919061260c565b6101c56101c0366004612700565b6104e0565b60405161013f91906127f7565b6001546101f29073ffffffffffffffffffffffffffffffffffffffff1681565b60405173ffffffffffffffffffffffffffffffffffffffff909116815260200161013f565b6101a5610225366004612700565b61061e565b61015b6107b6565b60005473ffffffffffffffffffffffffffffffffffffffff166101f2565b61015b61025e3660046128a1565b6107ca565b6101c56102713660046128d6565b610815565b61027e610d02565b60405163ffffffff909116815260200161013f565b6101f27f000000000000000000000000000000000000000000000000000000000000000081565b6101f27f000000000000000000000000000000000000000000000000000000000000000081565b61015b6102ef3660046128d6565b610d32565b6101c561030236600461292f565b610f2a565b61015b61031536600461235a565b610fd6565b60007fffffffff0000000000000000000000000000000000000000000000000000000082167f9061b9230000000000000000000000000000000000000000000000000000000014806103ad57507fffffffff0000000000000000000000000000000000000000000000000000000082167f2edbbd1600000000000000000000000000000000000000000000000000000000145b806103f957507f01ffc9a7000000000000000000000000000000000000000000000000000000007fffffffff000000000000000000000000000000000000000000000000000000008316145b92915050565b61040761103a565b600180547fffffffffffffffffffffffff00000000000000000000000000000000000000001673ffffffffffffffffffffffffffffffffffffffff83169081179091556040519081527f6c4103197a18c1f386676f6e3684ccb255d1babd88559817b05c2682453deca0906020015b60405180910390a150565b6060825167ffffffffffffffff81111561049d5761049d612377565b6040519080825280602002602001820160405280156104d057816020015b60608152602001906001900390816104bb5790505b5090506103f9838260008561108d565b60606000856000815181106104f7576104f7612948565b6020026020010151905080516000036105f35760006105188486018661235a565b6040517f4ec3bd2300000000000000000000000000000000000000000000000000000000815273ffffffffffffffffffffffffffffffffffffffff80831660048301529192507f000000000000000000000000000000000000000000000000000000000000000090911690634ec3bd2390602401600060405180830381865afa1580156105a9573d6000803e3d6000fd5b505050506040513d6000823e601f3d9081017fffffffffffffffffffffffffffffffffffffffffffffffffffffffffffffffe01682016040526105ef91908101906129c7565b9150505b8060405160200161060491906127f7565b604051602081830303815290604052915050949350505050565b606080600080610630858701876129fc565b919650919450909250905060005b885181101561079257600089828151811061065b5761065b612948565b602002602001015190508051600003610762577f000000000000000000000000000000000000000000000000000000000000000073ffffffffffffffffffffffffffffffffffffffff16634ec3bd238684815181106106bc576106bc612948565b60200260200101516040518263ffffffff1660e01b81526004016106fc919073ffffffffffffffffffffffffffffffffffffffff91909116815260200190565b600060405180830381865afa158015610719573d6000803e3d6000fd5b505050506040513d6000823e601f3d9081017fffffffffffffffffffffffffffffffffffffffffffffffffffffffffffffffe016820160405261075f91908101906129c7565b90505b808661076e8487612ab0565b8151811061077e5761077e612948565b60209081029190910101525060010161063e565b506107ab83858a51856107a59190612ab0565b8461108d565b505050949350505050565b6107be61103a565b6107c860006112d8565b565b6107d261103a565b80516107e5906002906020840190612238565b507f91e1766c20958bc6fcd98acb2f87a586ae0d20a19f1e495c5dac2a5c5f6c9da281604051610476919061260c565b606060006108238385612ac3565b90507f96e0cbcf000000000000000000000000000000000000000000000000000000007fffffffff000000000000000000000000000000000000000000000000000000008216016109a5576000806108b088888080601f01602080910402602001604051908101604052809392919081815260200183838082843760009201919091525061134d92505050565b915091508151601414158061091e575063800000007f000000000000000000000000000000000000000000000000000000000000000014610913577f0000000000000000000000000000000000000000000000000000000000000000811461091c565b61091c816113da565b155b156109625787876040517f5fe9a5df000000000000000000000000000000000000000000000000000000008152600401610959929190612b72565b60405180910390fd5b600061096d83612b86565b60601c905061097b81611401565b60405160200161098b91906127f7565b604051602081830303815290604052945050505050610cfa565b7fc4c4a822000000000000000000000000000000000000000000000000000000007fffffffff00000000000000000000000000000000000000000000000000000000821601610af8576000610a2f87878080601f016020809104026020016040519081016040528093929190818152602001838380828437600092018290525092506115a9915050565b50905080610a6d5786866040517f5fe9a5df000000000000000000000000000000000000000000000000000000008152600401610959929190612b72565b603c7f000000000000000000000000000000000000000000000000000000000000000014610a9c576000610abe565b7f00000000000000000000000000000000000000000000000000000000000000005b6040805173ffffffffffffffffffffffffffffffffffffffff90921660208301520160405160208183030381529060405292505050610cfa565b7f0e3481fa000000000000000000000000000000000000000000000000000000007fffffffff00000000000000000000000000000000000000000000000000000000821601610ca4576000610b8287878080601f016020809104026020016040519081016040528093929190818152602001838380828437600092018290525092506115a9915050565b50905080610bc05786866040517f5fe9a5df000000000000000000000000000000000000000000000000000000008152600401610959929190612b72565b6000610bcf8560048189612bf2565b810190610bdc9190612c1c565b915050807f000000000000000000000000000000000000000000000000000000000000000014610c1a57604080516000815260208101909152610c7b565b6040517fffffffffffffffffffffffffffffffffffffffff0000000000000000000000007f000000000000000000000000000000000000000000000000000000000000000060601b1660208201526034016040516020818303038152906040525b604051602001610c8b91906127f7565b6040516020818303038152906040529350505050610cfa565b6040517f7b1c461b0000000000000000000000000000000000000000000000000000000081527fffffffff0000000000000000000000000000000000000000000000000000000082166004820152602401610959565b949350505050565b6000610d2d7f000000000000000000000000000000000000000000000000000000000000000061177a565b905090565b6000610d4082840184612cb1565b8051602082015160408084015190517fe3d1666e000000000000000000000000000000000000000000000000000000008152939450600093849373ffffffffffffffffffffffffffffffffffffffff169263e3d1666e92610da7928c908c90600401612db1565b600060405180830381865afa158015610dc4573d6000803e3d6000fd5b505050506040513d6000823e601f3d9081017fffffffffffffffffffffffffffffffffffffffffffffffffffffffffffffffe0168201604052610e0a9190810190612e01565b915091506000803073ffffffffffffffffffffffffffffffffffffffff16856060015185858860800151604051602401610e4693929190612eca565b604080517fffffffffffffffffffffffffffffffffffffffffffffffffffffffffffffffe08184030181529181526020820180517bffffffffffffffffffffffffffffffffffffffffffffffffffffffff167fffffffff00000000000000000000000000000000000000000000000000000000909416939093179092529051610ecf9190612f6a565b600060405180830381855afa9150503d8060008114610f0a576040519150601f19603f3d011682016040523d82523d6000602084013e610f0f565b606091505b50915091508115610f2257805160208201f35b805160208201fd5b60028181548110610f3a57600080fd5b906000526020600020016000915090508054610f5590612f86565b80601f0160208091040260200160405190810160405280929190818152602001828054610f8190612f86565b8015610fce5780601f10610fa357610100808354040283529160200191610fce565b820191906000526020600020905b815481529060010190602001808311610fb157829003601f168201915b505050505081565b610fde61103a565b73ffffffffffffffffffffffffffffffffffffffff811661102e576040517f1e4fbdf700000000000000000000000000000000000000000000000000000000815260006004820152602401610959565b611037816112d8565b50565b60005473ffffffffffffffffffffffffffffffffffffffff1633146107c8576040517f118cdaa7000000000000000000000000000000000000000000000000000000008152336004820152602401610959565b600061109c60ff831684612ab0565b905084518111156110ab575083515b60006110b78483612fd3565b90508060ff166000036110cb5750506112d2565b60006110d6826117a6565b9050611102817f00000000000000000000000000000000000000000000000000000000000000006117c7565b5060005b8260ff168110156111755761116161115c6111578a611125858b612ab0565b8151811061113557611135612948565b60200260200101516111516000876117ef90919063ffffffff16565b90611810565b61183f565b611859565b5061116c8282611873565b50600101611106565b506001546040516112ce9173ffffffffffffffffffffffffffffffffffffffff169083907f6407acc700000000000000000000000000000000000000000000000000000000906111cf908c908c908c908c90602001612fe6565b604080517fffffffffffffffffffffffffffffffffffffffffffffffffffffffffffffffe08184030181526002805460208181028601810190945280855291939290919060009084015b828210156112c557838290600052602060002001805461123890612f86565b80601f016020809104026020016040519081016040528092919081815260200182805461126490612f86565b80156112b15780601f10611286576101008083540402835291602001916112b1565b820191906000526020600020905b81548152906001019060200180831161129457829003601f168201915b505050505081526020019060010190611219565b50505050611897565b5050505b50505050565b6000805473ffffffffffffffffffffffffffffffffffffffff8381167fffffffffffffffffffffffff0000000000000000000000000000000000000000831681178455604051919092169283917f8be0079c531659141344cd1fd0a4f28419497f9722a3daafe3b4186f6b6457e09190a35050565b606060008061135d846000611b43565b915050600061136e85600184611d58565b909450905080158061137f57508351155b156113a25760006040518060200160405280600081525090935093505050915091565b6113ac85836115a9565b93509050806113d35760006040518060200160405280600081525090935093505050915091565b5050915091565b600063800000008214806103f9575060006113f48361177a565b63ffffffff161192915050565b6060600061140f60016117a6565b905061143b817f00000000000000000000000000000000000000000000000000000000000000006117c7565b5061145161115c611157856111518560006117ef565b5061145d816000611873565b506001546040805173ffffffffffffffffffffffffffffffffffffffff86811660208301526115a393169184917f47ab2a21000000000000000000000000000000000000000000000000000000009101604080517fffffffffffffffffffffffffffffffffffffffffffffffffffffffffffffffe08184030181526002805460208181028601810190945280855291939290919060009084015b828210156112c557838290600052602060002001805461151690612f86565b80601f016020809104026020016040519081016040528092919081815260200182805461154290612f86565b801561158f5780601f106115645761010080835404028352916020019161158f565b820191906000526020600020905b81548152906001019060200180831161157257829003601f168201915b5050505050815260200190600101906114f7565b50919050565b6000806000806115b98686611b43565b60408051808201909152600481527f616464720000000000000000000000000000000000000000000000000000000060209091015290925090507f1a1ebb7848707a05591e7f7176db930a822cb7ceab700d19f68c7f26724dafb6820161162357603c92506116d3565b60408051808201909152600781527f64656661756c74000000000000000000000000000000000000000000000000006020909101527f301183f75670b4a9a2edb381b1d7533ad1e4387f1c77824f5fd582d2a43998d8820161168b57638000000092506116d3565b8161169e57600080935093505050611773565b6000806116b6886116b0896001612ab0565b85611dde565b91509150806116cf576000809550955050505050611773565b5092505b6116dd8682611b43565b60408051808201909152600781527f7265766572736500000000000000000000000000000000000000000000000000602090910152955091507fdec08c9dbbdd0890e300eb5062089b2d4b1c40e3673bbccb5423f7b37dcf9a9c821461174b57600080935093505050611773565b6117558686611b43565b509150811561176c57600080935093505050611773565b6001935050505b9250929050565b6000603c820361178c57506001919050565b63800000009182189182106117a25760006103f9565b5090565b6040805160208101909152606081526103f9826117c1611e43565b90611e8b565b6040805160208101909152606081526117e86117e38484611810565b611ef0565b9392505050565b6040805160208101909152606081526117e861180b8484611f0a565b611fd3565b6040805160208101909152606081526117e88373ffffffffffffffffffffffffffffffffffffffff8416611f0a565b6040805160208101909152606081526103f9826048611e8b565b6040805160208101909152606081526103f982603d611e8b565b6040805160208101909152606081526117e86118928460ff8516611f0a565b611fed565b60008573ffffffffffffffffffffffffffffffffffffffff166387c484fe6040518163ffffffff1660e01b8152600401600060405180830381865afa1580156118e4573d6000803e3d6000fd5b505050506040513d6000823e601f3d9081017fffffffffffffffffffffffffffffffffffffffffffffffffffffffffffffffe016820160405261192a91908101906129c7565b905081516000036119c9578573ffffffffffffffffffffffffffffffffffffffff1663b50f2fbc6040518163ffffffff1660e01b8152600401600060405180830381865afa158015611980573d6000803e3d6000fd5b505050506040513d6000823e601f3d9081017fffffffffffffffffffffffffffffffffffffffffffffffffffffffffffffffe01682016040526119c69190810190613066565b91505b308282876040516024016119de92919061311d565b604080517fffffffffffffffffffffffffffffffffffffffffffffffffffffffffffffffe0818403018152918152602080830180517bffffffffffffffffffffffffffffffffffffffffffffffffffffffff167f31c1980f00000000000000000000000000000000000000000000000000000000179052815160a08101835273ffffffffffffffffffffffffffffffffffffffff8c1681528082018790528083018b90527fffffffff000000000000000000000000000000000000000000000000000000008a1660608201526080810189905291517fe31844fe0000000000000000000000000000000000000000000000000000000092611ae192909101613142565b604080517fffffffffffffffffffffffffffffffffffffffffffffffffffffffffffffffe0818403018152908290527f556f18300000000000000000000000000000000000000000000000000000000082526109599594939291600401613221565b60008083518310611b8257836040517fba4adc2300000000000000000000000000000000000000000000000000000000815260040161095991906127f7565b60008484611b8f816132aa565b955081518110611ba157611ba1612948565b016020015160f81c9050611bb58185612ab0565b91508451821115611bf457846040517fba4adc2300000000000000000000000000000000000000000000000000000000815260040161095991906127f7565b806042148015611c5c5750848481518110611c1157611c11612948565b6020910101517fff00000000000000000000000000000000000000000000000000000000000000167f5b00000000000000000000000000000000000000000000000000000000000000145b8015611cca575084611c6f600184612fd3565b81518110611c7f57611c7f612948565b6020910101517fff00000000000000000000000000000000000000000000000000000000000000167f5d00000000000000000000000000000000000000000000000000000000000000145b15611d3f576000611cf086611ce0876001612ab0565b611ceb600187612fd3565b611dde565b9094509050801580611d00575083155b15611d3957856040517fba4adc2300000000000000000000000000000000000000000000000000000000815260040161095991906127f7565b50611d50565b8015611d5057806020858701012092505b509250929050565b6060600080611d678585612fd3565b90506001611d758282612ab0565b901c67ffffffffffffffff811115611d8f57611d8f612377565b6040519080825280601f01601f191660200182016040528015611db9576020820181803683370190505b50925060208587018101908401611dd1828285612007565b9350505050935093915050565b60008080611dec8585612fd3565b90506040811180611dfd5750855184115b15611e0f575060009150819050611e3b565b858501602001611e2181600084612007565b92506001820160011c6020036000518160031b1c94505050505b935093915050565b60408051602081018252606081528151612000808252612020820190935290916000919060208201818036833750506000825250604080516020810190915290815292915050565b604080516020810190915260608152825180516120008110611ed9576040517fec031c1f00000000000000000000000000000000000000000000000000000000815260040160405180910390fd5b600181018252838160208401015350929392505050565b6040805160208101909152606081526103f9826032611e8b565b60408051602081019091526060815281600003611f3357611f2c836000611e8b565b90506103f9565b6000611f3e83612153565b60f8600382901b169390931b929050611f588160206132e2565b9050611f6f611f688260006132fb565b8590611e8b565b508351805161200090611f869060ff851690612ab0565b1115611fbe576040517fec031c1f00000000000000000000000000000000000000000000000000000000815260040160405180910390fd5b80516020818301019490945292019091525090565b6040805160208101909152606081526103f9826046611e8b565b6040805160208101909152606081526103f9826033611e8b565b60006120c1565b811a6000602f8211603a8310161561204957507fffffffffffffffffffffffffffffffffffffffffffffffffffffffffffffffd081016103f9565b6047821060408311161561208057507fffffffffffffffffffffffffffffffffffffffffffffffffffffffffffffffc981016103f9565b606782106060831116156120b757507fffffffffffffffffffffffffffffffffffffffffffffffffffffffffffffffa981016103f9565b5061010092915050565b506001838201828216156120fd576120db6000865161200e565b80855360018601955060018501945060ff8111156120fb57600092508195505b505b8085101561214b57845161211260018261200e565b61211d60008361200e565b60041b17905060ff81111561213657600092505061214b565b808553506002850194506001840193506120fd565b509392505050565b60007001000000000000000000000000000000008210156121795760809190911b906010175b78010000000000000000000000000000000000000000000000008210156121a55760409190911b906008175b7c01000000000000000000000000000000000000000000000000000000008210156121d55760209190911b906004175b7e010000000000000000000000000000000000000000000000000000000000008210156122075760109190911b906002175b7f0100000000000000000000000000000000000000000000000000000000000000821015612233576001175b919050565b82805482825590600052602060002090810192821561227e579160200282015b8281111561227e578251829061226e9082613363565b5091602001919060010190612258565b506117a29291505b808211156117a257600061229a82826122a3565b50600101612286565b5080546122af90612f86565b6000825580601f106122bf575050565b601f01602090049060005260206000209081019061103791905b808211156117a257600081556001016122d9565b80357fffffffff000000000000000000000000000000000000000000000000000000008116811461223357600080fd5b60006020828403121561232f57600080fd5b6117e8826122ed565b73ffffffffffffffffffffffffffffffffffffffff8116811461103757600080fd5b60006020828403121561236c57600080fd5b81356117e881612338565b7f4e487b7100000000000000000000000000000000000000000000000000000000600052604160045260246000fd5b60405160a0810167ffffffffffffffff811182821017156123c9576123c9612377565b60405290565b604051601f82017fffffffffffffffffffffffffffffffffffffffffffffffffffffffffffffffe016810167ffffffffffffffff8111828210171561241657612416612377565b604052919050565b600067ffffffffffffffff82111561243857612438612377565b5060051b60200190565b600082601f83011261245357600080fd5b81356124666124618261241e565b6123cf565b8082825260208201915060208360051b86010192508583111561248857600080fd5b602085015b838110156124ae5780356124a081612338565b83526020928301920161248d565b5095945050505050565b60ff8116811461103757600080fd5b8035612233816124b8565b600080604083850312156124e557600080fd5b823567ffffffffffffffff8111156124fc57600080fd5b61250885828601612442565b9250506020830135612519816124b8565b809150509250929050565b60005b8381101561253f578181015183820152602001612527565b50506000910152565b60008151808452612560816020860160208601612524565b601f017fffffffffffffffffffffffffffffffffffffffffffffffffffffffffffffffe0169290920160200192915050565b600082825180855260208501945060208160051b8301016020850160005b83811015612600577fffffffffffffffffffffffffffffffffffffffffffffffffffffffffffffffe08584030188526125ea838351612548565b60209889019890935091909101906001016125b0565b50909695505050505050565b6020815260006117e86020830184612592565b600067ffffffffffffffff82111561263957612639612377565b50601f017fffffffffffffffffffffffffffffffffffffffffffffffffffffffffffffffe01660200190565b60006126736124618461261f565b905082815283838301111561268757600080fd5b828260208301376000602084830101529392505050565b600082601f8301126126af57600080fd5b6117e883833560208501612665565b60008083601f8401126126d057600080fd5b50813567ffffffffffffffff8111156126e857600080fd5b60208301915083602082850101111561177357600080fd5b6000806000806060858703121561271657600080fd5b843567ffffffffffffffff81111561272d57600080fd5b8501601f8101871361273e57600080fd5b803561274c6124618261241e565b8082825260208201915060208360051b85010192508983111561276e57600080fd5b602084015b838110156127b057803567ffffffffffffffff81111561279257600080fd5b6127a18c60208389010161269e565b84525060209283019201612773565b5096506127c392505050602086016124c7565b9250604085013567ffffffffffffffff8111156127df57600080fd5b6127eb878288016126be565b95989497509550505050565b6020815260006117e86020830184612548565b600082601f83011261281b57600080fd5b81356128296124618261241e565b8082825260208201915060208360051b86010192508583111561284b57600080fd5b602085015b838110156124ae57803567ffffffffffffffff81111561286f57600080fd5b8601603f8101881361288057600080fd5b61289288602083013560408401612665565b84525060209283019201612850565b6000602082840312156128b357600080fd5b813567ffffffffffffffff8111156128ca57600080fd5b610cfa8482850161280a565b600080600080604085870312156128ec57600080fd5b843567ffffffffffffffff81111561290357600080fd5b61290f878288016126be565b909550935050602085013567ffffffffffffffff8111156127df57600080fd5b60006020828403121561294157600080fd5b5035919050565b7f4e487b7100000000000000000000000000000000000000000000000000000000600052603260045260246000fd5b600082601f83011261298857600080fd5b815160208301600061299c6124618461261f565b90508281528583830111156129b057600080fd5b6129be836020830184612524565b95945050505050565b6000602082840312156129d957600080fd5b815167ffffffffffffffff8111156129f057600080fd5b610cfa84828501612977565b60008060008060808587031215612a1257600080fd5b843567ffffffffffffffff811115612a2957600080fd5b612a3587828801612442565b945050602085013567ffffffffffffffff811115612a5257600080fd5b612a5e8782880161280a565b935050604085013591506060850135612a76816124b8565b939692955090935050565b7f4e487b7100000000000000000000000000000000000000000000000000000000600052601160045260246000fd5b808201808211156103f9576103f9612a81565b80357fffffffff000000000000000000000000000000000000000000000000000000008116906004841015612b22577fffffffff00000000000000000000000000000000000000000000000000000000808560040360031b1b82161691505b5092915050565b8183528181602085013750600060208284010152600060207fffffffffffffffffffffffffffffffffffffffffffffffffffffffffffffffe0601f840116840101905092915050565b602081526000610cfa602083018486612b29565b805160208201517fffffffffffffffffffffffffffffffffffffffff000000000000000000000000811691906014821015612beb577fffffffffffffffffffffffffffffffffffffffff000000000000000000000000808360140360031b1b82161692505b5050919050565b60008085851115612c0257600080fd5b83861115612c0f57600080fd5b5050820193919092039150565b60008060408385031215612c2f57600080fd5b50508035926020909101359150565b803561223381612338565b600060208284031215612c5b57600080fd5b6040516020810167ffffffffffffffff81118282101715612c7e57612c7e612377565b604052905080823567ffffffffffffffff811115612c9b57600080fd5b612ca78582860161269e565b8252505092915050565b600060208284031215612cc357600080fd5b813567ffffffffffffffff811115612cda57600080fd5b820160a08185031215612cec57600080fd5b612cf46123a6565b612cfd82612c3e565b8152602082013567ffffffffffffffff811115612d1957600080fd5b612d258682850161269e565b602083015250604082013567ffffffffffffffff811115612d4557600080fd5b612d5186828501612c49565b604083015250612d63606083016122ed565b6060820152608082013567ffffffffffffffff811115612d8257600080fd5b612d8e8682850161269e565b608083015250949350505050565b6000815160208452610cfa6020850182612548565b606081526000612dc46060830187612548565b8281036020840152612dd68187612d9c565b90508281036040840152612deb818587612b29565b979650505050505050565b8051612233816124b8565b60008060408385031215612e1457600080fd5b825167ffffffffffffffff811115612e2b57600080fd5b8301601f81018513612e3c57600080fd5b8051612e4a6124618261241e565b8082825260208201915060208360051b850101925087831115612e6c57600080fd5b602084015b83811015612eae57805167ffffffffffffffff811115612e9057600080fd5b612e9f8a602083890101612977565b84525060209283019201612e71565b509450612ec19250505060208401612df6565b90509250929050565b6000606082016060835280865180835260808501915060808160051b86010192506020880160005b82811015612f41577fffffffffffffffffffffffffffffffffffffffffffffffffffffffffffffff80878603018452612f2c858351612548565b94506020938401939190910190600101612ef2565b5050505060ff851660208401528281036040840152612f608185612548565b9695505050505050565b60008251612f7c818460208701612524565b9190910192915050565b600181811c90821680612f9a57607f821691505b6020821081036115a3577f4e487b7100000000000000000000000000000000000000000000000000000000600052602260045260246000fd5b818103818111156103f9576103f9612a81565b60808082528551908201819052600090602087019060a0840190835b8181101561303657835173ffffffffffffffffffffffffffffffffffffffff16835260209384019390920191600101613002565b5050838103602085015261304a8188612592565b9250505083604083015260ff8316606083015295945050505050565b60006020828403121561307857600080fd5b815167ffffffffffffffff81111561308f57600080fd5b8201601f810184136130a057600080fd5b80516130ae6124618261241e565b8082825260208201915060208360051b8501019250868311156130d057600080fd5b602084015b8381101561311257805167ffffffffffffffff8111156130f457600080fd5b61310389602083890101612977565b845250602092830192016130d5565b509695505050505050565b6040815260006131306040830185612548565b82810360208401526129be8185612d9c565b6020815273ffffffffffffffffffffffffffffffffffffffff82511660208201526000602083015160a0604084015261317e60c0840182612548565b905060408401517fffffffffffffffffffffffffffffffffffffffffffffffffffffffffffffffe08483030160608501526131b98282612d9c565b9150507fffffffff00000000000000000000000000000000000000000000000000000000606085015116608084015260808401517fffffffffffffffffffffffffffffffffffffffffffffffffffffffffffffffe08483030160a08501526129be8282612548565b73ffffffffffffffffffffffffffffffffffffffff8616815260a06020820152600061325060a0830187612592565b82810360408401526132628187612548565b90507fffffffff0000000000000000000000000000000000000000000000000000000085166060840152828103608084015261329e8185612548565b98975050505050505050565b60007fffffffffffffffffffffffffffffffffffffffffffffffffffffffffffffffff82036132db576132db612a81565b5060010190565b60ff82811682821603908111156103f9576103f9612a81565b60ff81811683821601908111156103f9576103f9612a81565b601f82111561335e57806000526020600020601f840160051c8101602085101561333b5750805b601f840160051c820191505b8181101561335b5760008155600101613347565b50505b505050565b815167ffffffffffffffff81111561337d5761337d612377565b6133918161338b8454612f86565b84613314565b6020601f8211600181146133e357600083156133ad5750848201515b7fffffffffffffffffffffffffffffffffffffffffffffffffffffffffffffffff600385901b1c1916600184901b17845561335b565b6000848152602081207fffffffffffffffffffffffffffffffffffffffffffffffffffffffffffffffe08516915b828110156134315787850151825560209485019460019092019101613411565b508482101561346d57868401517fffffffffffffffffffffffffffffffffffffffffffffffffffffffffffffffff600387901b60f8161c191681555b50505050600190811b0190555056fea26469706673582212207df73955a4cd1875e4422b5318e0811990c250304fd8716475d4a094f79a568a64736f6c634300081a0033",
  "devdoc": {
    "errors": {
      "DNSDecodingFailed(bytes)": [
        {
          "details": "The DNS-encoded name is malformed."
        }
      ],
      "OwnableInvalidOwner(address)": [
        {
          "details": "The owner is not a valid owner account. (eg. `address(0)`)"
        }
      ],
      "OwnableUnauthorizedAccount(address)": [
        {
          "details": "The caller account is not authorized to perform an operation."
        }
      ],
      "UnreachableName(bytes)": [
        {
          "details": "Error selector: `0x5fe9a5df`"
        }
      ],
      "UnsupportedResolverProfile(bytes4)": [
        {
          "details": "Error selector: `0x7b1c461b`"
        }
      ]
    },
    "kind": "dev",
    "methods": {
      "owner()": {
        "details": "Returns the address of the current owner."
      },
      "renounceOwnership()": {
        "details": "Leaves the contract without owner. It will not be possible to call `onlyOwner` functions. Can only be called by the current owner. NOTE: Renouncing ownership will leave the contract without an owner, thereby disabling any functionality that is only available to the owner."
      },
      "resolve(bytes,bytes)": {
        "details": "This function may execute over multiple steps.",
        "params": {
          "data": "The resolution data, as specified in ENSIP-10.",
          "name": "The reverse name to resolve, in normalised and DNS-encoded form."
        },
        "returns": {
          "result": "The encoded response for the requested profile."
        }
      },
      "resolveNameCallback(bytes[],uint8,bytes)": {
        "details": "CCIP-Read callback for `_resolveName()` (step 2 of 2).",
        "params": {
          "extraData": "The contextual data passed from `_resolveName()`.",
          "values": "The outputs for `GatewayRequest` (1 name)."
        },
        "returns": {
          "result": "The abi-encoded name for the given address."
        }
      },
      "resolveNames(address[],uint8)": {
        "details": "This function may execute over multiple steps.",
        "params": {
          "addrs": "The addresses to resolve.",
          "perPage": "The maximum number of addresses to resolve per call.                Ignored if this function does not revert `OffchainLookup`."
        },
        "returns": {
          "names": "The resolved names."
        }
      },
      "resolveNamesCallback(bytes[],uint8,bytes)": {
        "details": "CCIP-Read callback for `_resolveNames()` (step 2 of 2).      Recursive if there are still addresses to resolve.",
        "params": {
          "extraData": "The contextual data passed from `_resolveNames()`.",
          "values": "The outputs for `GatewayRequest` (N names)."
        },
        "returns": {
          "names": "The resolved names."
        }
      },
      "setGatewayURLs(string[])": {
        "params": {
          "gateways": "The new gateway URLs."
        }
      },
      "setGatewayVerifier(address)": {
        "params": {
          "verifier": "The new verifier contract."
        }
      },
      "supportsInterface(bytes4)": {
        "details": "See {IERC165-supportsInterface}."
      },
      "transferOwnership(address)": {
        "details": "Transfers ownership of the contract to a new account (`newOwner`). Can only be called by the current owner."
      }
    },
    "title": "Chain Reverse Resolver",
    "version": 1
  },
  "userdoc": {
    "errors": {
      "UnreachableName(bytes)": [
        {
          "notice": "`name` is not a valid DNS-encoded ENSIP-19 reverse name or namespace."
        }
      ],
      "UnsupportedResolverProfile(bytes4)": [
        {
          "notice": "`resolve()` was called with a profile other than `name()` or `addr(*)`."
        }
      ]
    },
    "events": {
      "GatewayURLsChanged(string[])": {
        "notice": "Emitted when the gateway URLs are changed."
      },
      "GatewayVerifierChanged(address)": {
        "notice": "Emitted when the gateway verifier is changed."
      }
    },
    "kind": "user",
    "methods": {
      "chainId()": {
        "notice": "The EVM Chain ID corresponding to the `coinType`."
      },
      "coinType()": {
        "notice": "The coin type for the resolver."
      },
      "defaultRegistrar()": {
        "notice": "The reverse registrar contract for \"default.reverse\"."
      },
      "gatewayURLs(uint256)": {
        "notice": "Gateway URLs for the verifier contract."
      },
      "gatewayVerifier()": {
        "notice": "The verifier contract for the L2 chain."
      },
      "l2Registrar()": {
        "notice": "The reverse registrar address on the L2 chain."
      },
      "resolve(bytes,bytes)": {
        "notice": "Resolves the following profiles according to ENSIP-10:         - `name()` if `name` is an ENSIP-19 reverse name of an EVM address for `coinType`.         - `addr(*) = registrar` if `name` is an ENSIP-19 reverse namespace for `coinType`.         Callers should enable EIP-3668."
      },
      "resolveNames(address[],uint8)": {
        "notice": "Resolve multiple EVM addresses to names.         Callers should enable EIP-3668."
      },
      "setGatewayURLs(string[])": {
        "notice": "Set gateway URLs."
      },
      "setGatewayVerifier(address)": {
        "notice": "Set the verifier contract."
      }
    },
    "notice": "Reverses an EVM address using the first non-null response from the following sources:         1. `L2ReverseRegistrar` on L2 chain via Unruggable Gateway         2. `IStandaloneReverseRegistrar` for \"default.reverse\"",
    "version": 1
  },
  "storageLayout": {
    "storage": [
      {
        "astId": 446,
        "contract": "contracts/reverseResolver/ChainReverseResolver.sol:ChainReverseResolver",
        "label": "_owner",
        "offset": 0,
        "slot": "0",
        "type": "t_address"
      },
      {
        "astId": 27914,
        "contract": "contracts/reverseResolver/ChainReverseResolver.sol:ChainReverseResolver",
        "label": "gatewayVerifier",
        "offset": 0,
        "slot": "1",
        "type": "t_contract(IGatewayVerifier)11457"
      },
      {
        "astId": 27918,
        "contract": "contracts/reverseResolver/ChainReverseResolver.sol:ChainReverseResolver",
        "label": "gatewayURLs",
        "offset": 0,
        "slot": "2",
        "type": "t_array(t_string_storage)dyn_storage"
      }
    ],
    "types": {
      "t_address": {
        "encoding": "inplace",
        "label": "address",
        "numberOfBytes": "20"
      },
      "t_array(t_string_storage)dyn_storage": {
        "base": "t_string_storage",
        "encoding": "dynamic_array",
        "label": "string[]",
        "numberOfBytes": "32"
      },
      "t_contract(IGatewayVerifier)11457": {
        "encoding": "inplace",
        "label": "contract IGatewayVerifier",
        "numberOfBytes": "20"
      },
      "t_string_storage": {
        "encoding": "bytes",
        "label": "string",
        "numberOfBytes": "32"
      }
    }
  }
}