{
  "address": "0xA7d635c8de9a58a228AA69353a1699C7Cc240DCF",
  "abi": [
    {
      "inputs": [
        {
          "internalType": "contract IStandaloneReverseRegistrar",
          "name": "_defaultRegistrar",
          "type": "address"
        }
      ],
      "stateMutability": "nonpayable",
      "type": "constructor"
    },
    {
      "inputs": [
        {
          "internalType": "bytes",
          "name": "dns",
          "type": "bytes"
        }
      ],
      "name": "DNSDecodingFailed",
      "type": "error"
    },
    {
      "inputs": [
        {
          "internalType": "bytes",
          "name": "name",
          "type": "bytes"
        }
      ],
      "name": "UnreachableName",
      "type": "error"
    },
    {
      "inputs": [
        {
          "internalType": "bytes4",
          "name": "selector",
          "type": "bytes4"
        }
      ],
      "name": "UnsupportedResolverProfile",
      "type": "error"
    },
    {
      "inputs": [],
      "name": "chainId",
      "outputs": [
        {
          "internalType": "uint32",
          "name": "",
          "type": "uint32"
        }
      ],
      "stateMutability": "view",
      "type": "function"
    },
    {
      "inputs": [],
      "name": "coinType",
      "outputs": [
        {
          "internalType": "uint256",
          "name": "",
          "type": "uint256"
        }
      ],
      "stateMutability": "view",
      "type": "function"
    },
    {
      "inputs": [],
      "name": "defaultRegistrar",
      "outputs": [
        {
          "internalType": "contract IStandaloneReverseRegistrar",
          "name": "",
          "type": "address"
        }
      ],
      "stateMutability": "view",
      "type": "function"
    },
    {
      "inputs": [
        {
          "internalType": "bytes",
          "name": "name",
          "type": "bytes"
        },
        {
          "internalType": "bytes",
          "name": "data",
          "type": "bytes"
        }
      ],
      "name": "resolve",
      "outputs": [
        {
          "internalType": "bytes",
          "name": "result",
          "type": "bytes"
        }
      ],
      "stateMutability": "view",
      "type": "function"
    },
    {
      "inputs": [
        {
          "internalType": "address[]",
          "name": "addrs",
          "type": "address[]"
        },
        {
          "internalType": "uint8",
          "name": "",
          "type": "uint8"
        }
      ],
      "name": "resolveNames",
      "outputs": [
        {
          "internalType": "string[]",
          "name": "names",
          "type": "string[]"
        }
      ],
      "stateMutability": "view",
      "type": "function"
    },
    {
      "inputs": [
        {
          "internalType": "bytes4",
          "name": "interfaceId",
          "type": "bytes4"
        }
      ],
      "name": "supportsInterface",
      "outputs": [
        {
          "internalType": "bool",
          "name": "",
          "type": "bool"
        }
      ],
      "stateMutability": "view",
      "type": "function"
    }
  ],
  "transactionHash": "0xe3b955bad34a8f2e8702ae7710f01597b7ee843e29e38c5069a3d1228168766e",
  "args": [
    "0x283F227c4Bd38ecE252C4Ae7ECE650B0e913f1f9"
  ],
  "numDeployments": 1,
  "solcInputHash": "66ae8ece08cf62450fe50df51b345695",
  "bytecode": "0x60e060405234801561001057600080fd5b5060405161176438038061176483398101604081905261002f9161004d565b63800000006080526001600160a01b031660a081905260c05261007d565b60006020828403121561005f57600080fd5b81516001600160a01b038116811461007657600080fd5b9392505050565b60805160a05160c0516116886100dc600039600081816101360152610873015260008181610597015261073901526000818160a4015281816103c0015281816103e60152818161056a015281816106db015261080201526116886000f3fe608060405234801561001057600080fd5b50600436106100725760003560e01c80639061b923116100505780639061b923146100f45780639a8a059214610114578063b16eab651461013157600080fd5b806301ffc9a7146100775780631fe93ea81461009f5780632edbbd16146100d4575b600080fd5b61008a610085366004610fff565b61017d565b60405190151581526020015b60405180910390f35b6100c67f000000000000000000000000000000000000000000000000000000000000000081565b604051908152602001610096565b6100e76100e23660046110dc565b610262565b604051610096919061122f565b6101076101023660046112f4565b61030e565b6040516100969190611365565b61011c6107fb565b60405163ffffffff9091168152602001610096565b6101587f000000000000000000000000000000000000000000000000000000000000000081565b60405173ffffffffffffffffffffffffffffffffffffffff9091168152602001610096565b60007fffffffff0000000000000000000000000000000000000000000000000000000082167f9061b92300000000000000000000000000000000000000000000000000000000148061021057507fffffffff0000000000000000000000000000000000000000000000000000000082167f2edbbd1600000000000000000000000000000000000000000000000000000000145b8061025c57507f01ffc9a7000000000000000000000000000000000000000000000000000000007fffffffff000000000000000000000000000000000000000000000000000000008316145b92915050565b6060825167ffffffffffffffff81111561027e5761027e611048565b6040519080825280602002602001820160405280156102b157816020015b606081526020019060019003908161029c5790505b50905060005b8351811015610307576102e28482815181106102d5576102d5611378565b602002602001015161082b565b8282815181106102f4576102f4611378565b60209081029190910101526001016102b7565b5092915050565b6060600061031c83856113a7565b90507f96e0cbcf000000000000000000000000000000000000000000000000000000007fffffffff0000000000000000000000000000000000000000000000000000000082160161049e576000806103a988888080601f01602080910402602001604051908101604052809392919081815260200183838082843760009201919091525061090292505050565b9150915081516014141580610417575063800000007f00000000000000000000000000000000000000000000000000000000000000001461040c577f00000000000000000000000000000000000000000000000000000000000000008114610415565b6104158161098f565b155b1561045b5787876040517f5fe9a5df00000000000000000000000000000000000000000000000000000000815260040161045292919061140c565b60405180910390fd5b600061046683611459565b60601c90506104748161082b565b6040516020016104849190611365565b6040516020818303038152906040529450505050506107f3565b7fc4c4a822000000000000000000000000000000000000000000000000000000007fffffffff000000000000000000000000000000000000000000000000000000008216016105f157600061052887878080601f016020809104026020016040519081016040528093929190818152602001838380828437600092018290525092506109b6915050565b509050806105665786866040517f5fe9a5df00000000000000000000000000000000000000000000000000000000815260040161045292919061140c565b603c7f0000000000000000000000000000000000000000000000000000000000000000146105955760006105b7565b7f00000000000000000000000000000000000000000000000000000000000000005b6040805173ffffffffffffffffffffffffffffffffffffffff909216602083015201604051602081830303815290604052925050506107f3565b7f0e3481fa000000000000000000000000000000000000000000000000000000007fffffffff0000000000000000000000000000000000000000000000000000000082160161079d57600061067b87878080601f016020809104026020016040519081016040528093929190818152602001838380828437600092018290525092506109b6915050565b509050806106b95786866040517f5fe9a5df00000000000000000000000000000000000000000000000000000000815260040161045292919061140c565b60006106c885600481896114c5565b8101906106d591906114ef565b915050807f00000000000000000000000000000000000000000000000000000000000000001461071357604080516000815260208101909152610774565b6040517fffffffffffffffffffffffffffffffffffffffff0000000000000000000000007f000000000000000000000000000000000000000000000000000000000000000060601b1660208201526034016040516020818303038152906040525b6040516020016107849190611365565b60405160208183030381529060405293505050506107f3565b6040517f7b1c461b0000000000000000000000000000000000000000000000000000000081527fffffffff0000000000000000000000000000000000000000000000000000000082166004820152602401610452565b949350505050565b60006108267f0000000000000000000000000000000000000000000000000000000000000000610b87565b905090565b6040517f4ec3bd2300000000000000000000000000000000000000000000000000000000815273ffffffffffffffffffffffffffffffffffffffff82811660048301526060917f000000000000000000000000000000000000000000000000000000000000000090911690634ec3bd2390602401600060405180830381865afa1580156108bc573d6000803e3d6000fd5b505050506040513d6000823e601f3d9081017fffffffffffffffffffffffffffffffffffffffffffffffffffffffffffffffe016820160405261025c9190810190611511565b6060600080610912846000610bb3565b915050600061092385600184610dc8565b909450905080158061093457508351155b156109575760006040518060200160405280600081525090935093505050915091565b61096185836109b6565b93509050806109885760006040518060200160405280600081525090935093505050915091565b5050915091565b6000638000000082148061025c575060006109a983610b87565b63ffffffff161192915050565b6000806000806109c68686610bb3565b60408051808201909152600481527f616464720000000000000000000000000000000000000000000000000000000060209091015290925090507f1a1ebb7848707a05591e7f7176db930a822cb7ceab700d19f68c7f26724dafb68201610a3057603c9250610ae0565b60408051808201909152600781527f64656661756c74000000000000000000000000000000000000000000000000006020909101527f301183f75670b4a9a2edb381b1d7533ad1e4387f1c77824f5fd582d2a43998d88201610a985763800000009250610ae0565b81610aab57600080935093505050610b80565b600080610ac388610abd8960016115f4565b85610e4e565b9150915080610adc576000809550955050505050610b80565b5092505b610aea8682610bb3565b60408051808201909152600781527f7265766572736500000000000000000000000000000000000000000000000000602090910152955091507fdec08c9dbbdd0890e300eb5062089b2d4b1c40e3673bbccb5423f7b37dcf9a9c8214610b5857600080935093505050610b80565b610b628686610bb3565b5091508115610b7957600080935093505050610b80565b6001935050505b9250929050565b6000603c8203610b9957506001919050565b6380000000918218918210610baf57600061025c565b5090565b60008083518310610bf257836040517fba4adc230000000000000000000000000000000000000000000000000000000081526004016104529190611365565b60008484610bff81611607565b955081518110610c1157610c11611378565b016020015160f81c9050610c2581856115f4565b91508451821115610c6457846040517fba4adc230000000000000000000000000000000000000000000000000000000081526004016104529190611365565b806042148015610ccc5750848481518110610c8157610c81611378565b6020910101517fff00000000000000000000000000000000000000000000000000000000000000167f5b00000000000000000000000000000000000000000000000000000000000000145b8015610d3a575084610cdf60018461163f565b81518110610cef57610cef611378565b6020910101517fff00000000000000000000000000000000000000000000000000000000000000167f5d00000000000000000000000000000000000000000000000000000000000000145b15610daf576000610d6086610d508760016115f4565b610d5b60018761163f565b610e4e565b9094509050801580610d70575083155b15610da957856040517fba4adc230000000000000000000000000000000000000000000000000000000081526004016104529190611365565b50610dc0565b8015610dc057806020858701012092505b509250929050565b6060600080610dd7858561163f565b90506001610de582826115f4565b901c67ffffffffffffffff811115610dff57610dff611048565b6040519080825280601f01601f191660200182016040528015610e29576020820181803683370190505b50925060208587018101908401610e41828285610eb3565b9350505050935093915050565b60008080610e5c858561163f565b90506040811180610e6d5750855184115b15610e7f575060009150819050610eab565b858501602001610e9181600084610eb3565b92506001820160011c6020036000518160031b1c94505050505b935093915050565b6000610f6d565b811a6000602f8211603a83101615610ef557507fffffffffffffffffffffffffffffffffffffffffffffffffffffffffffffffd0810161025c565b60478210604083111615610f2c57507fffffffffffffffffffffffffffffffffffffffffffffffffffffffffffffffc9810161025c565b60678210606083111615610f6357507fffffffffffffffffffffffffffffffffffffffffffffffffffffffffffffffa9810161025c565b5061010092915050565b50600183820182821615610fa957610f8760008651610eba565b80855360018601955060018501945060ff811115610fa757600092508195505b505b80851015610ff7578451610fbe600182610eba565b610fc9600083610eba565b60041b17905060ff811115610fe2576000925050610ff7565b80855350600285019450600184019350610fa9565b509392505050565b60006020828403121561101157600080fd5b81357fffffffff000000000000000000000000000000000000000000000000000000008116811461104157600080fd5b9392505050565b7f4e487b7100000000000000000000000000000000000000000000000000000000600052604160045260246000fd5b604051601f82017fffffffffffffffffffffffffffffffffffffffffffffffffffffffffffffffe016810167ffffffffffffffff811182821017156110be576110be611048565b604052919050565b803560ff811681146110d757600080fd5b919050565b600080604083850312156110ef57600080fd5b823567ffffffffffffffff81111561110657600080fd5b8301601f8101851361111757600080fd5b803567ffffffffffffffff81111561113157611131611048565b8060051b61114160208201611077565b9182526020818401810192908101908884111561115d57600080fd5b6020850194505b838510156111a4578435925073ffffffffffffffffffffffffffffffffffffffff8316831461119257600080fd5b82825260209485019490910190611164565b80965050505050506111b8602084016110c6565b90509250929050565b60005b838110156111dc5781810151838201526020016111c4565b50506000910152565b600081518084526111fd8160208601602086016111c1565b601f017fffffffffffffffffffffffffffffffffffffffffffffffffffffffffffffffe0169290920160200192915050565b6000602082016020835280845180835260408501915060408160051b86010192506020860160005b828110156112a6577fffffffffffffffffffffffffffffffffffffffffffffffffffffffffffffffc08786030184526112918583516111e5565b94506020938401939190910190600101611257565b50929695505050505050565b60008083601f8401126112c457600080fd5b50813567ffffffffffffffff8111156112dc57600080fd5b602083019150836020828501011115610b8057600080fd5b6000806000806040858703121561130a57600080fd5b843567ffffffffffffffff81111561132157600080fd5b61132d878288016112b2565b909550935050602085013567ffffffffffffffff81111561134d57600080fd5b611359878288016112b2565b95989497509550505050565b60208152600061104160208301846111e5565b7f4e487b7100000000000000000000000000000000000000000000000000000000600052603260045260246000fd5b80357fffffffff000000000000000000000000000000000000000000000000000000008116906004841015610307577fffffffff00000000000000000000000000000000000000000000000000000000808560040360031b1b82161691505092915050565b60208152816020820152818360408301376000818301604090810191909152601f9092017fffffffffffffffffffffffffffffffffffffffffffffffffffffffffffffffe0160101919050565b805160208201517fffffffffffffffffffffffffffffffffffffffff0000000000000000000000008116919060148210156114be577fffffffffffffffffffffffffffffffffffffffff000000000000000000000000808360140360031b1b82161692505b5050919050565b600080858511156114d557600080fd5b838611156114e257600080fd5b5050820193919092039150565b6000806040838503121561150257600080fd5b50508035926020909101359150565b60006020828403121561152357600080fd5b815167ffffffffffffffff81111561153a57600080fd5b8201601f8101841361154b57600080fd5b805167ffffffffffffffff81111561156557611565611048565b61159660207fffffffffffffffffffffffffffffffffffffffffffffffffffffffffffffffe0601f84011601611077565b8181528560208385010111156115ab57600080fd5b6115bc8260208301602086016111c1565b95945050505050565b7f4e487b7100000000000000000000000000000000000000000000000000000000600052601160045260246000fd5b8082018082111561025c5761025c6115c5565b60007fffffffffffffffffffffffffffffffffffffffffffffffffffffffffffffffff8203611638576116386115c5565b5060010190565b8181038181111561025c5761025c6115c556fea2646970667358221220969643a54d4e9587668302ccd8e867485146842cbfb928b541f0c6f636b82ae964736f6c634300081a0033",
  "devdoc": {
    "errors": {
      "DNSDecodingFailed(bytes)": [
        {
          "details": "The DNS-encoded name is malformed."
        }
      ],
      "UnreachableName(bytes)": [
        {
          "details": "Error selector: `0x5fe9a5df`"
        }
      ],
      "UnsupportedResolverProfile(bytes4)": [
        {
          "details": "Error selector: `0x7b1c461b`"
        }
      ]
    },
    "kind": "dev",
    "methods": {
      "resolve(bytes,bytes)": {
        "details": "This function may execute over multiple steps.",
        "params": {
          "data": "The resolution data, as specified in ENSIP-10.",
          "name": "The reverse name to resolve, in normalised and DNS-encoded form."
        },
        "returns": {
          "result": "The encoded response for the requested profile."
        }
      },
      "resolveNames(address[],uint8)": {
        "details": "This function may execute over multiple steps.",
        "params": {
          "addrs": "The addresses to resolve.",
          "perPage": "The maximum number of addresses to resolve per call.                Ignored if this function does not revert `OffchainLookup`."
        },
        "returns": {
          "names": "The resolved names."
        }
      },
      "supportsInterface(bytes4)": {
        "details": "See {IERC165-supportsInterface}."
      }
    },
    "title": "Default Reverse Resolver",
    "version": 1
  },
  "userdoc": {
    "errors": {
      "UnreachableName(bytes)": [
        {
          "notice": "`name` is not a valid DNS-encoded ENSIP-19 reverse name or namespace."
        }
      ],
      "UnsupportedResolverProfile(bytes4)": [
        {
          "notice": "`resolve()` was called with a profile other than `name()` or `addr(*)`."
        }
      ]
    },
    "kind": "user",
    "methods": {
      "chainId()": {
        "notice": "The EVM Chain ID corresponding to the `coinType`."
      },
      "coinType()": {
        "notice": "The coin type for the resolver."
      },
      "defaultRegistrar()": {
        "notice": "The reverse registrar contract for \"default.reverse\"."
      },
      "resolve(bytes,bytes)": {
        "notice": "Resolves the following profiles according to ENSIP-10:         - `name()` if `name` is an ENSIP-19 reverse name of an EVM address for `coinType`.         - `addr(*) = registrar` if `name` is an ENSIP-19 reverse namespace for `coinType`.         Callers should enable EIP-3668."
      },
      "resolveNames(address[],uint8)": {
        "notice": "Resolve multiple EVM addresses to names.         Callers should enable EIP-3668."
      }
    },
    "notice": "Reverses an EVM address using the `IStandaloneReverseRegistrar` for \"default.reverse\".",
    "version": 1
  },
  "storageLayout": {
    "storage": [],
    "types": null
  }
}