{
  "address": "0xED73a03F19e8D849E44a39252d222c6ad5217E1e",
  "abi": [
    {
      "inputs": [
        {
          "internalType": "address",
          "name": "owner",
          "type": "address"
        },
        {
          "internalType": "contract ENS",
          "name": "ens",
          "type": "address"
        },
        {
          "internalType": "contract IGatewayProvider",
          "name": "batchGatewayProvider",
          "type": "address"
        }
      ],
      "stateMutability": "nonpayable",
      "type": "constructor"
    },
    {
      "inputs": [
        {
          "internalType": "bytes",
          "name": "dns",
          "type": "bytes"
        }
      ],
      "name": "DNSDecodingFailed",
      "type": "error"
    },
    {
      "inputs": [
        {
          "internalType": "string",
          "name": "ens",
          "type": "string"
        }
      ],
      "name": "DNSEncodingFailed",
      "type": "error"
    },
    {
      "inputs": [],
      "name": "EmptyAddress",
      "type": "error"
    },
    {
      "inputs": [
        {
          "internalType": "uint16",
          "name": "status",
          "type": "uint16"
        },
        {
          "internalType": "string",
          "name": "message",
          "type": "string"
        }
      ],
      "name": "HttpError",
      "type": "error"
    },
    {
      "inputs": [],
      "name": "InvalidBatchGatewayResponse",
      "type": "error"
    },
    {
      "inputs": [
        {
          "internalType": "address",
          "name": "sender",
          "type": "address"
        },
        {
          "internalType": "string[]",
          "name": "urls",
          "type": "string[]"
        },
        {
          "internalType": "bytes",
          "name": "callData",
          "type": "bytes"
        },
        {
          "internalType": "bytes4",
          "name": "callbackFunction",
          "type": "bytes4"
        },
        {
          "internalType": "bytes",
          "name": "extraData",
          "type": "bytes"
        }
      ],
      "name": "OffchainLookup",
      "type": "error"
    },
    {
      "inputs": [
        {
          "internalType": "uint256",
          "name": "offset",
          "type": "uint256"
        },
        {
          "internalType": "uint256",
          "name": "length",
          "type": "uint256"
        }
      ],
      "name": "OffsetOutOfBoundsError",
      "type": "error"
    },
    {
      "inputs": [
        {
          "internalType": "bytes",
          "name": "errorData",
          "type": "bytes"
        }
      ],
      "name": "ResolverError",
      "type": "error"
    },
    {
      "inputs": [
        {
          "internalType": "bytes",
          "name": "name",
          "type": "bytes"
        },
        {
          "internalType": "address",
          "name": "resolver",
          "type": "address"
        }
      ],
      "name": "ResolverNotContract",
      "type": "error"
    },
    {
      "inputs": [
        {
          "internalType": "bytes",
          "name": "name",
          "type": "bytes"
        }
      ],
      "name": "ResolverNotFound",
      "type": "error"
    },
    {
      "inputs": [
        {
          "internalType": "string",
          "name": "primary",
          "type": "string"
        },
        {
          "internalType": "bytes",
          "name": "primaryAddress",
          "type": "bytes"
        }
      ],
      "name": "ReverseAddressMismatch",
      "type": "error"
    },
    {
      "inputs": [
        {
          "internalType": "bytes4",
          "name": "selector",
          "type": "bytes4"
        }
      ],
      "name": "UnsupportedResolverProfile",
      "type": "error"
    },
    {
      "inputs": [],
      "name": "batchGatewayProvider",
      "outputs": [
        {
          "internalType": "contract IGatewayProvider",
          "name": "",
          "type": "address"
        }
      ],
      "stateMutability": "view",
      "type": "function"
    },
    {
      "inputs": [
        {
          "components": [
            {
              "components": [
                {
                  "internalType": "address",
                  "name": "target",
                  "type": "address"
                },
                {
                  "internalType": "bytes",
                  "name": "call",
                  "type": "bytes"
                },
                {
                  "internalType": "bytes",
                  "name": "data",
                  "type": "bytes"
                },
                {
                  "internalType": "uint256",
                  "name": "flags",
                  "type": "uint256"
                }
              ],
              "internalType": "struct CCIPBatcher.Lookup[]",
              "name": "lookups",
              "type": "tuple[]"
            },
            {
              "internalType": "string[]",
              "name": "gateways",
              "type": "string[]"
            }
          ],
          "internalType": "struct CCIPBatcher.Batch",
          "name": "batch",
          "type": "tuple"
        }
      ],
      "name": "ccipBatch",
      "outputs": [
        {
          "components": [
            {
              "components": [
                {
                  "internalType": "address",
                  "name": "target",
                  "type": "address"
                },
                {
                  "internalType": "bytes",
                  "name": "call",
                  "type": "bytes"
                },
                {
                  "internalType": "bytes",
                  "name": "data",
                  "type": "bytes"
                },
                {
                  "internalType": "uint256",
                  "name": "flags",
                  "type": "uint256"
                }
              ],
              "internalType": "struct CCIPBatcher.Lookup[]",
              "name": "lookups",
              "type": "tuple[]"
            },
            {
              "internalType": "string[]",
              "name": "gateways",
              "type": "string[]"
            }
          ],
          "internalType": "struct CCIPBatcher.Batch",
          "name": "",
          "type": "tuple"
        }
      ],
      "stateMutability": "view",
      "type": "function"
    },
    {
      "inputs": [
        {
          "internalType": "bytes",
          "name": "response",
          "type": "bytes"
        },
        {
          "internalType": "bytes",
          "name": "extraData",
          "type": "bytes"
        }
      ],
      "name": "ccipBatchCallback",
      "outputs": [
        {
          "components": [
            {
              "components": [
                {
                  "internalType": "address",
                  "name": "target",
                  "type": "address"
                },
                {
                  "internalType": "bytes",
                  "name": "call",
                  "type": "bytes"
                },
                {
                  "internalType": "bytes",
                  "name": "data",
                  "type": "bytes"
                },
                {
                  "internalType": "uint256",
                  "name": "flags",
                  "type": "uint256"
                }
              ],
              "internalType": "struct CCIPBatcher.Lookup[]",
              "name": "lookups",
              "type": "tuple[]"
            },
            {
              "internalType": "string[]",
              "name": "gateways",
              "type": "string[]"
            }
          ],
          "internalType": "struct CCIPBatcher.Batch",
          "name": "batch",
          "type": "tuple"
        }
      ],
      "stateMutability": "view",
      "type": "function"
    },
    {
      "inputs": [
        {
          "internalType": "bytes",
          "name": "response",
          "type": "bytes"
        },
        {
          "internalType": "bytes",
          "name": "extraData",
          "type": "bytes"
        }
      ],
      "name": "ccipReadCallback",
      "outputs": [],
      "stateMutability": "view",
      "type": "function"
    },
    {
      "inputs": [
        {
          "internalType": "bytes",
          "name": "name",
          "type": "bytes"
        }
      ],
      "name": "findResolver",
      "outputs": [
        {
          "internalType": "address",
          "name": "",
          "type": "address"
        },
        {
          "internalType": "bytes32",
          "name": "",
          "type": "bytes32"
        },
        {
          "internalType": "uint256",
          "name": "",
          "type": "uint256"
        }
      ],
      "stateMutability": "view",
      "type": "function"
    },
    {
      "inputs": [],
      "name": "registry",
      "outputs": [
        {
          "internalType": "contract ENS",
          "name": "",
          "type": "address"
        }
      ],
      "stateMutability": "view",
      "type": "function"
    },
    {
      "inputs": [
        {
          "internalType": "bytes",
          "name": "name",
          "type": "bytes"
        }
      ],
      "name": "requireResolver",
      "outputs": [
        {
          "components": [
            {
              "internalType": "bytes",
              "name": "name",
              "type": "bytes"
            },
            {
              "internalType": "uint256",
              "name": "offset",
              "type": "uint256"
            },
            {
              "internalType": "bytes32",
              "name": "node",
              "type": "bytes32"
            },
            {
              "internalType": "address",
              "name": "resolver",
              "type": "address"
            },
            {
              "internalType": "bool",
              "name": "extended",
              "type": "bool"
            }
          ],
          "internalType": "struct AbstractUniversalResolver.ResolverInfo",
          "name": "info",
          "type": "tuple"
        }
      ],
      "stateMutability": "view",
      "type": "function"
    },
    {
      "inputs": [
        {
          "internalType": "bytes",
          "name": "name",
          "type": "bytes"
        },
        {
          "internalType": "bytes",
          "name": "data",
          "type": "bytes"
        }
      ],
      "name": "resolve",
      "outputs": [
        {
          "internalType": "bytes",
          "name": "",
          "type": "bytes"
        },
        {
          "internalType": "address",
          "name": "",
          "type": "address"
        }
      ],
      "stateMutability": "view",
      "type": "function"
    },
    {
      "inputs": [
        {
          "internalType": "bytes",
          "name": "response",
          "type": "bytes"
        },
        {
          "internalType": "bytes",
          "name": "extraData",
          "type": "bytes"
        }
      ],
      "name": "resolveBatchCallback",
      "outputs": [],
      "stateMutability": "view",
      "type": "function"
    },
    {
      "inputs": [
        {
          "internalType": "bytes",
          "name": "response",
          "type": "bytes"
        },
        {
          "internalType": "bytes",
          "name": "extraData",
          "type": "bytes"
        }
      ],
      "name": "resolveCallback",
      "outputs": [
        {
          "internalType": "bytes",
          "name": "",
          "type": "bytes"
        },
        {
          "internalType": "address",
          "name": "",
          "type": "address"
        }
      ],
      "stateMutability": "pure",
      "type": "function"
    },
    {
      "inputs": [
        {
          "internalType": "bytes",
          "name": "response",
          "type": "bytes"
        },
        {
          "internalType": "bytes",
          "name": "extraData",
          "type": "bytes"
        }
      ],
      "name": "resolveDirectCallback",
      "outputs": [],
      "stateMutability": "view",
      "type": "function"
    },
    {
      "inputs": [
        {
          "internalType": "bytes",
          "name": "response",
          "type": "bytes"
        },
        {
          "internalType": "bytes",
          "name": "",
          "type": "bytes"
        }
      ],
      "name": "resolveDirectCallbackError",
      "outputs": [],
      "stateMutability": "pure",
      "type": "function"
    },
    {
      "inputs": [
        {
          "internalType": "bytes",
          "name": "name",
          "type": "bytes"
        },
        {
          "internalType": "bytes",
          "name": "data",
          "type": "bytes"
        },
        {
          "internalType": "string[]",
          "name": "gateways",
          "type": "string[]"
        }
      ],
      "name": "resolveWithGateways",
      "outputs": [
        {
          "internalType": "bytes",
          "name": "result",
          "type": "bytes"
        },
        {
          "internalType": "address",
          "name": "resolver",
          "type": "address"
        }
      ],
      "stateMutability": "view",
      "type": "function"
    },
    {
      "inputs": [
        {
          "internalType": "address",
          "name": "resolver",
          "type": "address"
        },
        {
          "internalType": "bytes",
          "name": "name",
          "type": "bytes"
        },
        {
          "internalType": "bytes",
          "name": "data",
          "type": "bytes"
        },
        {
          "internalType": "string[]",
          "name": "gateways",
          "type": "string[]"
        }
      ],
      "name": "resolveWithResolver",
      "outputs": [
        {
          "internalType": "bytes",
          "name": "",
          "type": "bytes"
        }
      ],
      "stateMutability": "view",
      "type": "function"
    },
    {
      "inputs": [
        {
          "internalType": "bytes",
          "name": "lookupAddress",
          "type": "bytes"
        },
        {
          "internalType": "uint256",
          "name": "coinType",
          "type": "uint256"
        }
      ],
      "name": "reverse",
      "outputs": [
        {
          "internalType": "string",
          "name": "",
          "type": "string"
        },
        {
          "internalType": "address",
          "name": "",
          "type": "address"
        },
        {
          "internalType": "address",
          "name": "",
          "type": "address"
        }
      ],
      "stateMutability": "view",
      "type": "function"
    },
    {
      "inputs": [
        {
          "internalType": "bytes",
          "name": "response",
          "type": "bytes"
        },
        {
          "internalType": "bytes",
          "name": "extraData",
          "type": "bytes"
        }
      ],
      "name": "reverseAddressCallback",
      "outputs": [
        {
          "internalType": "string",
          "name": "primary",
          "type": "string"
        },
        {
          "internalType": "address",
          "name": "resolver",
          "type": "address"
        },
        {
          "internalType": "address",
          "name": "reverseResolver",
          "type": "address"
        }
      ],
      "stateMutability": "pure",
      "type": "function"
    },
    {
      "inputs": [
        {
          "internalType": "bytes",
          "name": "response",
          "type": "bytes"
        },
        {
          "internalType": "bytes",
          "name": "extraData",
          "type": "bytes"
        }
      ],
      "name": "reverseNameCallback",
      "outputs": [
        {
          "internalType": "string",
          "name": "primary",
          "type": "string"
        },
        {
          "internalType": "address",
          "name": "",
          "type": "address"
        },
        {
          "internalType": "address",
          "name": "",
          "type": "address"
        }
      ],
      "stateMutability": "view",
      "type": "function"
    },
    {
      "inputs": [
        {
          "internalType": "bytes",
          "name": "lookupAddress",
          "type": "bytes"
        },
        {
          "internalType": "uint256",
          "name": "coinType",
          "type": "uint256"
        },
        {
          "internalType": "string[]",
          "name": "gateways",
          "type": "string[]"
        }
      ],
      "name": "reverseWithGateways",
      "outputs": [
        {
          "internalType": "string",
          "name": "primary",
          "type": "string"
        },
        {
          "internalType": "address",
          "name": "resolver",
          "type": "address"
        },
        {
          "internalType": "address",
          "name": "reverseResolver",
          "type": "address"
        }
      ],
      "stateMutability": "view",
      "type": "function"
    },
    {
      "inputs": [
        {
          "internalType": "bytes4",
          "name": "interfaceId",
          "type": "bytes4"
        }
      ],
      "name": "supportsInterface",
      "outputs": [
        {
          "internalType": "bool",
          "name": "",
          "type": "bool"
        }
      ],
      "stateMutability": "view",
      "type": "function"
    }
  ],
  "transactionHash": "0x9cf411899e09d91b7ed7d44ba349125bab5b0c21d100257cdc7523f17944565e",
  "args": [
    "0xFe89cc7aBB2C4183683ab71653C4cdc9B02D44b7",
    "0x00000000000C2E074eC69A0dFb2997BA6C7d2e1e",
    "0xd1E3FAc3837b85437530B8B5244E4deF43219C04"
  ],
  "numDeployments": 1,
  "solcInputHash": "13a61253e11bf590d9dd0d2301fc6969",
  "bytecode": "0x60e060405234801561001057600080fd5b50604051614d94380380614d9483398101604081905261002f9161016c565b61c3506080526001600160a01b0381811660a0526040516302571be360e01b81527f91d1777781884d03a6757a803996e38de2a42967fb37eeaca72729271025a9e26004820152839185916000918416906302571be390602401602060405180830381865afa1580156100a6573d6000803e3d6000fd5b505050506040513d601f19601f820116820180604052508101906100ca91906101b9565b604051630f41a04d60e11b81526001600160a01b03848116600483015291925090821690631e83409a906024016020604051808303816000875af1158015610116573d6000803e3d6000fd5b505050506040513d601f19601f8201168201806040525081019061013a91906101dd565b5050506001600160a01b0390921660c052506101f6915050565b6001600160a01b038116811461016957600080fd5b50565b60008060006060848603121561018157600080fd5b835161018c81610154565b602085015190935061019d81610154565b60408501519092506101ae81610154565b809150509250925092565b6000602082840312156101cb57600080fd5b81516101d681610154565b9392505050565b6000602082840312156101ef57600080fd5b5051919050565b60805160a05160c051614b5a61023a6000396000818161025f01526110f601526000818161018301528181610b360152610c02015260006120590152614b5a6000f3fe608060405234801561001057600080fd5b50600436106101515760003560e01c80639061b923116100cd578063b4a8580111610081578063b7d6ca6411610066578063b7d6ca6414610353578063c285238a14610366578063ef46c0b81461038657600080fd5b8063b4a858011461032d578063b536af761461034057600080fd5b80639f28e99d116100b25780639f28e99d146102b5578063a1472844146102d5578063a1cbcbaf146102e857600080fd5b80639061b9231461028157806394fbfa87146102a257600080fd5b80634a3e399411610124578063575de75011610109578063575de750146102255780635d78a217146102475780637b1039991461025a57600080fd5b80634a3e3994146101f257806355391bb81461021257600080fd5b806301ffc9a71461015657806302cf25781461017e5780633c6cbda8146101ca578063491fc4f9146101df575b600080fd5b61016961016436600461332d565b610399565b60405190151581526020015b60405180910390f35b6101a57f000000000000000000000000000000000000000000000000000000000000000081565b60405173ffffffffffffffffffffffffffffffffffffffff9091168152602001610175565b6101dd6101d836600461338c565b610432565b005b6101dd6101ed36600461338c565b610477565b61020561020036600461365c565b61073d565b604051610175919061377b565b6101dd61022036600461378e565b6108a8565b61023861023336600461338c565b61095e565b604051610175939291906137fc565b61023861025536600461383c565b610b29565b6101a57f000000000000000000000000000000000000000000000000000000000000000081565b61029461028f36600461338c565b610bf5565b604051610175929190613888565b6102386102b036600461338c565b610cbe565b6102c86102c33660046138c0565b610e08565b6040516101759190613af7565b6102946102e3366004613c11565b611011565b6102fb6102f6366004613cb1565b6110ec565b6040805173ffffffffffffffffffffffffffffffffffffffff9094168452602084019290925290820152606001610175565b61029461033b36600461338c565b61112a565b6102c861034e36600461338c565b611182565b610238610361366004613ce6565b6114a4565b610379610374366004613cb1565b6115f0565b6040516101759190613d5e565b6101dd610394366004613dc6565b61165a565b60007f6cd2d09b000000000000000000000000000000000000000000000000000000007fffffffff000000000000000000000000000000000000000000000000000000008316148061042c57507f01ffc9a7000000000000000000000000000000000000000000000000000000007fffffffff000000000000000000000000000000000000000000000000000000008316145b92915050565b61047184848080601f01602080910402602001604051908101604052809392919081815260200183838082843760009201919091525061172c92505050565b50505050565b6000610485848601866138c0565b519050600080808061049986880188613e3d565b9350935093509350606083156105ad576000865167ffffffffffffffff8111156104c5576104c561341f565b6040519080825280602002602001820160405280156104f857816020015b60608152602001906001900390816104e35790505b50905060005b875181101561058457600088828151811061051b5761051b613ea6565b6020026020010151905060008160400151905088801561054057506060820151600e16155b1561055c57808060200190518101906105599190613f25565b90505b8084848151811061056f5761056f613ea6565b602090810291909101015250506001016104fe565b50806040516020016105969190613f5a565b604051602081830303815290604052915050610697565b6000866000815181106105c2576105c2613ea6565b602002602001015190508060400151915060048160600151166000146105ea57815160208301fd5b606081015160021615610605576106008261172c565b610678565b815160000361067857806020015161061c90613fdd565b6040517f7b1c461b0000000000000000000000000000000000000000000000000000000081527fffffffff0000000000000000000000000000000000000000000000000000000090911660048201526024015b60405180910390fd5b851561069557818060200190518101906106929190613f25565b91505b505b610731308483856040516024016106af929190614049565b604080517fffffffffffffffffffffffffffffffffffffffffffffffffffffffffffffffe08184030181529190526020810180517bffffffffffffffffffffffffffffffffffffffffffffffffffffffff167fffffffff00000000000000000000000000000000000000000000000000000000909316929092179091526117bc565b50505050505050505050565b6040805160a0810182526060808252600060208301819052928201839052818101839052608082019290925286868080601f016020809104026020016040519081016040528093929190818152602001838380828437600092019190915250505090825250604080516020601f89018190048102820181019092528781526107df918990899081908401838280828437600092018290525092506117e4915050565b604082015273ffffffffffffffffffffffffffffffffffffffff881660608201526108098161181e565b61089d8186868080601f016020809104026020016040519081016040528093929190818152602001838380828437600092019190915250506040805173ffffffffffffffffffffffffffffffffffffffff8f1660208201528993507fb4a85801000000000000000000000000000000000000000000000000000000009250015b60405160208183030381529060405261194c565b509695505050505050565b60008080806108b98587018761406e565b93509350935093508651600003610920576040517f7b1c461b0000000000000000000000000000000000000000000000000000000081527fffffffff000000000000000000000000000000000000000000000000000000008416600482015260240161066f565b831561093d578680602001905181019061093a9190613f25565b96505b610955308389846040516024016106af929190614049565b50505050505050565b60606000808061097085870187614130565b905061097e87890189613cb1565b935083516000036109a957606001516040805160208101909152600080825290945092509050610b1f565b60006109b761037486611e28565b9050610b1c81603c846020015114610a6857826040015184602001516040516024016109ed929190918252602082015260400190565b604080517fffffffffffffffffffffffffffffffffffffffffffffffffffffffffffffffe08184030181529190526020810180517bffffffffffffffffffffffffffffffffffffffffffffffffffffffff167ff1cb7e0600000000000000000000000000000000000000000000000000000000179052610af6565b8260400151604051602401610a7f91815260200190565b604080517fffffffffffffffffffffffffffffffffffffffffffffffffffffffffffffffe08184030181529190526020810180517bffffffffffffffffffffffffffffffffffffffffffffffffffffffff167f3b3b57de000000000000000000000000000000000000000000000000000000001790525b84604001516394fbfa8760e01b868a8760600151604051602001610889939291906141ca565b50505b9450945094915050565b6060600080610be58686867f000000000000000000000000000000000000000000000000000000000000000073ffffffffffffffffffffffffffffffffffffffff1663093a86d36040518163ffffffff1660e01b8152600401600060405180830381865afa158015610b9f573d6000803e3d6000fd5b505050506040513d6000823e601f3d9081017fffffffffffffffffffffffffffffffffffffffffffffffffffffffffffffffe016820160405261036191908101906142ad565b9250925092505b93509350939050565b60606000610cb1868686867f000000000000000000000000000000000000000000000000000000000000000073ffffffffffffffffffffffffffffffffffffffff1663093a86d36040518163ffffffff1660e01b8152600401600060405180830381865afa158015610c6b573d6000803e3d6000fd5b505050506040513d6000823e601f3d9081017fffffffffffffffffffffffffffffffffffffffffffffffffffffffffffffffe01682016040526102e391908101906142ad565b9150915094509492505050565b6060600080610d046040518060800160405280606081526020016000815260200160608152602001600073ffffffffffffffffffffffffffffffffffffffff1681525090565b610d10858701876142e2565b602083015191965094509091506060907fffffffffffffffffffffffffffffffffffffffffffffffffffffffffffffffc401610da0576000610d54898b018b61435f565b6040517fffffffffffffffffffffffffffffffffffffffff000000000000000000000000606083901b166020820152909150603401604051602081830303815290604052915050610daf565b610dac888a018a613cb1565b90505b8151610dbb9082611fd0565b610df55784816040517fef9c03ce00000000000000000000000000000000000000000000000000000000815260040161066f929190614049565b8160600151925050509450945094915050565b604080518082019091526060808252602082015260005b82515181101561100357600083600001518281518110610e4157610e41613ea6565b602002602001015190506020601017816060015116600003610f19576000610e6c8260000151611ff5565b610e77576010610e7a565b60205b9050825b855151811015610f1657826000015173ffffffffffffffffffffffffffffffffffffffff1686600001518281518110610eb957610eb9613ea6565b60200260200101516000015173ffffffffffffffffffffffffffffffffffffffff1603610f0e578186600001518281518110610ef757610ef7613ea6565b602002602001015160600181815117915081815250505b600101610e7e565b50505b600060208260600151166000149050600080610f3f831585600001518660200151612037565b9150915081158015610f9a57507f556f183000000000000000000000000000000000000000000000000000000000610f7682613fdd565b7fffffffff0000000000000000000000000000000000000000000000000000000016145b15610faf576060840180516001179052610ff0565b6060840180516040179052828015610fc657508051155b610fdb5781610fdb5760608401805160021790525b8051600003610ff05760608401805160081790525b6040909301929092525050600101610e1f565b5061100d826120db565b5090565b606060008061105588888080601f0160208091040260200160405190810160405280939291908181526020018383808284376000920191909152506115f092505050565b90506110e18187878080601f01602080910402602001604051908101604052809392919081815260200183838082843760009201919091525050505060608401516040805173ffffffffffffffffffffffffffffffffffffffff909216602083015288917fb4a85801000000000000000000000000000000000000000000000000000000009101610889565b509550959350505050565b600080600061111d7f0000000000000000000000000000000000000000000000000000000000000000856000612352565b9250925092509193909250565b60606000858561113c8587018761435f565b82828080601f016020809104026020016040519081016040528093929190818152602001838380828437600092019190915250929c939b50929950505050505050505050565b60408051808201909152606080825260208201526000806111a58688018861437c565b9150915080518251146111e4576040517f4a5c31ea00000000000000000000000000000000000000000000000000000000815260040160405180910390fd5b6111f0848601866138c0565b92506000805b8451518110156114555760008560000151828151811061121857611218613ea6565b60200260200101519050604081606001511660000361144c57835183101561144057600084848151811061124e5761124e613ea6565b6020026020010151905085848151811061126a5761126a613ea6565b60200260200101511561128757606082018051604417905261143a565b6000611296836040015161246f565b90506000816000015173ffffffffffffffffffffffffffffffffffffffff1682606001518484608001516040516024016112d1929190614049565b604080517fffffffffffffffffffffffffffffffffffffffffffffffffffffffffffffffe08184030181529181526020820180517bffffffffffffffffffffffffffffffffffffffffffffffffffffffff167fffffffff0000000000000000000000000000000000000000000000000000000090941693909317909252905161135a919061443d565b600060405180830381855afa9150503d8060008114611395576040519150601f19603f3d011682016040523d82523d6000602084013e61139a565b606091505b509350905080806113f557507f556f1830000000000000000000000000000000000000000000000000000000006113d084613fdd565b7fffffffff000000000000000000000000000000000000000000000000000000001614155b1561143757606084018051604017905280158061141157508251155b156114225760608401805160021790525b82516000036114375760608401805160081790525b50505b60408201525b61144983614488565b92505b506001016111f6565b5081518114611490576040517f4a5c31ea00000000000000000000000000000000000000000000000000000000815260040160405180910390fd5b611499846120db565b505050949350505050565b606060008060006114f76103746114f28a8a8080601f0160208091040260200160405190810160405280939291908181526020018383808284376000920191909152508c92506124b4915050565b611e28565b90506115e581826040015160405160240161151491815260200190565b60405160208183030381529060405263691f343160e01b6020820180517bffffffffffffffffffffffffffffffffffffffffffffffffffffffff83818316178352505050508763575de75060e01b60405180608001604052808e8e8080601f01602080910402602001604051908101604052809392919081815260200183838082843760009201919091525050509082525060208082018e905260408083018e905260608a81015173ffffffffffffffffffffffffffffffffffffffff1693019290925290516108899291016144c0565b509450945094915050565b6040805160a081018252606080825260006020830181905292820183905281018290526080810191909152611624826110ec565b6020840152604083015273ffffffffffffffffffffffffffffffffffffffff1660608201528181526116558161181e565b919050565b60008180602001905181019061167091906144e9565b905061172781600001518260200151858460400151604051602401611696929190614049565b604080517fffffffffffffffffffffffffffffffffffffffffffffffffffffffffffffffe08184030181529190526020810180517bffffffffffffffffffffffffffffffffffffffffffffffffffffffff167fffffffff00000000000000000000000000000000000000000000000000000000909316929092179091526060840151608085015160a0860151612632565b505050565b7f7b1c461b0000000000000000000000000000000000000000000000000000000061175682613fdd565b7fffffffff00000000000000000000000000000000000000000000000000000000160361178557805160208201fd5b806040517f95c0c75200000000000000000000000000000000000000000000000000000000815260040161066f919061377b565b50565b6117e08282600060e01b600060e01b60405180602001604052806000815250612632565b5050565b60006117f08383612903565b92509050801561042c5761181761180784846117e4565b8260009182526020526040902090565b9392505050565b606081015173ffffffffffffffffffffffffffffffffffffffff166118725780516040517f77209fe800000000000000000000000000000000000000000000000000000000815261066f919060040161377b565b6118a081606001517f9061b9230000000000000000000000000000000000000000000000000000000061291f565b156118af576001608082015250565b6020810151156118ee5780516040517f77209fe800000000000000000000000000000000000000000000000000000000815261066f919060040161377b565b806060015173ffffffffffffffffffffffffffffffffffffffff163b6000036117b957805160608201516040517f1e9535f200000000000000000000000000000000000000000000000000000000815261066f929190600401613888565b61197a85606001517f582de3e70000000000000000000000000000000000000000000000000000000061291f565b8015611a9557507fac9650d8000000000000000000000000000000000000000000000000000000006119ab85613fdd565b7fffffffff0000000000000000000000000000000000000000000000000000000016141580611a95575084608001518015611a95575060608501516040517f582de3e70000000000000000000000000000000000000000000000000000000081527f96b62db800000000000000000000000000000000000000000000000000000000600482015273ffffffffffffffffffffffffffffffffffffffff9091169063582de3e790602401602060405180830381865afa158015611a71573d6000803e3d6000fd5b505050506040513d601f19601f82011682018060405250810190611a9591906145ca565b15611bbc57611bb785606001518660800151611ab15785611b3c565b8651604051611ac591908890602401614049565b604080517fffffffffffffffffffffffffffffffffffffffffffffffffffffffffffffffe08184030181529190526020810180517bffffffffffffffffffffffffffffffffffffffffffffffffffffffff167f9061b923000000000000000000000000000000000000000000000000000000001790525b60808801517f55391bb800000000000000000000000000000000000000000000000000000000907f3c6cbda80000000000000000000000000000000000000000000000000000000090611b8e8a613fdd565b8888604051602001611ba394939291906145e7565b604051602081830303815290604052612632565b611e21565b606060007fac9650d800000000000000000000000000000000000000000000000000000000611bea87613fdd565b7fffffffff00000000000000000000000000000000000000000000000000000000161490508015611c4757611c2d866004808951611c28919061465c565b6129ee565b806020019051810190611c40919061466f565b9150611c93565b60408051600180825281830190925290816020015b6060815260200190600190039081611c5c5790505091508582600081518110611c8757611c87613ea6565b60200260200101819052505b866080015115611d785760005b8251811015611d76578760000151838281518110611cc057611cc0613ea6565b6020026020010151604051602401611cd9929190614049565b604080517fffffffffffffffffffffffffffffffffffffffffffffffffffffffffffffffe08184030181529190526020810180517bffffffffffffffffffffffffffffffffffffffffffffffffffffffff167f9061b923000000000000000000000000000000000000000000000000000000001790528351849083908110611d6357611d63613ea6565b6020908102919091010152600101611ca0565b505b610955303073ffffffffffffffffffffffffffffffffffffffff16639f28e99d611da78b60600151878b612a44565b604051602401611db79190613af7565b604051602081830303815290604052915060e01b6020820180517bffffffffffffffffffffffffffffffffffffffffffffffffffffffff838183161783525050505063491fc4f960e01b600060e01b8b60800151868a8a604051602001611ba3949392919061471b565b5050505050565b80516060906000819003611e52575050604080518082019091526001815260006020820152919050565b8060020167ffffffffffffffff811115611e6e57611e6e61341f565b6040519080825280601f01601f191660200182016040528015611e98576020820181803683370190505b509150602082018060005b83811015611f73576000868281518110611ebf57611ebf613ea6565b01602001517fff000000000000000000000000000000000000000000000000000000000000001690507f2e00000000000000000000000000000000000000000000000000000000000000819003611f6057611f1a8484612b78565b935083600003611f5857866040517f9a4c3e3b00000000000000000000000000000000000000000000000000000000815260040161066f919061377b565b839250611f6a565b6001830192508083525b50600101611ea3565b50611f7e8282612b78565b915081600003611fbc57846040517f9a4c3e3b00000000000000000000000000000000000000000000000000000000815260040161066f919061377b565b60008253601f840182038452505050919050565b6000815183511480156118175750508051602091820120825192909101919091201490565b60003073ffffffffffffffffffffffffffffffffffffffff83160361201c57506001919050565b6113885a6000806000808786fa50815a909103109392505050565b600060608373ffffffffffffffffffffffffffffffffffffffff168561207d577f000000000000000000000000000000000000000000000000000000000000000061207f565b5a5b8460405161208d919061443d565b6000604051808303818686fa925050503d80600081146120c9576040519150601f19603f3d011682016040523d82523d6000602084013e6120ce565b606091505b5090969095509350505050565b80515160009067ffffffffffffffff8111156120f9576120f961341f565b60405190808252806020026020018201604052801561216457816020015b6121516040518060600160405280600073ffffffffffffffffffffffffffffffffffffffff16815260200160608152602001606081525090565b8152602001906001900390816121175790505b5090506000805b8351518110156122285760008460000151828151811061218d5761218d613ea6565b60200260200101519050604081606001511660000361221f5760006121b5826040015161246f565b90506040518060600160405280826000015173ffffffffffffffffffffffffffffffffffffffff16815260200182602001518152602001826040015181525085858061220090614488565b96508151811061221257612212613ea6565b6020026020010181905250505b5060010161216b565b50801561172757808252308360200151836040516024016122499190614766565b604080517fffffffffffffffffffffffffffffffffffffffffffffffffffffffffffffffe0818403018152918152602080830180517bffffffffffffffffffffffffffffffffffffffffffffffffffffffff167fa780bab60000000000000000000000000000000000000000000000000000000017905290517fb536af7600000000000000000000000000000000000000000000000000000000916122f091899101613af7565b604080517fffffffffffffffffffffffffffffffffffffffffffffffffffffffffffffffe0818403018152908290527f556f183000000000000000000000000000000000000000000000000000000000825261066f9594939291600401614824565b60008060008060006123648787612903565b9092509050811561246457600080600061237f8b8b86612352565b925092509250612399828660009182526020526040902090565b6040517f0178b8bf0000000000000000000000000000000000000000000000000000000081526004810182905290975073ffffffffffffffffffffffffffffffffffffffff8c1690630178b8bf90602401602060405180830381865afa158015612407573d6000803e3d6000fd5b505050506040513d601f19601f8201168201806040525081019061242b91906148ad565b975073ffffffffffffffffffffffffffffffffffffffff881661245057828782612454565b87878a5b9750975097505050505050610bec565b505093509350939050565b6040805160a081018252600080825260606020830181905292820183905282820152608081019190915261042c6124af836004808651611c28919061465c565b612bed565b606082516000036124f1576040517f7138356f00000000000000000000000000000000000000000000000000000000815260040160405180910390fd5b6124fa83612c7e565b7f2e00000000000000000000000000000000000000000000000000000000000000603c8414612579576380000000841461253e57612539846001612ce7565b6125b0565b6040518060400160405280600781526020017f64656661756c74000000000000000000000000000000000000000000000000008152506125b0565b6040518060400160405280600481526020017f61646472000000000000000000000000000000000000000000000000000000008152505b7f2e000000000000000000000000000000000000000000000000000000000000006040518060400160405280600781526020017f726576657273650000000000000000000000000000000000000000000000000081525060405160200161261b9594939291906148ca565b604051602081830303815290604052905092915050565b60008061264861264188611ff5565b8888612037565b91509150811580156126a357507f556f18300000000000000000000000000000000000000000000000000000000061267f82613fdd565b7fffffffff0000000000000000000000000000000000000000000000000000000016145b156127b95760006126b38261246f565b90508773ffffffffffffffffffffffffffffffffffffffff16816000015173ffffffffffffffffffffffffffffffffffffffff16036127b757308160200151826040015163ef46c0b860e01b6040518060c001604052808d73ffffffffffffffffffffffffffffffffffffffff16815260200186606001517bffffffffffffffffffffffffffffffffffffffffffffffffffffffff19168152602001866080015181526020018b7bffffffffffffffffffffffffffffffffffffffffffffffffffffffff191681526020018a7bffffffffffffffffffffffffffffffffffffffffffffffffffffffff19168152602001898152506040516020016122f09190614967565b505b6000826127c657846127c8565b855b90507fffffffff000000000000000000000000000000000000000000000000000000008116156128ed573073ffffffffffffffffffffffffffffffffffffffff1681838660405160240161281d929190614049565b604080517fffffffffffffffffffffffffffffffffffffffffffffffffffffffffffffffe08184030181529181526020820180517bffffffffffffffffffffffffffffffffffffffffffffffffffffffff167fffffffff000000000000000000000000000000000000000000000000000000009094169390931790925290516128a6919061443d565b600060405180830381855afa9150503d80600081146128e1576040519150601f19603f3d011682016040523d82523d6000602084013e6128e6565b606091505b5090935091505b82156128fb57815160208301f35b815160208301fd5b60008061291284846001612dbe565b5091969095509350505050565b604080517fffffffff000000000000000000000000000000000000000000000000000000008316602480830191909152825180830390910181526044909101909152602080820180517bffffffffffffffffffffffffffffffffffffffffffffffffffffffff167f01ffc9a700000000000000000000000000000000000000000000000000000000178152825160009392849283928392918391908a617530fa92503d915060005190508280156129d7575060208210155b80156129e35750600081115b979650505050505050565b60608167ffffffffffffffff811115612a0957612a0961341f565b6040519080825280601f01601f191660200182016040528015612a33576020820181803683370190505b509050611817848483600086612f4d565b60408051808201909152606080825260208201526000835167ffffffffffffffff811115612a7457612a7461341f565b604051908082528060200260200182016040528015612ae657816020015b612ad36040518060800160405280600073ffffffffffffffffffffffffffffffffffffffff1681526020016060815260200160608152602001600081525090565b815260200190600190039081612a925790505b50905060005b8451811015612b5b576000828281518110612b0957612b09613ea6565b602090810291909101015173ffffffffffffffffffffffffffffffffffffffff881681528651909150869083908110612b4457612b44613ea6565b602090810291909101810151910152600101612aec565b506040805180820190915290815260208101929092525092915050565b600080612b85848461465c565b905060ff811115612bc457806001850120600052612bb26000856002612bab9190614a62565b6040612f85565b605b6001850153605d60428501535060425b8015612be65780845380612bd9856001614a62565b612be39190614a62565b91505b5092915050565b6040805160a081018252600080825260606020830181905292820183905282820152608081019190915281806020019051810190612c2b9190614a75565b60808601527fffffffff000000000000000000000000000000000000000000000000000000001660608501526040840152602083015273ffffffffffffffffffffffffffffffffffffffff168152919050565b805160609060011b8067ffffffffffffffff811115612c9f57612c9f61341f565b6040519080825280601f01601f191660200182016040528015612cc9576020820181803683370190505b5091506020838101908301612cdf828285612f85565b505050919050565b606082600060805b60088110612d20576001811b831015612d1357612d0c8183614a62565b9150612d18565b91821c915b60011c612cef565b50838015612d2e5750601082105b15612d4157612d3e600482614a62565b90505b6000612d52600283901c604061465c565b90508067ffffffffffffffff811115612d6d57612d6d61341f565b6040519080825280601f01601f191660200182016040528015612d97576020820181803683370190505b509350600086831b600052602085019050612db460008284612f85565b5050505092915050565b600080600080612dce8787613007565b93509150848015612de257508160ff166042145b8015612e50575086612df5876001614a62565b81518110612e0557612e05613ea6565b6020910101517fff00000000000000000000000000000000000000000000000000000000000000167f5b00000000000000000000000000000000000000000000000000000000000000145b8015612ebe575086612e6360018561465c565b81518110612e7357612e73613ea6565b6020910101517fff00000000000000000000000000000000000000000000000000000000000000167f5d00000000000000000000000000000000000000000000000000000000000000145b15612f3057612ee287612ed2886002614a62565b612edd60018761465c565b61306c565b9094509050801580612ef2575083155b15612f2b57866040517fba4adc2300000000000000000000000000000000000000000000000000000000815260040161066f919061377b565b612f44565b60ff821615612f4457816021878901012093505b93509350935093565b612f6085612f5b8387614a62565b6130e5565b612f6e83612f5b8385614a62565b60208486018101908385010161095581838561312d565b8181015b808310156104715783516101005b8285108015612fa65750600081115b15612ffa577ffffffffffffffffffffffffffffffffffffffffffffffffffffffffffffffffc01600f82821c16600a8110612fe45780605701612fe9565b806030015b905080865350600190940193612f97565b5050602084019350612f89565b8181016020015160001a8082016001018161302657835181141561302c565b83518110155b1561306557836040517fba4adc2300000000000000000000000000000000000000000000000000000000815260040161066f919061377b565b9250929050565b60008083831015613082575060009050806130dd565b600061308e858561465c565b9050604081118061309f5750855184115b156130b15750600091508190506130dd565b8585016020016130c3816000846131b3565b92506001820160011c6020036000518160031b1c94505050505b935093915050565b81518111156117e05781516040517f8a3c1cfb00000000000000000000000000000000000000000000000000000000815261066f918391600401918252602082015260400190565b5b601f81111561316c5781518352602092830192909101907fffffffffffffffffffffffffffffffffffffffffffffffffffffffffffffffe00161312e565b80156117275790518251600160209390930360031b9290921b7fffffffffffffffffffffffffffffffffffffffffffffffffffffffffffffffff0180199091169116179052565b600061326d565b811a6000602f8211603a831016156131f557507fffffffffffffffffffffffffffffffffffffffffffffffffffffffffffffffd0810161042c565b6047821060408311161561322c57507fffffffffffffffffffffffffffffffffffffffffffffffffffffffffffffffc9810161042c565b6067821060608311161561326357507fffffffffffffffffffffffffffffffffffffffffffffffffffffffffffffffa9810161042c565b5061010092915050565b506001838201828216156132a957613287600086516131ba565b80855360018601955060018501945060ff8111156132a757600092508195505b505b808510156132f75784516132be6001826131ba565b6132c96000836131ba565b60041b17905060ff8111156132e25760009250506132f7565b808553506002850194506001840193506132a9565b509392505050565b7fffffffff00000000000000000000000000000000000000000000000000000000811681146117b957600080fd5b60006020828403121561333f57600080fd5b8135611817816132ff565b60008083601f84011261335c57600080fd5b50813567ffffffffffffffff81111561337457600080fd5b60208301915083602082850101111561306557600080fd5b600080600080604085870312156133a257600080fd5b843567ffffffffffffffff8111156133b957600080fd5b6133c58782880161334a565b909550935050602085013567ffffffffffffffff8111156133e557600080fd5b6133f18782880161334a565b95989497509550505050565b73ffffffffffffffffffffffffffffffffffffffff811681146117b957600080fd5b7f4e487b7100000000000000000000000000000000000000000000000000000000600052604160045260246000fd5b6040805190810167ffffffffffffffff811182821017156134715761347161341f565b60405290565b6040516080810167ffffffffffffffff811182821017156134715761347161341f565b60405160c0810167ffffffffffffffff811182821017156134715761347161341f565b604051601f82017fffffffffffffffffffffffffffffffffffffffffffffffffffffffffffffffe016810167ffffffffffffffff811182821017156135045761350461341f565b604052919050565b600067ffffffffffffffff8211156135265761352661341f565b5060051b60200190565b600067ffffffffffffffff82111561354a5761354a61341f565b50601f017fffffffffffffffffffffffffffffffffffffffffffffffffffffffffffffffe01660200190565b600082601f83011261358757600080fd5b81356020830160006135a061359b84613530565b6134bd565b90508281528583830111156135b457600080fd5b82826020830137600092810160200192909252509392505050565b600082601f8301126135e057600080fd5b81356135ee61359b8261350c565b8082825260208201915060208360051b86010192508583111561361057600080fd5b602085015b8381101561365257803567ffffffffffffffff81111561363457600080fd5b613643886020838a0101613576565b84525060209283019201613615565b5095945050505050565b6000806000806000806080878903121561367557600080fd5b8635613680816133fd565b9550602087013567ffffffffffffffff81111561369c57600080fd5b6136a889828a0161334a565b909650945050604087013567ffffffffffffffff8111156136c857600080fd5b6136d489828a0161334a565b909450925050606087013567ffffffffffffffff8111156136f457600080fd5b61370089828a016135cf565b9150509295509295509295565b60005b83811015613728578181015183820152602001613710565b50506000910152565b6000815180845261374981602086016020860161370d565b601f017fffffffffffffffffffffffffffffffffffffffffffffffffffffffffffffffe0169290920160200192915050565b6020815260006118176020830184613731565b6000806000604084860312156137a357600080fd5b833567ffffffffffffffff8111156137ba57600080fd5b6137c686828701613576565b935050602084013567ffffffffffffffff8111156137e357600080fd5b6137ef8682870161334a565b9497909650939450505050565b60608152600061380f6060830186613731565b73ffffffffffffffffffffffffffffffffffffffff94851660208401529290931660409091015292915050565b60008060006040848603121561385157600080fd5b833567ffffffffffffffff81111561386857600080fd5b6138748682870161334a565b909790965060209590950135949350505050565b60408152600061389b6040830185613731565b905073ffffffffffffffffffffffffffffffffffffffff831660208301529392505050565b6000602082840312156138d257600080fd5b813567ffffffffffffffff8111156138e957600080fd5b8201604081850312156138fb57600080fd5b61390361344e565b813567ffffffffffffffff81111561391a57600080fd5b8201601f8101861361392b57600080fd5b803561393961359b8261350c565b8082825260208201915060208360051b85010192508883111561395b57600080fd5b602084015b83811015613a4357803567ffffffffffffffff81111561397f57600080fd5b85016080818c037fffffffffffffffffffffffffffffffffffffffffffffffffffffffffffffffe00112156139b357600080fd5b6139bb613477565b60208201356139c9816133fd565b8152604082013567ffffffffffffffff8111156139e557600080fd5b6139f48d602083860101613576565b602083015250606082013567ffffffffffffffff811115613a1457600080fd5b613a238d602083860101613576565b604083015250608091909101356060820152835260209283019201613960565b508452505050602082013567ffffffffffffffff811115613a6357600080fd5b613a6f868285016135cf565b602083015250949350505050565b600082825180855260208501945060208160051b8301016020850160005b83811015613aeb577fffffffffffffffffffffffffffffffffffffffffffffffffffffffffffffffe0858403018852613ad5838351613731565b6020988901989093509190910190600101613a9b565b50909695505050505050565b6020815260006060820183516040602085015281815180845260808601915060808160051b870101935060208301925060005b81811015613bcb577fffffffffffffffffffffffffffffffffffffffffffffffffffffffffffffff80878603018352835173ffffffffffffffffffffffffffffffffffffffff8151168652602081015160806020880152613b8e6080880182613731565b905060408201518782036040890152613ba78282613731565b60609384015198909301979097525094506020938401939290920191600101613b2a565b5050505060208401517fffffffffffffffffffffffffffffffffffffffffffffffffffffffffffffffe0848303016040850152613c088282613a7d565b95945050505050565b600080600080600060608688031215613c2957600080fd5b853567ffffffffffffffff811115613c4057600080fd5b613c4c8882890161334a565b909650945050602086013567ffffffffffffffff811115613c6c57600080fd5b613c788882890161334a565b909450925050604086013567ffffffffffffffff811115613c9857600080fd5b613ca4888289016135cf565b9150509295509295909350565b600060208284031215613cc357600080fd5b813567ffffffffffffffff811115613cda57600080fd5b612be384828501613576565b60008060008060608587031215613cfc57600080fd5b843567ffffffffffffffff811115613d1357600080fd5b613d1f8782880161334a565b90955093505060208501359150604085013567ffffffffffffffff811115613d4657600080fd5b613d52878288016135cf565b91505092959194509250565b602081526000825160a06020840152613d7a60c0840182613731565b9050602084015160408401526040840151606084015273ffffffffffffffffffffffffffffffffffffffff60608501511660808401526080840151151560a08401528091505092915050565b60008060408385031215613dd957600080fd5b823567ffffffffffffffff811115613df057600080fd5b613dfc85828601613576565b925050602083013567ffffffffffffffff811115613e1957600080fd5b613e2585828601613576565b9150509250929050565b80151581146117b957600080fd5b60008060008060808587031215613e5357600080fd5b8435613e5e81613e2f565b93506020850135613e6e81613e2f565b92506040850135613e7e816132ff565b9150606085013567ffffffffffffffff811115613e9a57600080fd5b613d5287828801613576565b7f4e487b7100000000000000000000000000000000000000000000000000000000600052603260045260246000fd5b6000613ee361359b84613530565b9050828152838383011115613ef757600080fd5b61181783602083018461370d565b600082601f830112613f1657600080fd5b61181783835160208501613ed5565b600060208284031215613f3757600080fd5b815167ffffffffffffffff811115613f4e57600080fd5b612be384828501613f05565b6000602082016020835280845180835260408501915060408160051b86010192506020860160005b82811015613fd1577fffffffffffffffffffffffffffffffffffffffffffffffffffffffffffffffc0878603018452613fbc858351613731565b94506020938401939190910190600101613f82565b50929695505050505050565b805160208201517fffffffff00000000000000000000000000000000000000000000000000000000811691906004821015614042577fffffffff00000000000000000000000000000000000000000000000000000000808360040360031b1b82161692505b5050919050565b60408152600061405c6040830185613731565b8281036020840152613c088185613731565b6000806000806080858703121561408457600080fd5b843561408f81613e2f565b93506020850135613e6e816132ff565b6000608082840312156140b157600080fd5b6140b9613477565b9050813567ffffffffffffffff8111156140d257600080fd5b6140de84828501613576565b82525060208281013590820152604082013567ffffffffffffffff81111561410557600080fd5b614111848285016135cf565b6040830152506060820135614125816133fd565b606082015292915050565b60006020828403121561414257600080fd5b813567ffffffffffffffff81111561415957600080fd5b612be38482850161409f565b600081516080845261417a6080850182613731565b9050602083015160208501526040830151848203604086015261419d8282613a7d565b91505073ffffffffffffffffffffffffffffffffffffffff60608401511660608501528091505092915050565b6060815260006141dd6060830186614165565b82810360208401526141ef8186613731565b91505073ffffffffffffffffffffffffffffffffffffffff83166040830152949350505050565b600082601f83011261422757600080fd5b815161423561359b8261350c565b8082825260208201915060208360051b86010192508583111561425757600080fd5b602085015b8381101561365257805167ffffffffffffffff81111561427b57600080fd5b8601603f8101881361428c57600080fd5b61429e88602083015160408401613ed5565b8452506020928301920161425c565b6000602082840312156142bf57600080fd5b815167ffffffffffffffff8111156142d657600080fd5b612be384828501614216565b6000806000606084860312156142f757600080fd5b833567ffffffffffffffff81111561430e57600080fd5b61431a8682870161409f565b935050602084013567ffffffffffffffff81111561433757600080fd5b61434386828701613576565b9250506040840135614354816133fd565b809150509250925092565b60006020828403121561437157600080fd5b8135611817816133fd565b6000806040838503121561438f57600080fd5b823567ffffffffffffffff8111156143a657600080fd5b8301601f810185136143b757600080fd5b80356143c561359b8261350c565b8082825260208201915060208360051b8501019250878311156143e757600080fd5b6020840193505b8284101561441257833561440181613e2f565b8252602093840193909101906143ee565b9450505050602083013567ffffffffffffffff81111561443157600080fd5b613e25858286016135cf565b6000825161444f81846020870161370d565b9190910192915050565b7f4e487b7100000000000000000000000000000000000000000000000000000000600052601160045260246000fd5b60007fffffffffffffffffffffffffffffffffffffffffffffffffffffffffffffffff82036144b9576144b9614459565b5060010190565b6020815260006118176020830184614165565b8051611655816133fd565b8051611655816132ff565b6000602082840312156144fb57600080fd5b815167ffffffffffffffff81111561451257600080fd5b820160c0818503121561452457600080fd5b61452c61349a565b614535826144d3565b8152614543602083016144de565b6020820152604082015167ffffffffffffffff81111561456257600080fd5b61456e86828501613f05565b604083015250614580606083016144de565b6060820152614591608083016144de565b608082015260a082015167ffffffffffffffff8111156145b057600080fd5b6145bc86828501613f05565b60a083015250949350505050565b6000602082840312156145dc57600080fd5b815161181781613e2f565b84151581527fffffffff00000000000000000000000000000000000000000000000000000000841660208201527fffffffff00000000000000000000000000000000000000000000000000000000831660408201526080606082015260006146526080830184613731565b9695505050505050565b8181038181111561042c5761042c614459565b60006020828403121561468157600080fd5b815167ffffffffffffffff81111561469857600080fd5b8201601f810184136146a957600080fd5b80516146b761359b8261350c565b8082825260208201915060208360051b8501019250868311156146d957600080fd5b602084015b8381101561089d57805167ffffffffffffffff8111156146fd57600080fd5b61470c89602083890101613f05565b845250602092830192016146de565b841515815283151560208201527fffffffff00000000000000000000000000000000000000000000000000000000831660408201526080606082015260006146526080830184613731565b6000602082016020835280845180835260408501915060408160051b86010192506020860160005b82811015613fd1577fffffffffffffffffffffffffffffffffffffffffffffffffffffffffffffffc0878603018452815173ffffffffffffffffffffffffffffffffffffffff81511686526020810151606060208801526147f26060880182613a7d565b905060408201519150868103604088015261480d8183613731565b96505050602093840193919091019060010161478e565b73ffffffffffffffffffffffffffffffffffffffff8616815260a06020820152600061485360a0830187613a7d565b82810360408401526148658187613731565b90507fffffffff000000000000000000000000000000000000000000000000000000008516606084015282810360808401526148a18185613731565b98975050505050505050565b6000602082840312156148bf57600080fd5b8151611817816133fd565b600086516148dc818460208b0161370d565b7fff0000000000000000000000000000000000000000000000000000000000000087169083019081528551614918816001840160208a0161370d565b7fff00000000000000000000000000000000000000000000000000000000000000861660019290910191820152835161495881600284016020880161370d565b01600201979650505050505050565b6020815273ffffffffffffffffffffffffffffffffffffffff82511660208201527fffffffff0000000000000000000000000000000000000000000000000000000060208301511660408201526000604083015160c060608401526149cf60e0840182613731565b90507fffffffff0000000000000000000000000000000000000000000000000000000060608501511660808401527fffffffff0000000000000000000000000000000000000000000000000000000060808501511660a084015260a08401517fffffffffffffffffffffffffffffffffffffffffffffffffffffffffffffffe08483030160c0850152613c088282613731565b8082018082111561042c5761042c614459565b600080600080600060a08688031215614a8d57600080fd5b8551614a98816133fd565b602087015190955067ffffffffffffffff811115614ab557600080fd5b614ac188828901614216565b945050604086015167ffffffffffffffff811115614ade57600080fd5b614aea88828901613f05565b9350506060860151614afb816132ff565b608087015190925067ffffffffffffffff811115614b1857600080fd5b613ca488828901613f0556fea264697066735822122084f9ea59b473b1991a8ef12ca16a590b7c121f1b45f67d70f9ac492af54f2bdf64736f6c634300081a0033",
  "devdoc": {
    "errors": {
      "DNSDecodingFailed(bytes)": [
        {
          "details": "The DNS-encoded name is malformed.      Error selector: `0xba4adc23`"
        }
      ],
      "DNSEncodingFailed(string)": [
        {
          "details": "A label of the ENS name has an invalid size.      Error selector: `0x9a4c3e3b`"
        }
      ],
      "EmptyAddress()": [
        {
          "details": "The supplied address was `0x`.      Error selector: `0x7138356f`"
        }
      ],
      "HttpError(uint16,string)": [
        {
          "details": "Error selector: `0x01800152`"
        }
      ],
      "InvalidBatchGatewayResponse()": [
        {
          "details": "Error selector: `0x4a5c31ea`"
        }
      ],
      "OffchainLookup(address,string[],bytes,bytes4,bytes)": [
        {
          "details": "https://eips.ethereum.org/EIPS/eip-3668 Error selector: `0x556f1830`"
        }
      ],
      "OffsetOutOfBoundsError(uint256,uint256)": [
        {
          "details": "`offset` was beyond `length`.       Error selector: `0x8a3c1cfb`"
        }
      ],
      "ResolverError(bytes)": [
        {
          "details": "Error selector: `0x95c0c752`"
        }
      ],
      "ResolverNotContract(bytes,address)": [
        {
          "details": "Error selector: `0x1e9535f2`"
        }
      ],
      "ResolverNotFound(bytes)": [
        {
          "details": "Error selector: `0x77209fe8`"
        }
      ],
      "ReverseAddressMismatch(string,bytes)": [
        {
          "details": "Error selector: `0xef9c03ce`"
        }
      ],
      "UnsupportedResolverProfile(bytes4)": [
        {
          "details": "Error selector: `0x7b1c461b`"
        }
      ]
    },
    "kind": "dev",
    "methods": {
      "ccipBatch(((address,bytes,bytes,uint256)[],string[]))": {
        "details": "Use `ccipRead()` to call this function with a batch.      The callback response will be `abi.encode(batch)`."
      },
      "ccipBatchCallback(bytes,bytes)": {
        "details": "CCIP-Read callback for `ccipBatch()`.      Updates `batch` using the batch gateway response. Reverts again if not \"done\".",
        "params": {
          "extraData": "The contextual data passed from `ccipBatch()`.",
          "response": "The response from the batch gateway."
        },
        "returns": {
          "batch": "The batch where every lookup is \"done\"."
        }
      },
      "ccipReadCallback(bytes,bytes)": {
        "details": "CCIP-Read callback for `ccipRead()`.The return type of this function is polymorphic depending on the caller.",
        "params": {
          "extraData": "The contextual data passed from `ccipRead()`.",
          "response": "The response from offchain."
        }
      },
      "findResolver(bytes)": {
        "details": "Find the resolver address for `name`.      Does not perform any validity checks on the resolver.",
        "params": {
          "name": "The name to search."
        },
        "returns": {
          "_0": "The resolver or `address(0)` if not found.",
          "_1": "The namehash of `name`.",
          "_2": "The offset into `name` corresponding to `resolver`."
        }
      },
      "requireResolver(bytes)": {
        "details": "Returns a valid resolver for `name` or reverts.",
        "params": {
          "name": "The name to search."
        },
        "returns": {
          "info": "The resolver information."
        }
      },
      "resolveBatchCallback(bytes,bytes)": {
        "details": "CCIP-Read callback for `_callResolver()` from calling the batch gateway successfully."
      },
      "resolveCallback(bytes,bytes)": {
        "details": "CCIP-Read callback for `resolveWithGateways()`.",
        "params": {
          "extraData": "The contextual data passed from `resolveWith*()`.",
          "response": "The response from the resolver."
        }
      },
      "resolveDirectCallback(bytes,bytes)": {
        "details": "CCIP-Read callback for `_callResolver()` from calling the resolver successfully."
      },
      "resolveDirectCallbackError(bytes,bytes)": {
        "details": "CCIP-Read callback for `_callResolver()` from calling the resolver unsuccessfully."
      },
      "resolveWithGateways(bytes,bytes,string[])": {
        "details": "This function executes over multiple steps.",
        "params": {
          "data": "The resolution data, as specified in ENSIP-10.",
          "gateways": "The list of batch gateway URLs to use.",
          "name": "The name to resolve, in normalised and DNS-encoded form."
        },
        "returns": {
          "resolver": "The address of the resolver that supplied `result`.",
          "result": "The encoded response for the requested call."
        }
      },
      "reverseAddressCallback(bytes,bytes)": {
        "details": "CCIP-Read callback for `reverseNameCallback()`.      Reverts `ReverseAddressMismatch`.",
        "params": {
          "extraData": "The contextual data passed from `reverseNameCallback()`.",
          "response": "The abi-encoded `addr()` response from the forward resolver."
        }
      },
      "reverseNameCallback(bytes,bytes)": {
        "details": "CCIP-Read callback for `reverseWithGateways()`.",
        "params": {
          "extraData": "The contextual data passed from `reverseWithGateways()`.",
          "response": "The abi-encoded `name()` response from the reverse resolver."
        }
      },
      "reverseWithGateways(bytes,uint256,string[])": {
        "details": "This function executes over multiple steps.",
        "params": {
          "coinType": "The coin type.",
          "gateways": "The list of batch gateway URLs to use.",
          "lookupAddress": "The input address."
        },
        "returns": {
          "primary": "The resolved primary name.",
          "resolver": "The resolver address for primary name.",
          "reverseResolver": "The resolver address for the reverse name."
        }
      },
      "supportsInterface(bytes4)": {
        "details": "See {IERC165-supportsInterface}."
      }
    },
    "version": 1
  },
  "userdoc": {
    "errors": {
      "HttpError(uint16,string)": [
        {
          "notice": "An HTTP error occurred on a resolving gateway."
        }
      ],
      "InvalidBatchGatewayResponse()": [
        {
          "notice": "The batch gateway supplied an incorrect number of responses."
        }
      ],
      "ResolverError(bytes)": [
        {
          "notice": "The resolver returned an error."
        }
      ],
      "ResolverNotContract(bytes,address)": [
        {
          "notice": "The resolver is not a contract."
        }
      ],
      "ResolverNotFound(bytes)": [
        {
          "notice": "A resolver could not be found for the supplied name."
        }
      ],
      "ReverseAddressMismatch(string,bytes)": [
        {
          "notice": "The resolved address from reverse resolution does not match the supplied address."
        }
      ],
      "UnsupportedResolverProfile(bytes4)": [
        {
          "notice": "The resolver did not respond."
        }
      ]
    },
    "kind": "user",
    "methods": {
      "resolve(bytes,bytes)": {
        "notice": "Same as `resolveWithGateways()` but uses default batch gateways."
      },
      "resolveWithGateways(bytes,bytes,string[])": {
        "notice": "Performs ENS resolution process for the supplied name and resolution data.         Caller should enable EIP-3668."
      },
      "resolveWithResolver(address,bytes,bytes,string[])": {
        "notice": "Same as `resolveWithGateways()` but uses the supplied resolver."
      },
      "reverse(bytes,uint256)": {
        "notice": "Same as `reverseWithGateways()` but uses default batch gateways."
      },
      "reverseWithGateways(bytes,uint256,string[])": {
        "notice": "Performs ENS reverse resolution for the supplied address and coin type.         Caller should enable EIP-3668."
      }
    },
    "version": 1
  },
  "storageLayout": {
    "storage": [],
    "types": null
  }
}