{
  "address": "0x00000BeEF055f7934784D6d81b6BC86665630dbA",
  "abi": [
    {
      "inputs": [
        {
          "internalType": "uint256",
          "name": "coinType_",
          "type": "uint256"
        },
        {
          "internalType": "address",
          "name": "owner_",
          "type": "address"
        },
        {
          "internalType": "bytes32",
          "name": "parentNode_",
          "type": "bytes32"
        },
        {
          "internalType": "contract INameResolver",
          "name": "oldReverseResolver_",
          "type": "address"
        }
      ],
      "stateMutability": "nonpayable",
      "type": "constructor"
    },
    {
      "inputs": [],
      "name": "CoinTypeNotFound",
      "type": "error"
    },
    {
      "inputs": [],
      "name": "InvalidSignature",
      "type": "error"
    },
    {
      "inputs": [],
      "name": "NotOwnerOfContract",
      "type": "error"
    },
    {
      "inputs": [
        {
          "internalType": "address",
          "name": "owner",
          "type": "address"
        }
      ],
      "name": "OwnableInvalidOwner",
      "type": "error"
    },
    {
      "inputs": [
        {
          "internalType": "address",
          "name": "account",
          "type": "address"
        }
      ],
      "name": "OwnableUnauthorizedAccount",
      "type": "error"
    },
    {
      "inputs": [],
      "name": "SignatureExpired",
      "type": "error"
    },
    {
      "inputs": [],
      "name": "SignatureExpiryTooHigh",
      "type": "error"
    },
    {
      "inputs": [],
      "name": "Unauthorised",
      "type": "error"
    },
    {
      "anonymous": false,
      "inputs": [
        {
          "indexed": true,
          "internalType": "address",
          "name": "addr",
          "type": "address"
        },
        {
          "indexed": false,
          "internalType": "string",
          "name": "name",
          "type": "string"
        }
      ],
      "name": "NameForAddrChanged",
      "type": "event"
    },
    {
      "anonymous": false,
      "inputs": [
        {
          "indexed": true,
          "internalType": "address",
          "name": "previousOwner",
          "type": "address"
        },
        {
          "indexed": true,
          "internalType": "address",
          "name": "newOwner",
          "type": "address"
        }
      ],
      "name": "OwnershipTransferred",
      "type": "event"
    },
    {
      "inputs": [
        {
          "internalType": "address[]",
          "name": "addresses",
          "type": "address[]"
        }
      ],
      "name": "batchSetName",
      "outputs": [],
      "stateMutability": "nonpayable",
      "type": "function"
    },
    {
      "inputs": [],
      "name": "coinType",
      "outputs": [
        {
          "internalType": "uint256",
          "name": "",
          "type": "uint256"
        }
      ],
      "stateMutability": "view",
      "type": "function"
    },
    {
      "inputs": [
        {
          "internalType": "address",
          "name": "addr",
          "type": "address"
        }
      ],
      "name": "nameForAddr",
      "outputs": [
        {
          "internalType": "string",
          "name": "name",
          "type": "string"
        }
      ],
      "stateMutability": "view",
      "type": "function"
    },
    {
      "inputs": [],
      "name": "owner",
      "outputs": [
        {
          "internalType": "address",
          "name": "",
          "type": "address"
        }
      ],
      "stateMutability": "view",
      "type": "function"
    },
    {
      "inputs": [],
      "name": "renounceOwnership",
      "outputs": [],
      "stateMutability": "nonpayable",
      "type": "function"
    },
    {
      "inputs": [
        {
          "internalType": "string",
          "name": "name",
          "type": "string"
        }
      ],
      "name": "setName",
      "outputs": [],
      "stateMutability": "nonpayable",
      "type": "function"
    },
    {
      "inputs": [
        {
          "internalType": "address",
          "name": "addr",
          "type": "address"
        },
        {
          "internalType": "string",
          "name": "name",
          "type": "string"
        }
      ],
      "name": "setNameForAddr",
      "outputs": [],
      "stateMutability": "nonpayable",
      "type": "function"
    },
    {
      "inputs": [
        {
          "internalType": "address",
          "name": "addr",
          "type": "address"
        },
        {
          "internalType": "uint256",
          "name": "signatureExpiry",
          "type": "uint256"
        },
        {
          "internalType": "string",
          "name": "name",
          "type": "string"
        },
        {
          "internalType": "uint256[]",
          "name": "coinTypes",
          "type": "uint256[]"
        },
        {
          "internalType": "bytes",
          "name": "signature",
          "type": "bytes"
        }
      ],
      "name": "setNameForAddrWithSignature",
      "outputs": [],
      "stateMutability": "nonpayable",
      "type": "function"
    },
    {
      "inputs": [
        {
          "internalType": "address",
          "name": "contractAddr",
          "type": "address"
        },
        {
          "internalType": "address",
          "name": "owner",
          "type": "address"
        },
        {
          "internalType": "uint256",
          "name": "signatureExpiry",
          "type": "uint256"
        },
        {
          "internalType": "string",
          "name": "name",
          "type": "string"
        },
        {
          "internalType": "uint256[]",
          "name": "coinTypes",
          "type": "uint256[]"
        },
        {
          "internalType": "bytes",
          "name": "signature",
          "type": "bytes"
        }
      ],
      "name": "setNameForOwnableWithSignature",
      "outputs": [],
      "stateMutability": "nonpayable",
      "type": "function"
    },
    {
      "inputs": [
        {
          "internalType": "bytes4",
          "name": "interfaceID",
          "type": "bytes4"
        }
      ],
      "name": "supportsInterface",
      "outputs": [
        {
          "internalType": "bool",
          "name": "",
          "type": "bool"
        }
      ],
      "stateMutability": "view",
      "type": "function"
    },
    {
      "inputs": [
        {
          "internalType": "address",
          "name": "newOwner",
          "type": "address"
        }
      ],
      "name": "transferOwnership",
      "outputs": [],
      "stateMutability": "nonpayable",
      "type": "function"
    }
  ],
  "transactionHash": "0x2f01fd0c051689e429ca950702215095b5b09baaba696b5605044a4d7390f699",
  "args": [
    2147568180,
    "0x343431e9CEb7C19cC8d3eA0EE231bfF82B584910",
    "0x9831acb91a733dba6ffe6c6e872dd546b8c24e2dbd225f3616a8c670cbbd8b8a",
    "0x6533C94869D28fAA8dF77cc63f9e2b2D6Cf77eBA"
  ],
  "numDeployments": 1,
  "solcInputHash": "f861c659967cc3d9e93bf02e0de47087",
  "bytecode": "0x60e060405234801561001057600080fd5b50604051611ec6380380611ec683398101604081905261002f916100f1565b6080849052826001600160a01b03811661006357604051631e4fbdf760e01b81526000600482015260240160405180910390fd5b61006c81610087565b5060c0919091526001600160a01b031660a0525061013c9050565b600180546001600160a01b038381166001600160a01b0319831681179093556040519116919082907f8be0079c531659141344cd1fd0a4f28419497f9722a3daafe3b4186f6b6457e090600090a35050565b6001600160a01b03811681146100ee57600080fd5b50565b6000806000806080858703121561010757600080fd5b845193506020850151610119816100d9565b604086015160608701519194509250610131816100d9565b939692955090935050565b60805160a05160c051611d5461017260003960006102620152600061035501526000818161011001526109770152611d546000f3fe608060405234801561001057600080fd5b50600436106100c95760003560e01c806364752d0b11610081578063c47f00271161005b578063c47f0027146101b6578063c9119941146101c9578063f2fde38b146101dc57600080fd5b806364752d0b14610173578063715018a6146101865780638da5cb5b1461018e57600080fd5b80631fe93ea8116100b25780631fe93ea81461010b5780633e1ec1e5146101405780634ec3bd231461015357600080fd5b806301ffc9a7146100ce578063119b1c18146100f6575b600080fd5b6100e16100dc36600461112f565b6101ef565b60405190151581526020015b60405180910390f35b6101096101043660046111bd565b61024b565b005b6101327f000000000000000000000000000000000000000000000000000000000000000081565b6040519081526020016100ed565b61010961014e366004611263565b6104c4565b61016661016136600461133a565b6105ae565b6040516100ed91906113c5565b6101096101813660046113d8565b610667565b6101096106c5565b60015460405173ffffffffffffffffffffffffffffffffffffffff90911681526020016100ed565b6101096101c436600461149a565b6106d9565b6101096101d73660046114d0565b6106e5565b6101096101ea36600461133a565b61075b565b60007fffffffff0000000000000000000000000000000000000000000000000000000082167f570575880000000000000000000000000000000000000000000000000000000014806102455750610245826107c4565b92915050565b61025361085b565b60005b818110156104bf5760007f00000000000000000000000000000000000000000000000000000000000000006102c685858581811061029657610296611525565b90506020020160208101906102ab919061133a565b73ffffffffffffffffffffffffffffffffffffffff166108ae565b604080516020810193909352820152606001604080517fffffffffffffffffffffffffffffffffffffffffffffffffffffffffffffffe08184030181529082905280516020909101207f691f343100000000000000000000000000000000000000000000000000000000825260048201819052915060009073ffffffffffffffffffffffffffffffffffffffff7f0000000000000000000000000000000000000000000000000000000000000000169063691f343190602401600060405180830381865afa15801561039c573d6000803e3d6000fd5b505050506040513d6000823e601f3d9081017fffffffffffffffffffffffffffffffffffffffffffffffffffffffffffffffe01682016040526103e29190810190611583565b9050806000808787878181106103fa576103fa611525565b905060200201602081019061040f919061133a565b73ffffffffffffffffffffffffffffffffffffffff168152602081019190915260400160002090610440908261170f565b5084848481811061045357610453611525565b9050602002016020810190610468919061133a565b73ffffffffffffffffffffffffffffffffffffffff167f8af7a4c7007a33f680904f3b64733396b730fef22d79555dee29801ca2e479a9826040516104ad91906113c5565b60405180910390a25050600101610256565b505050565b83836104d0828261096a565b600061054630633e1ec1e560e01b8e8e8e8e8e8e8e6040516020016104fd9998979695949392919061186a565b604051602081830303815290604052805190602001207f19457468657265756d205369676e6564204d6573736167653a0a3332000000006000908152601c91909152603c902090565b90506105528c8c6109f4565b610588576040517f4570a02400000000000000000000000000000000000000000000000000000000815260040160405180910390fd5b61059585858d848e610ae6565b6105a08c8a8a610cff565b505050505050505050505050565b73ffffffffffffffffffffffffffffffffffffffff811660009081526020819052604090208054606091906105e290611675565b80601f016020809104026020016040519081016040528092919081815260200182805461060e90611675565b801561065b5780601f106106305761010080835404028352916020019161065b565b820191906000526020600020905b81548152906001019060200180831161063e57829003601f168201915b50505050509050919050565b8383610673828261096a565b600061069e306364752d0b60e01b8d8d8d8d8d8d6040516020016104fd989796959493929190611944565b90506106ad85858d848e610ae6565b6106b88b8a8a610cff565b5050505050505050505050565b6106cd61085b565b6106d76000610d85565b565b336104bf338484610cff565b8273ffffffffffffffffffffffffffffffffffffffff81163314801590610713575061071181336109f4565b155b1561074a576040517fd7a2ae6a00000000000000000000000000000000000000000000000000000000815260040160405180910390fd5b610755848484610cff565b50505050565b61076361085b565b73ffffffffffffffffffffffffffffffffffffffff81166107b8576040517f1e4fbdf7000000000000000000000000000000000000000000000000000000008152600060048201526024015b60405180910390fd5b6107c181610d85565b50565b60007fffffffff0000000000000000000000000000000000000000000000000000000082167f4ec3bd2300000000000000000000000000000000000000000000000000000000148061024557507f01ffc9a7000000000000000000000000000000000000000000000000000000007fffffffff00000000000000000000000000000000000000000000000000000000831614610245565b60015473ffffffffffffffffffffffffffffffffffffffff1633146106d7576040517f118cdaa70000000000000000000000000000000000000000000000000000000081523360048201526024016107af565b600060285b801561095e577fffffffffffffffffffffffffffffffffffffffffffffffffffffffffffffffff017f3031323334353637383961626364656600000000000000000000000000000000600f84161a81536010909204917fffffffffffffffffffffffffffffffffffffffffffffffffffffffffffffffff017f3031323334353637383961626364656600000000000000000000000000000000600f84161a81536010830492506108b3565b50506028600020919050565b60005b818110156109c1577f00000000000000000000000000000000000000000000000000000000000000008383838181106109a8576109a8611525565b90506020020135036109b957505050565b60010161096d565b506040517f8537a00b00000000000000000000000000000000000000000000000000000000815260040160405180910390fd5b60008273ffffffffffffffffffffffffffffffffffffffff163b600003610a1d57506000610245565b8273ffffffffffffffffffffffffffffffffffffffff16638da5cb5b6040518163ffffffff1660e01b8152600401602060405180830381865afa925050508015610aa2575060408051601f3d9081017fffffffffffffffffffffffffffffffffffffffffffffffffffffffffffffffe0168201909252610a9f918101906119f2565b60015b610aae57506000610245565b8273ffffffffffffffffffffffffffffffffffffffff168173ffffffffffffffffffffffffffffffffffffffff161491505092915050565b7f64926492649264926492649264926492649264926492649264926492649264928585610b14602082611a3e565b610b2092889290611a51565b610b2991611a7b565b03610c02576040517f98ef1ed800000000000000000000000000000000000000000000000000000000815273164af34faf9879394370c7f09064127c043a35e9906398ef1ed890610b8490869086908a908a90600401611b00565b6020604051808303816000875af1158015610ba3573d6000803e3d6000fd5b505050506040513d601f19601f82011682018060405250810190610bc79190611b36565b610bfd576040517f8baa579f00000000000000000000000000000000000000000000000000000000815260040160405180910390fd5b610c79565b610c43838387878080601f016020809104026020016040519081016040528093929190818152602001838380828437600092019190915250610dfc92505050565b610c79576040517f8baa579f00000000000000000000000000000000000000000000000000000000815260040160405180910390fd5b42811015610cb3576040517f0819bdcd00000000000000000000000000000000000000000000000000000000815260040160405180910390fd5b610cbf42610e10611b58565b811115610cf8576040517f5e4989ee00000000000000000000000000000000000000000000000000000000815260040160405180910390fd5b5050505050565b73ffffffffffffffffffffffffffffffffffffffff83166000908152602081905260409020610d2f828483611b6b565b508273ffffffffffffffffffffffffffffffffffffffff167f8af7a4c7007a33f680904f3b64733396b730fef22d79555dee29801ca2e479a98383604051610d78929190611c85565b60405180910390a2505050565b6001805473ffffffffffffffffffffffffffffffffffffffff8381167fffffffffffffffffffffffff0000000000000000000000000000000000000000831681179093556040519116919082907f8be0079c531659141344cd1fd0a4f28419497f9722a3daafe3b4186f6b6457e090600090a35050565b60008373ffffffffffffffffffffffffffffffffffffffff163b600003610e8557600080610e2a8585610e9a565b5090925090506000816003811115610e4457610e44611ca1565b148015610e7c57508573ffffffffffffffffffffffffffffffffffffffff168273ffffffffffffffffffffffffffffffffffffffff16145b92505050610e93565b610e90848484610ee7565b90505b9392505050565b60008060008351604103610ed45760208401516040850151606086015160001a610ec688828585611035565b955095509550505050610ee0565b50508151600091506002905b9250925092565b60008060008573ffffffffffffffffffffffffffffffffffffffff168585604051602401610f16929190611cd0565b604080517fffffffffffffffffffffffffffffffffffffffffffffffffffffffffffffffe08184030181529181526020820180517bffffffffffffffffffffffffffffffffffffffffffffffffffffffff167f1626ba7e0000000000000000000000000000000000000000000000000000000017905251610f979190611ce9565b600060405180830381855afa9150503d8060008114610fd2576040519150601f19603f3d011682016040523d82523d6000602084013e610fd7565b606091505b5091509150818015610feb57506020815110155b801561102b575080517f1626ba7e00000000000000000000000000000000000000000000000000000000906110299083016020908101908401611d05565b145b9695505050505050565b600080807f7fffffffffffffffffffffffffffffff5d576e7357a4501ddfe92f46681b20a08411156110705750600091506003905082611125565b604080516000808252602082018084528a905260ff891692820192909252606081018790526080810186905260019060a0016020604051602081039080840390855afa1580156110c4573d6000803e3d6000fd5b50506040517fffffffffffffffffffffffffffffffffffffffffffffffffffffffffffffffe0015191505073ffffffffffffffffffffffffffffffffffffffff811661111b57506000925060019150829050611125565b9250600091508190505b9450945094915050565b60006020828403121561114157600080fd5b81357fffffffff0000000000000000000000000000000000000000000000000000000081168114610e9357600080fd5b60008083601f84011261118357600080fd5b50813567ffffffffffffffff81111561119b57600080fd5b6020830191508360208260051b85010111156111b657600080fd5b9250929050565b600080602083850312156111d057600080fd5b823567ffffffffffffffff8111156111e757600080fd5b6111f385828601611171565b90969095509350505050565b73ffffffffffffffffffffffffffffffffffffffff811681146107c157600080fd5b60008083601f84011261123357600080fd5b50813567ffffffffffffffff81111561124b57600080fd5b6020830191508360208285010111156111b657600080fd5b600080600080600080600080600060c08a8c03121561128157600080fd5b893561128c816111ff565b985060208a013561129c816111ff565b975060408a0135965060608a013567ffffffffffffffff8111156112bf57600080fd5b6112cb8c828d01611221565b90975095505060808a013567ffffffffffffffff8111156112eb57600080fd5b6112f78c828d01611171565b90955093505060a08a013567ffffffffffffffff81111561131757600080fd5b6113238c828d01611221565b915080935050809150509295985092959850929598565b60006020828403121561134c57600080fd5b8135610e93816111ff565b60005b8381101561137257818101518382015260200161135a565b50506000910152565b60008151808452611393816020860160208601611357565b601f017fffffffffffffffffffffffffffffffffffffffffffffffffffffffffffffffe0169290920160200192915050565b602081526000610e93602083018461137b565b60008060008060008060008060a0898b0312156113f457600080fd5b88356113ff816111ff565b975060208901359650604089013567ffffffffffffffff81111561142257600080fd5b61142e8b828c01611221565b909750955050606089013567ffffffffffffffff81111561144e57600080fd5b61145a8b828c01611171565b909550935050608089013567ffffffffffffffff81111561147a57600080fd5b6114868b828c01611221565b999c989b5096995094979396929594505050565b600080602083850312156114ad57600080fd5b823567ffffffffffffffff8111156114c457600080fd5b6111f385828601611221565b6000806000604084860312156114e557600080fd5b83356114f0816111ff565b9250602084013567ffffffffffffffff81111561150c57600080fd5b61151886828701611221565b9497909650939450505050565b7f4e487b7100000000000000000000000000000000000000000000000000000000600052603260045260246000fd5b7f4e487b7100000000000000000000000000000000000000000000000000000000600052604160045260246000fd5b60006020828403121561159557600080fd5b815167ffffffffffffffff8111156115ac57600080fd5b8201601f810184136115bd57600080fd5b805167ffffffffffffffff8111156115d7576115d7611554565b6040517fffffffffffffffffffffffffffffffffffffffffffffffffffffffffffffffe0603f7fffffffffffffffffffffffffffffffffffffffffffffffffffffffffffffffe0601f8501160116810181811067ffffffffffffffff8211171561164357611643611554565b60405281815282820160200186101561165b57600080fd5b61166c826020830160208601611357565b95945050505050565b600181811c9082168061168957607f821691505b6020821081036116c2577f4e487b7100000000000000000000000000000000000000000000000000000000600052602260045260246000fd5b50919050565b601f8211156104bf57806000526020600020601f840160051c810160208510156116ef5750805b601f840160051c820191505b81811015610cf857600081556001016116fb565b815167ffffffffffffffff81111561172957611729611554565b61173d816117378454611675565b846116c8565b6020601f82116001811461178f57600083156117595750848201515b7fffffffffffffffffffffffffffffffffffffffffffffffffffffffffffffffff600385901b1c1916600184901b178455610cf8565b6000848152602081207fffffffffffffffffffffffffffffffffffffffffffffffffffffffffffffffe08516915b828110156117dd57878501518255602094850194600190920191016117bd565b508482101561181957868401517fffffffffffffffffffffffffffffffffffffffffffffffffffffffffffffffff600387901b60f8161c191681555b50505050600190811b01905550565b60007f07ffffffffffffffffffffffffffffffffffffffffffffffffffffffffffffff83111561185757600080fd5b8260051b80838637939093019392505050565b7fffffffffffffffffffffffffffffffffffffffff0000000000000000000000008a60601b1681527fffffffff00000000000000000000000000000000000000000000000000000000891660148201527fffffffffffffffffffffffffffffffffffffffff0000000000000000000000008860601b1660188201527fffffffffffffffffffffffffffffffffffffffff0000000000000000000000008760601b16602c82015285604082015283856060830137600060608583010160008152611934818587611828565b9c9b505050505050505050505050565b7fffffffffffffffffffffffffffffffffffffffff0000000000000000000000008960601b1681527fffffffff00000000000000000000000000000000000000000000000000000000881660148201527fffffffffffffffffffffffffffffffffffffffff0000000000000000000000008760601b16601882015285602c8201528385604c8301376000604c85830101600081526119e3818587611828565b9b9a5050505050505050505050565b600060208284031215611a0457600080fd5b8151610e93816111ff565b7f4e487b7100000000000000000000000000000000000000000000000000000000600052601160045260246000fd5b8181038181111561024557610245611a0f565b60008085851115611a6157600080fd5b83861115611a6e57600080fd5b5050820193919092039150565b80356020831015610245577fffffffffffffffffffffffffffffffffffffffffffffffffffffffffffffffff602084900360031b1b1692915050565b8183528181602085013750600060208284010152600060207fffffffffffffffffffffffffffffffffffffffffffffffffffffffffffffffe0601f840116840101905092915050565b73ffffffffffffffffffffffffffffffffffffffff8516815283602082015260606040820152600061102b606083018486611ab7565b600060208284031215611b4857600080fd5b81518015158114610e9357600080fd5b8082018082111561024557610245611a0f565b67ffffffffffffffff831115611b8357611b83611554565b611b9783611b918354611675565b836116c8565b6000601f841160018114611be95760008515611bb35750838201355b7fffffffffffffffffffffffffffffffffffffffffffffffffffffffffffffffff600387901b1c1916600186901b178355610cf8565b6000838152602090207fffffffffffffffffffffffffffffffffffffffffffffffffffffffffffffffe0861690835b82811015611c385786850135825560209485019460019092019101611c18565b5086821015611c73577fffffffffffffffffffffffffffffffffffffffffffffffffffffffffffffffff60f88860031b161c19848701351681555b505060018560011b0183555050505050565b602081526000611c99602083018486611ab7565b949350505050565b7f4e487b7100000000000000000000000000000000000000000000000000000000600052602160045260246000fd5b828152604060208201526000611c99604083018461137b565b60008251611cfb818460208701611357565b9190910192915050565b600060208284031215611d1757600080fd5b505191905056fea264697066735822122085d3f312154bc2cfc563ce3246b04d8cf12934706096e1eefd9c5ad047073e1e64736f6c634300081a0033",
  "devdoc": {
    "errors": {
      "OwnableInvalidOwner(address)": [
        {
          "details": "The owner is not a valid owner account. (eg. `address(0)`)"
        }
      ],
      "OwnableUnauthorizedAccount(address)": [
        {
          "details": "The caller account is not authorized to perform an operation."
        }
      ]
    },
    "events": {
      "NameForAddrChanged(address,string)": {
        "params": {
          "addr": "The address of the reverse record.",
          "name": "The name of the reverse record."
        }
      }
    },
    "kind": "dev",
    "methods": {
      "batchSetName(address[])": {
        "params": {
          "addresses": "The addresses to migrate."
        }
      },
      "constructor": {
        "params": {
          "coinType_": "The cointype converted from the chainId of the chain this contract is deployed to.",
          "oldReverseResolver_": "The old reverse resolver.",
          "owner_": "The initial owner of the contract.",
          "parentNode_": "The parent node to set. The convention is '${coinType}.reverse'."
        }
      },
      "nameForAddr(address)": {
        "params": {
          "addr": "The address to get the name for."
        },
        "returns": {
          "name": "The name for the address."
        }
      },
      "owner()": {
        "details": "Returns the address of the current owner."
      },
      "renounceOwnership()": {
        "details": "Leaves the contract without owner. It will not be possible to call `onlyOwner` functions. Can only be called by the current owner. NOTE: Renouncing ownership will leave the contract without an owner, thereby disabling any functionality that is only available to the owner."
      },
      "setName(string)": {
        "params": {
          "name": "The name to set."
        }
      },
      "setNameForAddr(address,string)": {
        "params": {
          "addr": "The address to set the name for.",
          "name": "The name to set."
        }
      },
      "setNameForAddrWithSignature(address,uint256,string,uint256[],bytes)": {
        "params": {
          "addr": "The address to set the name for.",
          "coinTypes": "The coin types to set. Must be inclusive of the coin type for the contract.",
          "name": "The name to set.",
          "signature": "The signature from the addr.",
          "signatureExpiry": "Date when the signature expires."
        }
      },
      "setNameForOwnableWithSignature(address,address,uint256,string,uint256[],bytes)": {
        "params": {
          "coinTypes": "The coin types to set. Must be inclusive of the coin type for the contract.",
          "contractAddr": "The address of the contract to set the name for (implementing Ownable).",
          "name": "The name to set.",
          "owner": "The owner of the contract (via Ownable).",
          "signature": "The signature of an address that will return true on isValidSignature for the owner.",
          "signatureExpiry": "The expiry of the signature."
        }
      },
      "supportsInterface(bytes4)": {
        "details": "See {IERC165-supportsInterface}."
      },
      "transferOwnership(address)": {
        "details": "Transfers ownership of the contract to a new account (`newOwner`). Can only be called by the current owner."
      }
    },
    "version": 1
  },
  "userdoc": {
    "errors": {
      "CoinTypeNotFound()": [
        {
          "notice": "Thrown when the coin type is not found in the provided array"
        }
      ],
      "InvalidSignature()": [
        {
          "notice": "The signature is invalid"
        }
      ],
      "NotOwnerOfContract()": [
        {
          "notice": "Thrown when the specified address is not the owner of the contract"
        }
      ],
      "SignatureExpired()": [
        {
          "notice": "The signature has expired"
        }
      ],
      "SignatureExpiryTooHigh()": [
        {
          "notice": "The signature expiry is too high"
        }
      ],
      "Unauthorised()": [
        {
          "notice": "The caller is not authorised to perform the action"
        }
      ]
    },
    "events": {
      "NameForAddrChanged(address,string)": {
        "notice": "Emitted when the name for an address is changed."
      }
    },
    "kind": "user",
    "methods": {
      "batchSetName(address[])": {
        "notice": "Migrates the names from the old reverse resolver to the new one.         Only callable by the owner."
      },
      "coinType()": {
        "notice": "The coin type for the chain this contract is deployed to."
      },
      "constructor": {
        "notice": "Initialises the contract by setting the parent node, coin type, and old reverse resolver."
      },
      "nameForAddr(address)": {
        "notice": "Returns the name for an address."
      },
      "setName(string)": {
        "notice": "Sets the `nameForAddr()` record for the calling account."
      },
      "setNameForAddr(address,string)": {
        "notice": "Sets the `nameForAddr()` record for the addr provided account."
      },
      "setNameForAddrWithSignature(address,uint256,string,uint256[],bytes)": {
        "notice": "Sets the `nameForAddr()` record for the addr provided account using a signature."
      },
      "setNameForOwnableWithSignature(address,address,uint256,string,uint256[],bytes)": {
        "notice": "Sets the `nameForAddr()` record for the contract provided that is owned with `Ownable`."
      }
    },
    "notice": "An L2 Reverse Registrar that allows migrating from a prior resolver.",
    "version": 1
  },
  "storageLayout": {
    "storage": [
      {
        "astId": 5297,
        "contract": "contracts/reverseRegistrar/L2ReverseRegistrarWithMigration.sol:L2ReverseRegistrarWithMigration",
        "label": "_names",
        "offset": 0,
        "slot": "0",
        "type": "t_mapping(t_address,t_string_storage)"
      },
      {
        "astId": 8,
        "contract": "contracts/reverseRegistrar/L2ReverseRegistrarWithMigration.sol:L2ReverseRegistrarWithMigration",
        "label": "_owner",
        "offset": 0,
        "slot": "1",
        "type": "t_address"
      }
    ],
    "types": {
      "t_address": {
        "encoding": "inplace",
        "label": "address",
        "numberOfBytes": "20"
      },
      "t_mapping(t_address,t_string_storage)": {
        "encoding": "mapping",
        "key": "t_address",
        "label": "mapping(address => string)",
        "numberOfBytes": "32",
        "value": "t_string_storage"
      },
      "t_string_storage": {
        "encoding": "bytes",
        "label": "string",
        "numberOfBytes": "32"
      }
    }
  }
}